{
  "_format": "hh-sol-artifact-1",
  "contractName": "MyEpicNFT",
  "sourceName": "contracts/MyEpicNFT.sol",
  "abi": [
    {
      "inputs": [],
      "stateMutability": "nonpayable",
      "type": "constructor"
    },
    {
      "anonymous": false,
      "inputs": [
        {
          "indexed": true,
          "internalType": "address",
          "name": "owner",
          "type": "address"
        },
        {
          "indexed": true,
          "internalType": "address",
          "name": "approved",
          "type": "address"
        },
        {
          "indexed": true,
          "internalType": "uint256",
          "name": "tokenId",
          "type": "uint256"
        }
      ],
      "name": "Approval",
      "type": "event"
    },
    {
      "anonymous": false,
      "inputs": [
        {
          "indexed": true,
          "internalType": "address",
          "name": "owner",
          "type": "address"
        },
        {
          "indexed": true,
          "internalType": "address",
          "name": "operator",
          "type": "address"
        },
        {
          "indexed": false,
          "internalType": "bool",
          "name": "approved",
          "type": "bool"
        }
      ],
      "name": "ApprovalForAll",
      "type": "event"
    },
    {
      "anonymous": false,
      "inputs": [
        {
          "indexed": false,
          "internalType": "address",
          "name": "sender",
          "type": "address"
        },
        {
          "indexed": false,
          "internalType": "uint256",
          "name": "tokenId",
          "type": "uint256"
        },
        {
          "indexed": false,
          "internalType": "uint256",
          "name": "totalMinted",
          "type": "uint256"
        }
      ],
      "name": "NewEpicNFTMinted",
      "type": "event"
    },
    {
      "anonymous": false,
      "inputs": [
        {
          "indexed": true,
          "internalType": "address",
          "name": "from",
          "type": "address"
        },
        {
          "indexed": true,
          "internalType": "address",
          "name": "to",
          "type": "address"
        },
        {
          "indexed": true,
          "internalType": "uint256",
          "name": "tokenId",
          "type": "uint256"
        }
      ],
      "name": "Transfer",
      "type": "event"
    },
    {
      "inputs": [
        {
          "internalType": "address",
          "name": "to",
          "type": "address"
        },
        {
          "internalType": "uint256",
          "name": "tokenId",
          "type": "uint256"
        }
      ],
      "name": "approve",
      "outputs": [],
      "stateMutability": "nonpayable",
      "type": "function"
    },
    {
      "inputs": [
        {
          "internalType": "address",
          "name": "owner",
          "type": "address"
        }
      ],
      "name": "balanceOf",
      "outputs": [
        {
          "internalType": "uint256",
          "name": "",
          "type": "uint256"
        }
      ],
      "stateMutability": "view",
      "type": "function"
    },
    {
      "inputs": [
        {
          "internalType": "uint256",
          "name": "tokenId",
          "type": "uint256"
        }
      ],
      "name": "getApproved",
      "outputs": [
        {
          "internalType": "address",
          "name": "",
          "type": "address"
        }
      ],
      "stateMutability": "view",
      "type": "function"
    },
    {
      "inputs": [
        {
          "internalType": "address",
          "name": "owner",
          "type": "address"
        },
        {
          "internalType": "address",
          "name": "operator",
          "type": "address"
        }
      ],
      "name": "isApprovedForAll",
      "outputs": [
        {
          "internalType": "bool",
          "name": "",
          "type": "bool"
        }
      ],
      "stateMutability": "view",
      "type": "function"
    },
    {
      "inputs": [],
      "name": "makeAnEpicNFT",
      "outputs": [],
      "stateMutability": "nonpayable",
      "type": "function"
    },
    {
      "inputs": [],
      "name": "name",
      "outputs": [
        {
          "internalType": "string",
          "name": "",
          "type": "string"
        }
      ],
      "stateMutability": "view",
      "type": "function"
    },
    {
      "inputs": [
        {
          "internalType": "uint256",
          "name": "tokenId",
          "type": "uint256"
        }
      ],
      "name": "ownerOf",
      "outputs": [
        {
          "internalType": "address",
          "name": "",
          "type": "address"
        }
      ],
      "stateMutability": "view",
      "type": "function"
    },
    {
      "inputs": [
        {
          "internalType": "address",
          "name": "from",
          "type": "address"
        },
        {
          "internalType": "address",
          "name": "to",
          "type": "address"
        },
        {
          "internalType": "uint256",
          "name": "tokenId",
          "type": "uint256"
        }
      ],
      "name": "safeTransferFrom",
      "outputs": [],
      "stateMutability": "nonpayable",
      "type": "function"
    },
    {
      "inputs": [
        {
          "internalType": "address",
          "name": "from",
          "type": "address"
        },
        {
          "internalType": "address",
          "name": "to",
          "type": "address"
        },
        {
          "internalType": "uint256",
          "name": "tokenId",
          "type": "uint256"
        },
        {
          "internalType": "bytes",
          "name": "_data",
          "type": "bytes"
        }
      ],
      "name": "safeTransferFrom",
      "outputs": [],
      "stateMutability": "nonpayable",
      "type": "function"
    },
    {
      "inputs": [
        {
          "internalType": "address",
          "name": "operator",
          "type": "address"
        },
        {
          "internalType": "bool",
          "name": "approved",
          "type": "bool"
        }
      ],
      "name": "setApprovalForAll",
      "outputs": [],
      "stateMutability": "nonpayable",
      "type": "function"
    },
    {
      "inputs": [
        {
          "internalType": "bytes4",
          "name": "interfaceId",
          "type": "bytes4"
        }
      ],
      "name": "supportsInterface",
      "outputs": [
        {
          "internalType": "bool",
          "name": "",
          "type": "bool"
        }
      ],
      "stateMutability": "view",
      "type": "function"
    },
    {
      "inputs": [],
      "name": "symbol",
      "outputs": [
        {
          "internalType": "string",
          "name": "",
          "type": "string"
        }
      ],
      "stateMutability": "view",
      "type": "function"
    },
    {
      "inputs": [
        {
          "internalType": "uint256",
          "name": "tokenId",
          "type": "uint256"
        }
      ],
      "name": "tokenURI",
      "outputs": [
        {
          "internalType": "string",
          "name": "",
          "type": "string"
        }
      ],
      "stateMutability": "view",
      "type": "function"
    },
    {
      "inputs": [],
      "name": "totalMinted",
      "outputs": [
        {
          "internalType": "uint256",
          "name": "",
          "type": "uint256"
        }
      ],
      "stateMutability": "view",
      "type": "function"
    },
    {
      "inputs": [],
      "name": "totalSupply",
      "outputs": [
        {
          "internalType": "uint256",
          "name": "",
          "type": "uint256"
        }
      ],
      "stateMutability": "view",
      "type": "function"
    },
    {
      "inputs": [
        {
          "internalType": "address",
          "name": "from",
          "type": "address"
        },
        {
          "internalType": "address",
          "name": "to",
          "type": "address"
        },
        {
          "internalType": "uint256",
          "name": "tokenId",
          "type": "uint256"
        }
      ],
      "name": "transferFrom",
      "outputs": [],
      "stateMutability": "nonpayable",
      "type": "function"
    }
  ],
  "bytecode": "0x60806040526000600855600a6009553480156200001b57600080fd5b506040518060400160405280600981526020017f5371756172654e465400000000000000000000000000000000000000000000008152506040518060400160405280600681526020017f53515541524500000000000000000000000000000000000000000000000000008152508160009080519060200190620000a0929190620001d9565b508060019080519060200190620000b9929190620001d9565b505050620001076040518060400160405280601e81526020017f54686973206973206d79204e465420636f6e74726163742e20576f61682100008152506200010d60201b62000d911760201c565b620003b6565b620001ad81604051602401620001249190620002ca565b6040516020818303038152906040527f41304fac000000000000000000000000000000000000000000000000000000007bffffffffffffffffffffffffffffffffffffffffffffffffffffffff19166020820180517bffffffffffffffffffffffffffffffffffffffffffffffffffffffff8381831617835250505050620001b060201b60201c565b50565b60008151905060006a636f6e736f6c652e6c6f679050602083016000808483855afa5050505050565b828054620001e79062000340565b90600052602060002090601f0160209004810192826200020b576000855562000257565b82601f106200022657805160ff191683800117855562000257565b8280016001018555821562000257579182015b828111156200025657825182559160200191906001019062000239565b5b5090506200026691906200026a565b5090565b5b80821115620002855760008160009055506001016200026b565b5090565b60006200029682620002ee565b620002a28185620002f9565b9350620002b48185602086016200030a565b620002bf81620003a5565b840191505092915050565b60006020820190508181036000830152620002e6818462000289565b905092915050565b600081519050919050565b600082825260208201905092915050565b60005b838110156200032a5780820151818401526020810190506200030d565b838111156200033a576000848401525b50505050565b600060028204905060018216806200035957607f821691505b6020821081141562000370576200036f62000376565b5b50919050565b7f4e487b7100000000000000000000000000000000000000000000000000000000600052602260045260246000fd5b6000601f19601f8301169050919050565b612c8d80620003c66000396000f3fe608060405234801561001057600080fd5b50600436106101005760003560e01c806370a0823111610097578063b88d4fde11610066578063b88d4fde146102ad578063c87b56dd146102c9578063de9d132f146102f9578063e985e9c51461030357610100565b806370a082311461022557806395d89b4114610255578063a22cb46514610273578063a2309ff81461028f57610100565b806318160ddd116100d357806318160ddd1461019f57806323b872dd146101bd57806342842e0e146101d95780636352211e146101f557610100565b806301ffc9a71461010557806306fdde0314610135578063081812fc14610153578063095ea7b314610183575b600080fd5b61011f600480360381019061011a9190611d94565b610333565b60405161012c91906125f5565b60405180910390f35b61013d610415565b60405161014a9190612610565b60405180910390f35b61016d60048036038101906101689190611de6565b6104a7565b60405161017a9190612557565b60405180910390f35b61019d60048036038101906101989190611d58565b61052c565b005b6101a7610644565b6040516101b49190612852565b60405180910390f35b6101d760048036038101906101d29190611c52565b61064a565b005b6101f360048036038101906101ee9190611c52565b6106aa565b005b61020f600480360381019061020a9190611de6565b6106ca565b60405161021c9190612557565b60405180910390f35b61023f600480360381019061023a9190611bed565b61077c565b60405161024c9190612852565b60405180910390f35b61025d610834565b60405161026a9190612610565b60405180910390f35b61028d60048036038101906102889190611d1c565b6108c6565b005b610297610a47565b6040516102a49190612852565b60405180910390f35b6102c760048036038101906102c29190611ca1565b610a4d565b005b6102e360048036038101906102de9190611de6565b610aaf565b6040516102f09190612610565b60405180910390f35b610301610c01565b005b61031d60048036038101906103189190611c16565b610cfd565b60405161032a91906125f5565b60405180910390f35b60007f80ac58cd000000000000000000000000000000000000000000000000000000007bffffffffffffffffffffffffffffffffffffffffffffffffffffffff1916827bffffffffffffffffffffffffffffffffffffffffffffffffffffffff191614806103fe57507f5b5e139f000000000000000000000000000000000000000000000000000000007bffffffffffffffffffffffffffffffffffffffffffffffffffffffff1916827bffffffffffffffffffffffffffffffffffffffffffffffffffffffff1916145b8061040e575061040d82610e2a565b5b9050919050565b60606000805461042490612a82565b80601f016020809104026020016040519081016040528092919081815260200182805461045090612a82565b801561049d5780601f106104725761010080835404028352916020019161049d565b820191906000526020600020905b81548152906001019060200180831161048057829003601f168201915b5050505050905090565b60006104b282610e94565b6104f1576040517f08c379a00000000000000000000000000000000000000000000000000000000081526004016104e8906127b2565b60405180910390fd5b6004600083815260200190815260200160002060009054906101000a900473ffffffffffffffffffffffffffffffffffffffff169050919050565b6000610537826106ca565b90508073ffffffffffffffffffffffffffffffffffffffff168373ffffffffffffffffffffffffffffffffffffffff1614156105a8576040517f08c379a000000000000000000000000000000000000000000000000000000000815260040161059f90612812565b60405180910390fd5b8073ffffffffffffffffffffffffffffffffffffffff166105c7610f00565b73ffffffffffffffffffffffffffffffffffffffff1614806105f657506105f5816105f0610f00565b610cfd565b5b610635576040517f08c379a000000000000000000000000000000000000000000000000000000000815260040161062c906126f2565b60405180910390fd5b61063f8383610f08565b505050565b60095481565b61065b610655610f00565b82610fc1565b61069a576040517f08c379a000000000000000000000000000000000000000000000000000000000815260040161069190612832565b60405180910390fd5b6106a583838361109f565b505050565b6106c583838360405180602001604052806000815250610a4d565b505050565b6000806002600084815260200190815260200160002060009054906101000a900473ffffffffffffffffffffffffffffffffffffffff169050600073ffffffffffffffffffffffffffffffffffffffff168173ffffffffffffffffffffffffffffffffffffffff161415610773576040517f08c379a000000000000000000000000000000000000000000000000000000000815260040161076a90612732565b60405180910390fd5b80915050919050565b60008073ffffffffffffffffffffffffffffffffffffffff168273ffffffffffffffffffffffffffffffffffffffff1614156107ed576040517f08c379a00000000000000000000000000000000000000000000000000000000081526004016107e490612712565b60405180910390fd5b600360008373ffffffffffffffffffffffffffffffffffffffff1673ffffffffffffffffffffffffffffffffffffffff168152602001908152602001600020549050919050565b60606001805461084390612a82565b80601f016020809104026020016040519081016040528092919081815260200182805461086f90612a82565b80156108bc5780601f10610891576101008083540402835291602001916108bc565b820191906000526020600020905b81548152906001019060200180831161089f57829003601f168201915b5050505050905090565b6108ce610f00565b73ffffffffffffffffffffffffffffffffffffffff168273ffffffffffffffffffffffffffffffffffffffff16141561093c576040517f08c379a000000000000000000000000000000000000000000000000000000000815260040161093390612692565b60405180910390fd5b8060056000610949610f00565b73ffffffffffffffffffffffffffffffffffffffff1673ffffffffffffffffffffffffffffffffffffffff16815260200190815260200160002060008473ffffffffffffffffffffffffffffffffffffffff1673ffffffffffffffffffffffffffffffffffffffff16815260200190815260200160002060006101000a81548160ff0219169083151502179055508173ffffffffffffffffffffffffffffffffffffffff166109f6610f00565b73ffffffffffffffffffffffffffffffffffffffff167f17307eab39ab6107e8899845ad3d59bd9653f200f220920489ca2b5937696c3183604051610a3b91906125f5565b60405180910390a35050565b60085481565b610a5e610a58610f00565b83610fc1565b610a9d576040517f08c379a0000000000000000000000000000000000000000000000000000000008152600401610a9490612832565b60405180910390fd5b610aa9848484846112fb565b50505050565b6060610aba82610e94565b610af9576040517f08c379a0000000000000000000000000000000000000000000000000000000008152600401610af090612792565b60405180910390fd5b6000600660008481526020019081526020016000208054610b1990612a82565b80601f0160208091040260200160405190810160405280929190818152602001828054610b4590612a82565b8015610b925780601f10610b6757610100808354040283529160200191610b92565b820191906000526020600020905b815481529060010190602001808311610b7557829003601f168201915b505050505090506000610ba3611357565b9050600081511415610bb9578192505050610bfc565b600082511115610bee578082604051602001610bd6929190612533565b60405160208183030381529060405292505050610bfc565b610bf78461136e565b925050505b919050565b6000610c0d6007611415565b905060095460085410610c55576040517f08c379a0000000000000000000000000000000000000000000000000000000008152600401610c4c906126b2565b60405180910390fd5b6001600854610c649190612911565b600881905550610c743382611423565b610cb3816040518060400160405280601d81526020017f68747470733a2f2f6a736f6e6b65657065722e636f6d2f622f4547524f000000815250611441565b610cbd60076114b5565b7f9e9e101732de0887d722bd72c01c5439edc857c9c2c763953d67e66de12441d33382600854604051610cf2939291906125be565b60405180910390a150565b6000600560008473ffffffffffffffffffffffffffffffffffffffff1673ffffffffffffffffffffffffffffffffffffffff16815260200190815260200160002060008373ffffffffffffffffffffffffffffffffffffffff1673ffffffffffffffffffffffffffffffffffffffff16815260200190815260200160002060009054906101000a900460ff16905092915050565b610e2781604051602401610da59190612610565b6040516020818303038152906040527f41304fac000000000000000000000000000000000000000000000000000000007bffffffffffffffffffffffffffffffffffffffffffffffffffffffff19166020820180517bffffffffffffffffffffffffffffffffffffffffffffffffffffffff83818316178352505050506114cb565b50565b60007f01ffc9a7000000000000000000000000000000000000000000000000000000007bffffffffffffffffffffffffffffffffffffffffffffffffffffffff1916827bffffffffffffffffffffffffffffffffffffffffffffffffffffffff1916149050919050565b60008073ffffffffffffffffffffffffffffffffffffffff166002600084815260200190815260200160002060009054906101000a900473ffffffffffffffffffffffffffffffffffffffff1673ffffffffffffffffffffffffffffffffffffffff1614159050919050565b600033905090565b816004600083815260200190815260200160002060006101000a81548173ffffffffffffffffffffffffffffffffffffffff021916908373ffffffffffffffffffffffffffffffffffffffff160217905550808273ffffffffffffffffffffffffffffffffffffffff16610f7b836106ca565b73ffffffffffffffffffffffffffffffffffffffff167f8c5be1e5ebec7d5bd14f71427d1e84f3dd0314c0f7b2291e5b200ac8c7c3b92560405160405180910390a45050565b6000610fcc82610e94565b61100b576040517f08c379a0000000000000000000000000000000000000000000000000000000008152600401611002906126d2565b60405180910390fd5b6000611016836106ca565b90508073ffffffffffffffffffffffffffffffffffffffff168473ffffffffffffffffffffffffffffffffffffffff16148061108557508373ffffffffffffffffffffffffffffffffffffffff1661106d846104a7565b73ffffffffffffffffffffffffffffffffffffffff16145b8061109657506110958185610cfd565b5b91505092915050565b8273ffffffffffffffffffffffffffffffffffffffff166110bf826106ca565b73ffffffffffffffffffffffffffffffffffffffff1614611115576040517f08c379a000000000000000000000000000000000000000000000000000000000815260040161110c906127d2565b60405180910390fd5b600073ffffffffffffffffffffffffffffffffffffffff168273ffffffffffffffffffffffffffffffffffffffff161415611185576040517f08c379a000000000000000000000000000000000000000000000000000000000815260040161117c90612672565b60405180910390fd5b6111908383836114f4565b61119b600082610f08565b6001600360008573ffffffffffffffffffffffffffffffffffffffff1673ffffffffffffffffffffffffffffffffffffffff16815260200190815260200160002060008282546111eb9190612998565b925050819055506001600360008473ffffffffffffffffffffffffffffffffffffffff1673ffffffffffffffffffffffffffffffffffffffff16815260200190815260200160002060008282546112429190612911565b92505081905550816002600083815260200190815260200160002060006101000a81548173ffffffffffffffffffffffffffffffffffffffff021916908373ffffffffffffffffffffffffffffffffffffffff160217905550808273ffffffffffffffffffffffffffffffffffffffff168473ffffffffffffffffffffffffffffffffffffffff167fddf252ad1be2c89b69c2b068fc378daa952ba7f163c4a11628f55a4df523b3ef60405160405180910390a4505050565b61130684848461109f565b611312848484846114f9565b611351576040517f08c379a000000000000000000000000000000000000000000000000000000000815260040161134890612632565b60405180910390fd5b50505050565b606060405180602001604052806000815250905090565b606061137982610e94565b6113b8576040517f08c379a00000000000000000000000000000000000000000000000000000000081526004016113af906127f2565b60405180910390fd5b60006113c2611357565b905060008151116113e2576040518060200160405280600081525061140d565b806113ec84611690565b6040516020016113fd929190612533565b6040516020818303038152906040525b915050919050565b600081600001549050919050565b61143d82826040518060200160405280600081525061183d565b5050565b61144a82610e94565b611489576040517f08c379a000000000000000000000000000000000000000000000000000000000815260040161148090612752565b60405180910390fd5b806006600084815260200190815260200160002090805190602001906114b0929190611a79565b505050565b6001816000016000828254019250508190555050565b60008151905060006a636f6e736f6c652e6c6f679050602083016000808483855afa5050505050565b505050565b600061151a8473ffffffffffffffffffffffffffffffffffffffff16611898565b15611683578373ffffffffffffffffffffffffffffffffffffffff1663150b7a02611543610f00565b8786866040518563ffffffff1660e01b81526004016115659493929190612572565b602060405180830381600087803b15801561157f57600080fd5b505af19250505080156115b057506040513d601f19601f820116820180604052508101906115ad9190611dbd565b60015b611633573d80600081146115e0576040519150601f19603f3d011682016040523d82523d6000602084013e6115e5565b606091505b5060008151141561162b576040517f08c379a000000000000000000000000000000000000000000000000000000000815260040161162290612632565b60405180910390fd5b805181602001fd5b63150b7a0260e01b7bffffffffffffffffffffffffffffffffffffffffffffffffffffffff1916817bffffffffffffffffffffffffffffffffffffffffffffffffffffffff191614915050611688565b600190505b949350505050565b606060008214156116d8576040518060400160405280600181526020017f30000000000000000000000000000000000000000000000000000000000000008152509050611838565b600082905060005b6000821461170a5780806116f390612ab4565b915050600a826117039190612967565b91506116e0565b60008167ffffffffffffffff81111561174c577f4e487b7100000000000000000000000000000000000000000000000000000000600052604160045260246000fd5b6040519080825280601f01601f19166020018201604052801561177e5781602001600182028036833780820191505090505b5090505b60008514611831576001826117979190612998565b9150600a856117a69190612afd565b60306117b29190612911565b60f81b8183815181106117ee577f4e487b7100000000000000000000000000000000000000000000000000000000600052603260045260246000fd5b60200101907effffffffffffffffffffffffffffffffffffffffffffffffffffffffffffff1916908160001a905350600a8561182a9190612967565b9450611782565b8093505050505b919050565b61184783836118ab565b61185460008484846114f9565b611893576040517f08c379a000000000000000000000000000000000000000000000000000000000815260040161188a90612632565b60405180910390fd5b505050565b600080823b905060008111915050919050565b600073ffffffffffffffffffffffffffffffffffffffff168273ffffffffffffffffffffffffffffffffffffffff16141561191b576040517f08c379a000000000000000000000000000000000000000000000000000000000815260040161191290612772565b60405180910390fd5b61192481610e94565b15611964576040517f08c379a000000000000000000000000000000000000000000000000000000000815260040161195b90612652565b60405180910390fd5b611970600083836114f4565b6001600360008473ffffffffffffffffffffffffffffffffffffffff1673ffffffffffffffffffffffffffffffffffffffff16815260200190815260200160002060008282546119c09190612911565b92505081905550816002600083815260200190815260200160002060006101000a81548173ffffffffffffffffffffffffffffffffffffffff021916908373ffffffffffffffffffffffffffffffffffffffff160217905550808273ffffffffffffffffffffffffffffffffffffffff16600073ffffffffffffffffffffffffffffffffffffffff167fddf252ad1be2c89b69c2b068fc378daa952ba7f163c4a11628f55a4df523b3ef60405160405180910390a45050565b828054611a8590612a82565b90600052602060002090601f016020900481019282611aa75760008555611aee565b82601f10611ac057805160ff1916838001178555611aee565b82800160010185558215611aee579182015b82811115611aed578251825591602001919060010190611ad2565b5b509050611afb9190611aff565b5090565b5b80821115611b18576000816000905550600101611b00565b5090565b6000611b2f611b2a8461289e565b61286d565b905082815260208101848484011115611b4757600080fd5b611b52848285612a40565b509392505050565b600081359050611b6981612bfb565b92915050565b600081359050611b7e81612c12565b92915050565b600081359050611b9381612c29565b92915050565b600081519050611ba881612c29565b92915050565b600082601f830112611bbf57600080fd5b8135611bcf848260208601611b1c565b91505092915050565b600081359050611be781612c40565b92915050565b600060208284031215611bff57600080fd5b6000611c0d84828501611b5a565b91505092915050565b60008060408385031215611c2957600080fd5b6000611c3785828601611b5a565b9250506020611c4885828601611b5a565b9150509250929050565b600080600060608486031215611c6757600080fd5b6000611c7586828701611b5a565b9350506020611c8686828701611b5a565b9250506040611c9786828701611bd8565b9150509250925092565b60008060008060808587031215611cb757600080fd5b6000611cc587828801611b5a565b9450506020611cd687828801611b5a565b9350506040611ce787828801611bd8565b925050606085013567ffffffffffffffff811115611d0457600080fd5b611d1087828801611bae565b91505092959194509250565b60008060408385031215611d2f57600080fd5b6000611d3d85828601611b5a565b9250506020611d4e85828601611b6f565b9150509250929050565b60008060408385031215611d6b57600080fd5b6000611d7985828601611b5a565b9250506020611d8a85828601611bd8565b9150509250929050565b600060208284031215611da657600080fd5b6000611db484828501611b84565b91505092915050565b600060208284031215611dcf57600080fd5b6000611ddd84828501611b99565b91505092915050565b600060208284031215611df857600080fd5b6000611e0684828501611bd8565b91505092915050565b611e18816129cc565b82525050565b611e27816129de565b82525050565b6000611e38826128ce565b611e4281856128e4565b9350611e52818560208601612a4f565b611e5b81612bea565b840191505092915050565b6000611e71826128d9565b611e7b81856128f5565b9350611e8b818560208601612a4f565b611e9481612bea565b840191505092915050565b6000611eaa826128d9565b611eb48185612906565b9350611ec4818560208601612a4f565b80840191505092915050565b6000611edd6032836128f5565b91507f4552433732313a207472616e7366657220746f206e6f6e20455243373231526560008301527f63656976657220696d706c656d656e74657200000000000000000000000000006020830152604082019050919050565b6000611f43601c836128f5565b91507f4552433732313a20746f6b656e20616c7265616479206d696e746564000000006000830152602082019050919050565b6000611f836024836128f5565b91507f4552433732313a207472616e7366657220746f20746865207a65726f2061646460008301527f72657373000000000000000000000000000000000000000000000000000000006020830152604082019050919050565b6000611fe96019836128f5565b91507f4552433732313a20617070726f766520746f2063616c6c6572000000000000006000830152602082019050919050565b60006120296029836128f5565b91507f54686520746f74616c206e756d626572206f66204e465473206861766520626560008301527f656e206d696e74656400000000000000000000000000000000000000000000006020830152604082019050919050565b600061208f602c836128f5565b91507f4552433732313a206f70657261746f7220717565727920666f72206e6f6e657860008301527f697374656e7420746f6b656e00000000000000000000000000000000000000006020830152604082019050919050565b60006120f56038836128f5565b91507f4552433732313a20617070726f76652063616c6c6572206973206e6f74206f7760008301527f6e6572206e6f7220617070726f76656420666f7220616c6c00000000000000006020830152604082019050919050565b600061215b602a836128f5565b91507f4552433732313a2062616c616e636520717565727920666f7220746865207a6560008301527f726f2061646472657373000000000000000000000000000000000000000000006020830152604082019050919050565b60006121c16029836128f5565b91507f4552433732313a206f776e657220717565727920666f72206e6f6e657869737460008301527f656e7420746f6b656e00000000000000000000000000000000000000000000006020830152604082019050919050565b6000612227602e836128f5565b91507f45524337323155524953746f726167653a2055524920736574206f66206e6f6e60008301527f6578697374656e7420746f6b656e0000000000000000000000000000000000006020830152604082019050919050565b600061228d6020836128f5565b91507f4552433732313a206d696e7420746f20746865207a65726f20616464726573736000830152602082019050919050565b60006122cd6031836128f5565b91507f45524337323155524953746f726167653a2055524920717565727920666f722060008301527f6e6f6e6578697374656e7420746f6b656e0000000000000000000000000000006020830152604082019050919050565b6000612333602c836128f5565b91507f4552433732313a20617070726f76656420717565727920666f72206e6f6e657860008301527f697374656e7420746f6b656e00000000000000000000000000000000000000006020830152604082019050919050565b60006123996029836128f5565b91507f4552433732313a207472616e73666572206f6620746f6b656e2074686174206960008301527f73206e6f74206f776e00000000000000000000000000000000000000000000006020830152604082019050919050565b60006123ff602f836128f5565b91507f4552433732314d657461646174613a2055524920717565727920666f72206e6f60008301527f6e6578697374656e7420746f6b656e00000000000000000000000000000000006020830152604082019050919050565b60006124656021836128f5565b91507f4552433732313a20617070726f76616c20746f2063757272656e74206f776e6560008301527f72000000000000000000000000000000000000000000000000000000000000006020830152604082019050919050565b60006124cb6031836128f5565b91507f4552433732313a207472616e736665722063616c6c6572206973206e6f74206f60008301527f776e6572206e6f7220617070726f7665640000000000000000000000000000006020830152604082019050919050565b61252d81612a36565b82525050565b600061253f8285611e9f565b915061254b8284611e9f565b91508190509392505050565b600060208201905061256c6000830184611e0f565b92915050565b60006080820190506125876000830187611e0f565b6125946020830186611e0f565b6125a16040830185612524565b81810360608301526125b38184611e2d565b905095945050505050565b60006060820190506125d36000830186611e0f565b6125e06020830185612524565b6125ed6040830184612524565b949350505050565b600060208201905061260a6000830184611e1e565b92915050565b6000602082019050818103600083015261262a8184611e66565b905092915050565b6000602082019050818103600083015261264b81611ed0565b9050919050565b6000602082019050818103600083015261266b81611f36565b9050919050565b6000602082019050818103600083015261268b81611f76565b9050919050565b600060208201905081810360008301526126ab81611fdc565b9050919050565b600060208201905081810360008301526126cb8161201c565b9050919050565b600060208201905081810360008301526126eb81612082565b9050919050565b6000602082019050818103600083015261270b816120e8565b9050919050565b6000602082019050818103600083015261272b8161214e565b9050919050565b6000602082019050818103600083015261274b816121b4565b9050919050565b6000602082019050818103600083015261276b8161221a565b9050919050565b6000602082019050818103600083015261278b81612280565b9050919050565b600060208201905081810360008301526127ab816122c0565b9050919050565b600060208201905081810360008301526127cb81612326565b9050919050565b600060208201905081810360008301526127eb8161238c565b9050919050565b6000602082019050818103600083015261280b816123f2565b9050919050565b6000602082019050818103600083015261282b81612458565b9050919050565b6000602082019050818103600083015261284b816124be565b9050919050565b60006020820190506128676000830184612524565b92915050565b6000604051905081810181811067ffffffffffffffff8211171561289457612893612bbb565b5b8060405250919050565b600067ffffffffffffffff8211156128b9576128b8612bbb565b5b601f19601f8301169050602081019050919050565b600081519050919050565b600081519050919050565b600082825260208201905092915050565b600082825260208201905092915050565b600081905092915050565b600061291c82612a36565b915061292783612a36565b9250827fffffffffffffffffffffffffffffffffffffffffffffffffffffffffffffffff0382111561295c5761295b612b2e565b5b828201905092915050565b600061297282612a36565b915061297d83612a36565b92508261298d5761298c612b5d565b5b828204905092915050565b60006129a382612a36565b91506129ae83612a36565b9250828210156129c1576129c0612b2e565b5b828203905092915050565b60006129d782612a16565b9050919050565b60008115159050919050565b60007fffffffff0000000000000000000000000000000000000000000000000000000082169050919050565b600073ffffffffffffffffffffffffffffffffffffffff82169050919050565b6000819050919050565b82818337600083830152505050565b60005b83811015612a6d578082015181840152602081019050612a52565b83811115612a7c576000848401525b50505050565b60006002820490506001821680612a9a57607f821691505b60208210811415612aae57612aad612b8c565b5b50919050565b6000612abf82612a36565b91507fffffffffffffffffffffffffffffffffffffffffffffffffffffffffffffffff821415612af257612af1612b2e565b5b600182019050919050565b6000612b0882612a36565b9150612b1383612a36565b925082612b2357612b22612b5d565b5b828206905092915050565b7f4e487b7100000000000000000000000000000000000000000000000000000000600052601160045260246000fd5b7f4e487b7100000000000000000000000000000000000000000000000000000000600052601260045260246000fd5b7f4e487b7100000000000000000000000000000000000000000000000000000000600052602260045260246000fd5b7f4e487b7100000000000000000000000000000000000000000000000000000000600052604160045260246000fd5b6000601f19601f8301169050919050565b612c04816129cc565b8114612c0f57600080fd5b50565b612c1b816129de565b8114612c2657600080fd5b50565b612c32816129ea565b8114612c3d57600080fd5b50565b612c4981612a36565b8114612c5457600080fd5b5056fea26469706673582212200de4dfc6270329e24773a926f9999ba2344830b342bcf04f55f6823f58591fde64736f6c63430008000033",
  "linkReferences": {},
  "deployedLinkReferences": {}
}