{
  "_format": "hh-sol-artifact-1",
  "contractName": "NFT",
  "sourceName": "contracts/NFT.sol",
  "abi": [
    {
      "inputs": [
        {
          "internalType": "string",
          "name": "_name",
          "type": "string"
        },
        {
          "internalType": "string",
          "name": "_symbol",
          "type": "string"
        },
        {
          "internalType": "string",
          "name": "_initBaseURI",
          "type": "string"
        },
        {
          "internalType": "string",
          "name": "_initNotRevealedUri",
          "type": "string"
        }
      ],
      "stateMutability": "nonpayable",
      "type": "constructor"
    },
    {
      "anonymous": false,
      "inputs": [
        {
          "indexed": true,
          "internalType": "address",
          "name": "owner",
          "type": "address"
        },
        {
          "indexed": true,
          "internalType": "address",
          "name": "approved",
          "type": "address"
        },
        {
          "indexed": true,
          "internalType": "uint256",
          "name": "tokenId",
          "type": "uint256"
        }
      ],
      "name": "Approval",
      "type": "event"
    },
    {
      "anonymous": false,
      "inputs": [
        {
          "indexed": true,
          "internalType": "address",
          "name": "owner",
          "type": "address"
        },
        {
          "indexed": true,
          "internalType": "address",
          "name": "operator",
          "type": "address"
        },
        {
          "indexed": false,
          "internalType": "bool",
          "name": "approved",
          "type": "bool"
        }
      ],
      "name": "ApprovalForAll",
      "type": "event"
    },
    {
      "anonymous": false,
      "inputs": [
        {
          "indexed": true,
          "internalType": "address",
          "name": "previousOwner",
          "type": "address"
        },
        {
          "indexed": true,
          "internalType": "address",
          "name": "newOwner",
          "type": "address"
        }
      ],
      "name": "OwnershipTransferred",
      "type": "event"
    },
    {
      "anonymous": false,
      "inputs": [
        {
          "indexed": true,
          "internalType": "address",
          "name": "from",
          "type": "address"
        },
        {
          "indexed": true,
          "internalType": "address",
          "name": "to",
          "type": "address"
        },
        {
          "indexed": true,
          "internalType": "uint256",
          "name": "tokenId",
          "type": "uint256"
        }
      ],
      "name": "Transfer",
      "type": "event"
    },
    {
      "anonymous": false,
      "inputs": [
        {
          "indexed": false,
          "internalType": "address",
          "name": "sender",
          "type": "address"
        },
        {
          "indexed": false,
          "internalType": "uint256",
          "name": "tokenId",
          "type": "uint256"
        }
      ],
      "name": "minted",
      "type": "event"
    },
    {
      "inputs": [
        {
          "internalType": "address",
          "name": "to",
          "type": "address"
        },
        {
          "internalType": "uint256",
          "name": "tokenId",
          "type": "uint256"
        }
      ],
      "name": "approve",
      "outputs": [],
      "stateMutability": "nonpayable",
      "type": "function"
    },
    {
      "inputs": [
        {
          "internalType": "address",
          "name": "owner",
          "type": "address"
        }
      ],
      "name": "balanceOf",
      "outputs": [
        {
          "internalType": "uint256",
          "name": "",
          "type": "uint256"
        }
      ],
      "stateMutability": "view",
      "type": "function"
    },
    {
      "inputs": [],
      "name": "baseExtension",
      "outputs": [
        {
          "internalType": "string",
          "name": "",
          "type": "string"
        }
      ],
      "stateMutability": "view",
      "type": "function"
    },
    {
      "inputs": [],
      "name": "cost",
      "outputs": [
        {
          "internalType": "uint256",
          "name": "",
          "type": "uint256"
        }
      ],
      "stateMutability": "view",
      "type": "function"
    },
    {
      "inputs": [
        {
          "internalType": "uint256",
          "name": "tokenId",
          "type": "uint256"
        }
      ],
      "name": "getApproved",
      "outputs": [
        {
          "internalType": "address",
          "name": "",
          "type": "address"
        }
      ],
      "stateMutability": "view",
      "type": "function"
    },
    {
      "inputs": [
        {
          "internalType": "address",
          "name": "owner",
          "type": "address"
        },
        {
          "internalType": "address",
          "name": "operator",
          "type": "address"
        }
      ],
      "name": "isApprovedForAll",
      "outputs": [
        {
          "internalType": "bool",
          "name": "",
          "type": "bool"
        }
      ],
      "stateMutability": "view",
      "type": "function"
    },
    {
      "inputs": [],
      "name": "maxMintAmount",
      "outputs": [
        {
          "internalType": "uint256",
          "name": "",
          "type": "uint256"
        }
      ],
      "stateMutability": "view",
      "type": "function"
    },
    {
      "inputs": [],
      "name": "maxSupply",
      "outputs": [
        {
          "internalType": "uint256",
          "name": "",
          "type": "uint256"
        }
      ],
      "stateMutability": "view",
      "type": "function"
    },
    {
      "inputs": [
        {
          "internalType": "uint256",
          "name": "_mintAmount",
          "type": "uint256"
        }
      ],
      "name": "mint",
      "outputs": [],
      "stateMutability": "payable",
      "type": "function"
    },
    {
      "inputs": [],
      "name": "name",
      "outputs": [
        {
          "internalType": "string",
          "name": "",
          "type": "string"
        }
      ],
      "stateMutability": "view",
      "type": "function"
    },
    {
      "inputs": [],
      "name": "notRevealedUri",
      "outputs": [
        {
          "internalType": "string",
          "name": "",
          "type": "string"
        }
      ],
      "stateMutability": "view",
      "type": "function"
    },
    {
      "inputs": [],
      "name": "owner",
      "outputs": [
        {
          "internalType": "address",
          "name": "",
          "type": "address"
        }
      ],
      "stateMutability": "view",
      "type": "function"
    },
    {
      "inputs": [
        {
          "internalType": "uint256",
          "name": "tokenId",
          "type": "uint256"
        }
      ],
      "name": "ownerOf",
      "outputs": [
        {
          "internalType": "address",
          "name": "",
          "type": "address"
        }
      ],
      "stateMutability": "view",
      "type": "function"
    },
    {
      "inputs": [
        {
          "internalType": "bool",
          "name": "_state",
          "type": "bool"
        }
      ],
      "name": "pause",
      "outputs": [],
      "stateMutability": "nonpayable",
      "type": "function"
    },
    {
      "inputs": [],
      "name": "paused",
      "outputs": [
        {
          "internalType": "bool",
          "name": "",
          "type": "bool"
        }
      ],
      "stateMutability": "view",
      "type": "function"
    },
    {
      "inputs": [],
      "name": "renounceOwnership",
      "outputs": [],
      "stateMutability": "nonpayable",
      "type": "function"
    },
    {
      "inputs": [],
      "name": "reveal",
      "outputs": [],
      "stateMutability": "nonpayable",
      "type": "function"
    },
    {
      "inputs": [],
      "name": "revealed",
      "outputs": [
        {
          "internalType": "bool",
          "name": "",
          "type": "bool"
        }
      ],
      "stateMutability": "view",
      "type": "function"
    },
    {
      "inputs": [
        {
          "internalType": "address",
          "name": "from",
          "type": "address"
        },
        {
          "internalType": "address",
          "name": "to",
          "type": "address"
        },
        {
          "internalType": "uint256",
          "name": "tokenId",
          "type": "uint256"
        }
      ],
      "name": "safeTransferFrom",
      "outputs": [],
      "stateMutability": "nonpayable",
      "type": "function"
    },
    {
      "inputs": [
        {
          "internalType": "address",
          "name": "from",
          "type": "address"
        },
        {
          "internalType": "address",
          "name": "to",
          "type": "address"
        },
        {
          "internalType": "uint256",
          "name": "tokenId",
          "type": "uint256"
        },
        {
          "internalType": "bytes",
          "name": "_data",
          "type": "bytes"
        }
      ],
      "name": "safeTransferFrom",
      "outputs": [],
      "stateMutability": "nonpayable",
      "type": "function"
    },
    {
      "inputs": [
        {
          "internalType": "address",
          "name": "operator",
          "type": "address"
        },
        {
          "internalType": "bool",
          "name": "approved",
          "type": "bool"
        }
      ],
      "name": "setApprovalForAll",
      "outputs": [],
      "stateMutability": "nonpayable",
      "type": "function"
    },
    {
      "inputs": [
        {
          "internalType": "string",
          "name": "_newBaseExtension",
          "type": "string"
        }
      ],
      "name": "setBaseExtension",
      "outputs": [],
      "stateMutability": "nonpayable",
      "type": "function"
    },
    {
      "inputs": [
        {
          "internalType": "string",
          "name": "_newBaseURI",
          "type": "string"
        }
      ],
      "name": "setBaseURI",
      "outputs": [],
      "stateMutability": "nonpayable",
      "type": "function"
    },
    {
      "inputs": [
        {
          "internalType": "uint256",
          "name": "_newCost",
          "type": "uint256"
        }
      ],
      "name": "setCost",
      "outputs": [],
      "stateMutability": "nonpayable",
      "type": "function"
    },
    {
      "inputs": [
        {
          "internalType": "string",
          "name": "_notRevealedURI",
          "type": "string"
        }
      ],
      "name": "setNotRevealedURI",
      "outputs": [],
      "stateMutability": "nonpayable",
      "type": "function"
    },
    {
      "inputs": [
        {
          "internalType": "uint256",
          "name": "_newmaxMintAmount",
          "type": "uint256"
        }
      ],
      "name": "setmaxMintAmount",
      "outputs": [],
      "stateMutability": "nonpayable",
      "type": "function"
    },
    {
      "inputs": [
        {
          "internalType": "bytes4",
          "name": "interfaceId",
          "type": "bytes4"
        }
      ],
      "name": "supportsInterface",
      "outputs": [
        {
          "internalType": "bool",
          "name": "",
          "type": "bool"
        }
      ],
      "stateMutability": "view",
      "type": "function"
    },
    {
      "inputs": [],
      "name": "symbol",
      "outputs": [
        {
          "internalType": "string",
          "name": "",
          "type": "string"
        }
      ],
      "stateMutability": "view",
      "type": "function"
    },
    {
      "inputs": [
        {
          "internalType": "uint256",
          "name": "index",
          "type": "uint256"
        }
      ],
      "name": "tokenByIndex",
      "outputs": [
        {
          "internalType": "uint256",
          "name": "",
          "type": "uint256"
        }
      ],
      "stateMutability": "view",
      "type": "function"
    },
    {
      "inputs": [
        {
          "internalType": "address",
          "name": "owner",
          "type": "address"
        },
        {
          "internalType": "uint256",
          "name": "index",
          "type": "uint256"
        }
      ],
      "name": "tokenOfOwnerByIndex",
      "outputs": [
        {
          "internalType": "uint256",
          "name": "",
          "type": "uint256"
        }
      ],
      "stateMutability": "view",
      "type": "function"
    },
    {
      "inputs": [
        {
          "internalType": "uint256",
          "name": "tokenId",
          "type": "uint256"
        }
      ],
      "name": "tokenURI",
      "outputs": [
        {
          "internalType": "string",
          "name": "",
          "type": "string"
        }
      ],
      "stateMutability": "view",
      "type": "function"
    },
    {
      "inputs": [],
      "name": "totalSupply",
      "outputs": [
        {
          "internalType": "uint256",
          "name": "",
          "type": "uint256"
        }
      ],
      "stateMutability": "view",
      "type": "function"
    },
    {
      "inputs": [
        {
          "internalType": "address",
          "name": "from",
          "type": "address"
        },
        {
          "internalType": "address",
          "name": "to",
          "type": "address"
        },
        {
          "internalType": "uint256",
          "name": "tokenId",
          "type": "uint256"
        }
      ],
      "name": "transferFrom",
      "outputs": [],
      "stateMutability": "nonpayable",
      "type": "function"
    },
    {
      "inputs": [
        {
          "internalType": "address",
          "name": "newOwner",
          "type": "address"
        }
      ],
      "name": "transferOwnership",
      "outputs": [],
      "stateMutability": "nonpayable",
      "type": "function"
    },
    {
      "inputs": [
        {
          "internalType": "address",
          "name": "_owner",
          "type": "address"
        }
      ],
      "name": "walletOfOwner",
      "outputs": [
        {
          "internalType": "uint256[]",
          "name": "",
          "type": "uint256[]"
        }
      ],
      "stateMutability": "view",
      "type": "function"
    },
    {
      "inputs": [],
      "name": "withdraw",
      "outputs": [],
      "stateMutability": "payable",
      "type": "function"
    }
  ],
  "bytecode": "0x60806040526040518060400160405280600581526020017f2e6a736f6e000000000000000000000000000000000000000000000000000000815250600c908051906020019062000051929190620003a1565b5066b1a2bc2ec50000600d55612710600e556014600f556000601060006101000a81548160ff0219169083151502179055506001601060016101000a81548160ff021916908315150217905550348015620000ab57600080fd5b5060405162004e8f38038062004e8f8339818101604052810190620000d19190620004c3565b83838160009080519060200190620000eb929190620003a1565b50806001908051906020019062000104929190620003a1565b505050620001276200011b6200015360201b60201c565b6200015b60201b60201c565b62000138826200022160201b60201c565b6200014981620002cc60201b60201c565b5050505062000739565b600033905090565b6000600a60009054906101000a900473ffffffffffffffffffffffffffffffffffffffff16905081600a60006101000a81548173ffffffffffffffffffffffffffffffffffffffff021916908373ffffffffffffffffffffffffffffffffffffffff1602179055508173ffffffffffffffffffffffffffffffffffffffff168173ffffffffffffffffffffffffffffffffffffffff167f8be0079c531659141344cd1fd0a4f28419497f9722a3daafe3b4186f6b6457e060405160405180910390a35050565b620002316200015360201b60201c565b73ffffffffffffffffffffffffffffffffffffffff16620002576200037760201b60201c565b73ffffffffffffffffffffffffffffffffffffffff1614620002b0576040517f08c379a0000000000000000000000000000000000000000000000000000000008152600401620002a790620005d5565b60405180910390fd5b80600b9080519060200190620002c8929190620003a1565b5050565b620002dc6200015360201b60201c565b73ffffffffffffffffffffffffffffffffffffffff16620003026200037760201b60201c565b73ffffffffffffffffffffffffffffffffffffffff16146200035b576040517f08c379a00000000000000000000000000000000000000000000000000000000081526004016200035290620005d5565b60405180910390fd5b806011908051906020019062000373929190620003a1565b5050565b6000600a60009054906101000a900473ffffffffffffffffffffffffffffffffffffffff16905090565b828054620003af90620006a5565b90600052602060002090601f016020900481019282620003d357600085556200041f565b82601f10620003ee57805160ff19168380011785556200041f565b828001600101855582156200041f579182015b828111156200041e57825182559160200191906001019062000401565b5b5090506200042e919062000432565b5090565b5b808211156200044d57600081600090555060010162000433565b5090565b60006200046862000462846200062b565b620005f7565b9050828152602081018484840111156200048157600080fd5b6200048e8482856200066f565b509392505050565b600082601f830112620004a857600080fd5b8151620004ba84826020860162000451565b91505092915050565b60008060008060808587031215620004da57600080fd5b600085015167ffffffffffffffff811115620004f557600080fd5b620005038782880162000496565b945050602085015167ffffffffffffffff8111156200052157600080fd5b6200052f8782880162000496565b935050604085015167ffffffffffffffff8111156200054d57600080fd5b6200055b8782880162000496565b925050606085015167ffffffffffffffff8111156200057957600080fd5b620005878782880162000496565b91505092959194509250565b6000620005a26020836200065e565b91507f4f776e61626c653a2063616c6c6572206973206e6f7420746865206f776e65726000830152602082019050919050565b60006020820190508181036000830152620005f08162000593565b9050919050565b6000604051905081810181811067ffffffffffffffff821117156200062157620006206200070a565b5b8060405250919050565b600067ffffffffffffffff8211156200064957620006486200070a565b5b601f19601f8301169050602081019050919050565b600082825260208201905092915050565b60005b838110156200068f57808201518184015260208101905062000672565b838111156200069f576000848401525b50505050565b60006002820490506001821680620006be57607f821691505b60208210811415620006d557620006d4620006db565b5b50919050565b7f4e487b7100000000000000000000000000000000000000000000000000000000600052602260045260246000fd5b7f4e487b7100000000000000000000000000000000000000000000000000000000600052604160045260246000fd5b61474680620007496000396000f3fe60806040526004361061020f5760003560e01c80635c975abb11610118578063a475b5dd116100a0578063d5abeb011161006f578063d5abeb011461076f578063da3ef23f1461079a578063e985e9c5146107c3578063f2c4ce1e14610800578063f2fde38b146108295761020f565b8063a475b5dd146106c7578063b88d4fde146106de578063c668286214610707578063c87b56dd146107325761020f565b80637f00c7a6116100e75780637f00c7a6146106035780638da5cb5b1461062c57806395d89b4114610657578063a0712d6814610682578063a22cb4651461069e5761020f565b80635c975abb146105475780636352211e1461057257806370a08231146105af578063715018a6146105ec5761020f565b806323b872dd1161019b578063438b63001161016a578063438b63001461045057806344a0d68a1461048d5780634f6ccce7146104b657806351830227146104f357806355f804b31461051e5761020f565b806323b872dd146103b75780632f745c59146103e05780633ccfd60b1461041d57806342842e0e146104275761020f565b8063081c8c44116101e2578063081c8c44146102e2578063095ea7b31461030d57806313faede61461033657806318160ddd14610361578063239c70ae1461038c5761020f565b806301ffc9a71461021457806302329a291461025157806306fdde031461027a578063081812fc146102a5575b600080fd5b34801561022057600080fd5b5061023b600480360381019061023691906132fd565b610852565b6040516102489190613f0b565b60405180910390f35b34801561025d57600080fd5b50610278600480360381019061027391906132d4565b6108cc565b005b34801561028657600080fd5b5061028f610965565b60405161029c9190613f26565b60405180910390f35b3480156102b157600080fd5b506102cc60048036038101906102c79190613390565b6109f7565b6040516102d99190613e59565b60405180910390f35b3480156102ee57600080fd5b506102f7610a7c565b6040516103049190613f26565b60405180910390f35b34801561031957600080fd5b50610334600480360381019061032f9190613298565b610b0a565b005b34801561034257600080fd5b5061034b610c22565b6040516103589190614228565b60405180910390f35b34801561036d57600080fd5b50610376610c28565b6040516103839190614228565b60405180910390f35b34801561039857600080fd5b506103a1610c35565b6040516103ae9190614228565b60405180910390f35b3480156103c357600080fd5b506103de60048036038101906103d99190613192565b610c3b565b005b3480156103ec57600080fd5b5061040760048036038101906104029190613298565b610c9b565b6040516104149190614228565b60405180910390f35b610425610d40565b005b34801561043357600080fd5b5061044e60048036038101906104499190613192565b610e35565b005b34801561045c57600080fd5b506104776004803603810190610472919061312d565b610e55565b6040516104849190613ee9565b60405180910390f35b34801561049957600080fd5b506104b460048036038101906104af9190613390565b610f4f565b005b3480156104c257600080fd5b506104dd60048036038101906104d89190613390565b610fd5565b6040516104ea9190614228565b60405180910390f35b3480156104ff57600080fd5b5061050861106c565b6040516105159190613f0b565b60405180910390f35b34801561052a57600080fd5b506105456004803603810190610540919061334f565b61107f565b005b34801561055357600080fd5b5061055c611115565b6040516105699190613f0b565b60405180910390f35b34801561057e57600080fd5b5061059960048036038101906105949190613390565b611128565b6040516105a69190613e59565b60405180910390f35b3480156105bb57600080fd5b506105d660048036038101906105d1919061312d565b6111da565b6040516105e39190614228565b60405180910390f35b3480156105f857600080fd5b50610601611292565b005b34801561060f57600080fd5b5061062a60048036038101906106259190613390565b61131a565b005b34801561063857600080fd5b506106416113a0565b60405161064e9190613e59565b60405180910390f35b34801561066357600080fd5b5061066c6113ca565b6040516106799190613f26565b60405180910390f35b61069c60048036038101906106979190613390565b61145c565b005b3480156106aa57600080fd5b506106c560048036038101906106c0919061325c565b61169a565b005b3480156106d357600080fd5b506106dc61181b565b005b3480156106ea57600080fd5b50610705600480360381019061070091906131e1565b6118b4565b005b34801561071357600080fd5b5061071c611916565b6040516107299190613f26565b60405180910390f35b34801561073e57600080fd5b5061075960048036038101906107549190613390565b6119a4565b6040516107669190613f26565b60405180910390f35b34801561077b57600080fd5b50610784611afd565b6040516107919190614228565b60405180910390f35b3480156107a657600080fd5b506107c160048036038101906107bc919061334f565b611b03565b005b3480156107cf57600080fd5b506107ea60048036038101906107e59190613156565b611b99565b6040516107f79190613f0b565b60405180910390f35b34801561080c57600080fd5b506108276004803603810190610822919061334f565b611c2d565b005b34801561083557600080fd5b50610850600480360381019061084b919061312d565b611cc3565b005b60007f780e9d63000000000000000000000000000000000000000000000000000000007bffffffffffffffffffffffffffffffffffffffffffffffffffffffff1916827bffffffffffffffffffffffffffffffffffffffffffffffffffffffff191614806108c557506108c482611dbb565b5b9050919050565b6108d4611e9d565b73ffffffffffffffffffffffffffffffffffffffff166108f26113a0565b73ffffffffffffffffffffffffffffffffffffffff1614610948576040517f08c379a000000000000000000000000000000000000000000000000000000000815260040161093f90614128565b60405180910390fd5b80601060006101000a81548160ff02191690831515021790555050565b6060600080546109749061453b565b80601f01602080910402602001604051908101604052809291908181526020018280546109a09061453b565b80156109ed5780601f106109c2576101008083540402835291602001916109ed565b820191906000526020600020905b8154815290600101906020018083116109d057829003601f168201915b5050505050905090565b6000610a0282611ea5565b610a41576040517f08c379a0000000000000000000000000000000000000000000000000000000008152600401610a3890614108565b60405180910390fd5b6004600083815260200190815260200160002060009054906101000a900473ffffffffffffffffffffffffffffffffffffffff169050919050565b60118054610a899061453b565b80601f0160208091040260200160405190810160405280929190818152602001828054610ab59061453b565b8015610b025780601f10610ad757610100808354040283529160200191610b02565b820191906000526020600020905b815481529060010190602001808311610ae557829003601f168201915b505050505081565b6000610b1582611128565b90508073ffffffffffffffffffffffffffffffffffffffff168373ffffffffffffffffffffffffffffffffffffffff161415610b86576040517f08c379a0000000000000000000000000000000000000000000000000000000008152600401610b7d90614188565b60405180910390fd5b8073ffffffffffffffffffffffffffffffffffffffff16610ba5611e9d565b73ffffffffffffffffffffffffffffffffffffffff161480610bd45750610bd381610bce611e9d565b611b99565b5b610c13576040517f08c379a0000000000000000000000000000000000000000000000000000000008152600401610c0a90614068565b60405180910390fd5b610c1d8383611f11565b505050565b600d5481565b6000600880549050905090565b600f5481565b610c4c610c46611e9d565b82611fca565b610c8b576040517f08c379a0000000000000000000000000000000000000000000000000000000008152600401610c82906141a8565b60405180910390fd5b610c968383836120a8565b505050565b6000610ca6836111da565b8210610ce7576040517f08c379a0000000000000000000000000000000000000000000000000000000008152600401610cde90613f48565b60405180910390fd5b600660008473ffffffffffffffffffffffffffffffffffffffff1673ffffffffffffffffffffffffffffffffffffffff168152602001908152602001600020600083815260200190815260200160002054905092915050565b610d48611e9d565b73ffffffffffffffffffffffffffffffffffffffff16610d666113a0565b73ffffffffffffffffffffffffffffffffffffffff1614610dbc576040517f08c379a0000000000000000000000000000000000000000000000000000000008152600401610db390614128565b60405180910390fd5b60003373ffffffffffffffffffffffffffffffffffffffff1647604051610de290613e44565b60006040518083038185875af1925050503d8060008114610e1f576040519150601f19603f3d011682016040523d82523d6000602084013e610e24565b606091505b5050905080610e3257600080fd5b50565b610e50838383604051806020016040528060008152506118b4565b505050565b60606000610e62836111da565b905060008167ffffffffffffffff811115610ea6577f4e487b7100000000000000000000000000000000000000000000000000000000600052604160045260246000fd5b604051908082528060200260200182016040528015610ed45781602001602082028036833780820191505090505b50905060005b82811015610f4457610eec8582610c9b565b828281518110610f25577f4e487b7100000000000000000000000000000000000000000000000000000000600052603260045260246000fd5b6020026020010181815250508080610f3c9061456d565b915050610eda565b508092505050919050565b610f57611e9d565b73ffffffffffffffffffffffffffffffffffffffff16610f756113a0565b73ffffffffffffffffffffffffffffffffffffffff1614610fcb576040517f08c379a0000000000000000000000000000000000000000000000000000000008152600401610fc290614128565b60405180910390fd5b80600d8190555050565b6000610fdf610c28565b8210611020576040517f08c379a0000000000000000000000000000000000000000000000000000000008152600401611017906141e8565b60405180910390fd5b6008828154811061105a577f4e487b7100000000000000000000000000000000000000000000000000000000600052603260045260246000fd5b90600052602060002001549050919050565b601060019054906101000a900460ff1681565b611087611e9d565b73ffffffffffffffffffffffffffffffffffffffff166110a56113a0565b73ffffffffffffffffffffffffffffffffffffffff16146110fb576040517f08c379a00000000000000000000000000000000000000000000000000000000081526004016110f290614128565b60405180910390fd5b80600b9080519060200190611111929190612f51565b5050565b601060009054906101000a900460ff1681565b6000806002600084815260200190815260200160002060009054906101000a900473ffffffffffffffffffffffffffffffffffffffff169050600073ffffffffffffffffffffffffffffffffffffffff168173ffffffffffffffffffffffffffffffffffffffff1614156111d1576040517f08c379a00000000000000000000000000000000000000000000000000000000081526004016111c8906140a8565b60405180910390fd5b80915050919050565b60008073ffffffffffffffffffffffffffffffffffffffff168273ffffffffffffffffffffffffffffffffffffffff16141561124b576040517f08c379a000000000000000000000000000000000000000000000000000000000815260040161124290614088565b60405180910390fd5b600360008373ffffffffffffffffffffffffffffffffffffffff1673ffffffffffffffffffffffffffffffffffffffff168152602001908152602001600020549050919050565b61129a611e9d565b73ffffffffffffffffffffffffffffffffffffffff166112b86113a0565b73ffffffffffffffffffffffffffffffffffffffff161461130e576040517f08c379a000000000000000000000000000000000000000000000000000000000815260040161130590614128565b60405180910390fd5b6113186000612304565b565b611322611e9d565b73ffffffffffffffffffffffffffffffffffffffff166113406113a0565b73ffffffffffffffffffffffffffffffffffffffff1614611396576040517f08c379a000000000000000000000000000000000000000000000000000000000815260040161138d90614128565b60405180910390fd5b80600f8190555050565b6000600a60009054906101000a900473ffffffffffffffffffffffffffffffffffffffff16905090565b6060600180546113d99061453b565b80601f01602080910402602001604051908101604052809291908181526020018280546114059061453b565b80156114525780601f1061142757610100808354040283529160200191611452565b820191906000526020600020905b81548152906001019060200180831161143557829003601f168201915b5050505050905090565b6000611466610c28565b9050601060009054906101000a900460ff16156114b8576040517f08c379a00000000000000000000000000000000000000000000000000000000081526004016114af906141c8565b60405180910390fd5b600082116114fb576040517f08c379a00000000000000000000000000000000000000000000000000000000081526004016114f290614208565b60405180910390fd5b600f54821115611540576040517f08c379a0000000000000000000000000000000000000000000000000000000008152600401611537906140c8565b60405180910390fd5b600e54828261154f9190614370565b1115611590576040517f08c379a000000000000000000000000000000000000000000000000000000000815260040161158790614008565b60405180910390fd5b6115986113a0565b73ffffffffffffffffffffffffffffffffffffffff163373ffffffffffffffffffffffffffffffffffffffff161461161b5781600d546115d891906143f7565b34101561161a576040517f08c379a000000000000000000000000000000000000000000000000000000000815260040161161190614028565b60405180910390fd5b5b6000600190505b8281116116955761163e3382846116399190614370565b6123ca565b7fb7656808f0e04b4af7a20f7ef1caa7669f0d781f1ca4cba31a3ba467880766c933828461166c9190614370565b60405161167a929190613ec0565b60405180910390a1808061168d9061456d565b915050611622565b505050565b6116a2611e9d565b73ffffffffffffffffffffffffffffffffffffffff168273ffffffffffffffffffffffffffffffffffffffff161415611710576040517f08c379a000000000000000000000000000000000000000000000000000000000815260040161170790613fe8565b60405180910390fd5b806005600061171d611e9d565b73ffffffffffffffffffffffffffffffffffffffff1673ffffffffffffffffffffffffffffffffffffffff16815260200190815260200160002060008473ffffffffffffffffffffffffffffffffffffffff1673ffffffffffffffffffffffffffffffffffffffff16815260200190815260200160002060006101000a81548160ff0219169083151502179055508173ffffffffffffffffffffffffffffffffffffffff166117ca611e9d565b73ffffffffffffffffffffffffffffffffffffffff167f17307eab39ab6107e8899845ad3d59bd9653f200f220920489ca2b5937696c318360405161180f9190613f0b565b60405180910390a35050565b611823611e9d565b73ffffffffffffffffffffffffffffffffffffffff166118416113a0565b73ffffffffffffffffffffffffffffffffffffffff1614611897576040517f08c379a000000000000000000000000000000000000000000000000000000000815260040161188e90614128565b60405180910390fd5b6001601060016101000a81548160ff021916908315150217905550565b6118c56118bf611e9d565b83611fca565b611904576040517f08c379a00000000000000000000000000000000000000000000000000000000081526004016118fb906141a8565b60405180910390fd5b611910848484846123e8565b50505050565b600c80546119239061453b565b80601f016020809104026020016040519081016040528092919081815260200182805461194f9061453b565b801561199c5780601f106119715761010080835404028352916020019161199c565b820191906000526020600020905b81548152906001019060200180831161197f57829003601f168201915b505050505081565b60606119af82611ea5565b6119ee576040517f08c379a00000000000000000000000000000000000000000000000000000000081526004016119e590614168565b60405180910390fd5b60001515601060019054906101000a900460ff1615151415611a9c5760118054611a179061453b565b80601f0160208091040260200160405190810160405280929190818152602001828054611a439061453b565b8015611a905780601f10611a6557610100808354040283529160200191611a90565b820191906000526020600020905b815481529060010190602001808311611a7357829003601f168201915b50505050509050611af8565b6000611aa6612444565b90506000815111611ac65760405180602001604052806000815250611af4565b80611ad0846124d6565b600c604051602001611ae493929190613e13565b6040516020818303038152906040525b9150505b919050565b600e5481565b611b0b611e9d565b73ffffffffffffffffffffffffffffffffffffffff16611b296113a0565b73ffffffffffffffffffffffffffffffffffffffff1614611b7f576040517f08c379a0000000000000000000000000000000000000000000000000000000008152600401611b7690614128565b60405180910390fd5b80600c9080519060200190611b95929190612f51565b5050565b6000600560008473ffffffffffffffffffffffffffffffffffffffff1673ffffffffffffffffffffffffffffffffffffffff16815260200190815260200160002060008373ffffffffffffffffffffffffffffffffffffffff1673ffffffffffffffffffffffffffffffffffffffff16815260200190815260200160002060009054906101000a900460ff16905092915050565b611c35611e9d565b73ffffffffffffffffffffffffffffffffffffffff16611c536113a0565b73ffffffffffffffffffffffffffffffffffffffff1614611ca9576040517f08c379a0000000000000000000000000000000000000000000000000000000008152600401611ca090614128565b60405180910390fd5b8060119080519060200190611cbf929190612f51565b5050565b611ccb611e9d565b73ffffffffffffffffffffffffffffffffffffffff16611ce96113a0565b73ffffffffffffffffffffffffffffffffffffffff1614611d3f576040517f08c379a0000000000000000000000000000000000000000000000000000000008152600401611d3690614128565b60405180910390fd5b600073ffffffffffffffffffffffffffffffffffffffff168173ffffffffffffffffffffffffffffffffffffffff161415611daf576040517f08c379a0000000000000000000000000000000000000000000000000000000008152600401611da690613f88565b60405180910390fd5b611db881612304565b50565b60007f80ac58cd000000000000000000000000000000000000000000000000000000007bffffffffffffffffffffffffffffffffffffffffffffffffffffffff1916827bffffffffffffffffffffffffffffffffffffffffffffffffffffffff19161480611e8657507f5b5e139f000000000000000000000000000000000000000000000000000000007bffffffffffffffffffffffffffffffffffffffffffffffffffffffff1916827bffffffffffffffffffffffffffffffffffffffffffffffffffffffff1916145b80611e965750611e9582612683565b5b9050919050565b600033905090565b60008073ffffffffffffffffffffffffffffffffffffffff166002600084815260200190815260200160002060009054906101000a900473ffffffffffffffffffffffffffffffffffffffff1673ffffffffffffffffffffffffffffffffffffffff1614159050919050565b816004600083815260200190815260200160002060006101000a81548173ffffffffffffffffffffffffffffffffffffffff021916908373ffffffffffffffffffffffffffffffffffffffff160217905550808273ffffffffffffffffffffffffffffffffffffffff16611f8483611128565b73ffffffffffffffffffffffffffffffffffffffff167f8c5be1e5ebec7d5bd14f71427d1e84f3dd0314c0f7b2291e5b200ac8c7c3b92560405160405180910390a45050565b6000611fd582611ea5565b612014576040517f08c379a000000000000000000000000000000000000000000000000000000000815260040161200b90614048565b60405180910390fd5b600061201f83611128565b90508073ffffffffffffffffffffffffffffffffffffffff168473ffffffffffffffffffffffffffffffffffffffff16148061208e57508373ffffffffffffffffffffffffffffffffffffffff16612076846109f7565b73ffffffffffffffffffffffffffffffffffffffff16145b8061209f575061209e8185611b99565b5b91505092915050565b8273ffffffffffffffffffffffffffffffffffffffff166120c882611128565b73ffffffffffffffffffffffffffffffffffffffff161461211e576040517f08c379a000000000000000000000000000000000000000000000000000000000815260040161211590614148565b60405180910390fd5b600073ffffffffffffffffffffffffffffffffffffffff168273ffffffffffffffffffffffffffffffffffffffff16141561218e576040517f08c379a000000000000000000000000000000000000000000000000000000000815260040161218590613fc8565b60405180910390fd5b6121998383836126ed565b6121a4600082611f11565b6001600360008573ffffffffffffffffffffffffffffffffffffffff1673ffffffffffffffffffffffffffffffffffffffff16815260200190815260200160002060008282546121f49190614451565b925050819055506001600360008473ffffffffffffffffffffffffffffffffffffffff1673ffffffffffffffffffffffffffffffffffffffff168152602001908152602001600020600082825461224b9190614370565b92505081905550816002600083815260200190815260200160002060006101000a81548173ffffffffffffffffffffffffffffffffffffffff021916908373ffffffffffffffffffffffffffffffffffffffff160217905550808273ffffffffffffffffffffffffffffffffffffffff168473ffffffffffffffffffffffffffffffffffffffff167fddf252ad1be2c89b69c2b068fc378daa952ba7f163c4a11628f55a4df523b3ef60405160405180910390a4505050565b6000600a60009054906101000a900473ffffffffffffffffffffffffffffffffffffffff16905081600a60006101000a81548173ffffffffffffffffffffffffffffffffffffffff021916908373ffffffffffffffffffffffffffffffffffffffff1602179055508173ffffffffffffffffffffffffffffffffffffffff168173ffffffffffffffffffffffffffffffffffffffff167f8be0079c531659141344cd1fd0a4f28419497f9722a3daafe3b4186f6b6457e060405160405180910390a35050565b6123e4828260405180602001604052806000815250612801565b5050565b6123f38484846120a8565b6123ff8484848461285c565b61243e576040517f08c379a000000000000000000000000000000000000000000000000000000000815260040161243590613f68565b60405180910390fd5b50505050565b6060600b80546124539061453b565b80601f016020809104026020016040519081016040528092919081815260200182805461247f9061453b565b80156124cc5780601f106124a1576101008083540402835291602001916124cc565b820191906000526020600020905b8154815290600101906020018083116124af57829003601f168201915b5050505050905090565b6060600082141561251e576040518060400160405280600181526020017f3000000000000000000000000000000000000000000000000000000000000000815250905061267e565b600082905060005b600082146125505780806125399061456d565b915050600a8261254991906143c6565b9150612526565b60008167ffffffffffffffff811115612592577f4e487b7100000000000000000000000000000000000000000000000000000000600052604160045260246000fd5b6040519080825280601f01601f1916602001820160405280156125c45781602001600182028036833780820191505090505b5090505b60008514612677576001826125dd9190614451565b9150600a856125ec91906145b6565b60306125f89190614370565b60f81b818381518110612634577f4e487b7100000000000000000000000000000000000000000000000000000000600052603260045260246000fd5b60200101907effffffffffffffffffffffffffffffffffffffffffffffffffffffffffffff1916908160001a905350600a8561267091906143c6565b94506125c8565b8093505050505b919050565b60007f01ffc9a7000000000000000000000000000000000000000000000000000000007bffffffffffffffffffffffffffffffffffffffffffffffffffffffff1916827bffffffffffffffffffffffffffffffffffffffffffffffffffffffff1916149050919050565b6126f88383836129f3565b600073ffffffffffffffffffffffffffffffffffffffff168373ffffffffffffffffffffffffffffffffffffffff16141561273b57612736816129f8565b61277a565b8173ffffffffffffffffffffffffffffffffffffffff168373ffffffffffffffffffffffffffffffffffffffff1614612779576127788382612a41565b5b5b600073ffffffffffffffffffffffffffffffffffffffff168273ffffffffffffffffffffffffffffffffffffffff1614156127bd576127b881612bae565b6127fc565b8273ffffffffffffffffffffffffffffffffffffffff168273ffffffffffffffffffffffffffffffffffffffff16146127fb576127fa8282612cf1565b5b5b505050565b61280b8383612d70565b612818600084848461285c565b612857576040517f08c379a000000000000000000000000000000000000000000000000000000000815260040161284e90613f68565b60405180910390fd5b505050565b600061287d8473ffffffffffffffffffffffffffffffffffffffff16612f3e565b156129e6578373ffffffffffffffffffffffffffffffffffffffff1663150b7a026128a6611e9d565b8786866040518563ffffffff1660e01b81526004016128c89493929190613e74565b602060405180830381600087803b1580156128e257600080fd5b505af192505050801561291357506040513d601f19601f820116820180604052508101906129109190613326565b60015b612996573d8060008114612943576040519150601f19603f3d011682016040523d82523d6000602084013e612948565b606091505b5060008151141561298e576040517f08c379a000000000000000000000000000000000000000000000000000000000815260040161298590613f68565b60405180910390fd5b805181602001fd5b63150b7a0260e01b7bffffffffffffffffffffffffffffffffffffffffffffffffffffffff1916817bffffffffffffffffffffffffffffffffffffffffffffffffffffffff1916149150506129eb565b600190505b949350505050565b505050565b6008805490506009600083815260200190815260200160002081905550600881908060018154018082558091505060019003906000526020600020016000909190919091505550565b60006001612a4e846111da565b612a589190614451565b9050600060076000848152602001908152602001600020549050818114612b3d576000600660008673ffffffffffffffffffffffffffffffffffffffff1673ffffffffffffffffffffffffffffffffffffffff168152602001908152602001600020600084815260200190815260200160002054905080600660008773ffffffffffffffffffffffffffffffffffffffff1673ffffffffffffffffffffffffffffffffffffffff168152602001908152602001600020600084815260200190815260200160002081905550816007600083815260200190815260200160002081905550505b6007600084815260200190815260200160002060009055600660008573ffffffffffffffffffffffffffffffffffffffff1673ffffffffffffffffffffffffffffffffffffffff16815260200190815260200160002060008381526020019081526020016000206000905550505050565b60006001600880549050612bc29190614451565b9050600060096000848152602001908152602001600020549050600060088381548110612c18577f4e487b7100000000000000000000000000000000000000000000000000000000600052603260045260246000fd5b906000526020600020015490508060088381548110612c60577f4e487b7100000000000000000000000000000000000000000000000000000000600052603260045260246000fd5b906000526020600020018190555081600960008381526020019081526020016000208190555060096000858152602001908152602001600020600090556008805480612cd5577f4e487b7100000000000000000000000000000000000000000000000000000000600052603160045260246000fd5b6001900381819060005260206000200160009055905550505050565b6000612cfc836111da565b905081600660008573ffffffffffffffffffffffffffffffffffffffff1673ffffffffffffffffffffffffffffffffffffffff168152602001908152602001600020600083815260200190815260200160002081905550806007600084815260200190815260200160002081905550505050565b600073ffffffffffffffffffffffffffffffffffffffff168273ffffffffffffffffffffffffffffffffffffffff161415612de0576040517f08c379a0000000000000000000000000000000000000000000000000000000008152600401612dd7906140e8565b60405180910390fd5b612de981611ea5565b15612e29576040517f08c379a0000000000000000000000000000000000000000000000000000000008152600401612e2090613fa8565b60405180910390fd5b612e35600083836126ed565b6001600360008473ffffffffffffffffffffffffffffffffffffffff1673ffffffffffffffffffffffffffffffffffffffff1681526020019081526020016000206000828254612e859190614370565b92505081905550816002600083815260200190815260200160002060006101000a81548173ffffffffffffffffffffffffffffffffffffffff021916908373ffffffffffffffffffffffffffffffffffffffff160217905550808273ffffffffffffffffffffffffffffffffffffffff16600073ffffffffffffffffffffffffffffffffffffffff167fddf252ad1be2c89b69c2b068fc378daa952ba7f163c4a11628f55a4df523b3ef60405160405180910390a45050565b600080823b905060008111915050919050565b828054612f5d9061453b565b90600052602060002090601f016020900481019282612f7f5760008555612fc6565b82601f10612f9857805160ff1916838001178555612fc6565b82800160010185558215612fc6579182015b82811115612fc5578251825591602001919060010190612faa565b5b509050612fd39190612fd7565b5090565b5b80821115612ff0576000816000905550600101612fd8565b5090565b600061300761300284614274565b614243565b90508281526020810184848401111561301f57600080fd5b61302a8482856144f9565b509392505050565b6000613045613040846142a4565b614243565b90508281526020810184848401111561305d57600080fd5b6130688482856144f9565b509392505050565b60008135905061307f816146b4565b92915050565b600081359050613094816146cb565b92915050565b6000813590506130a9816146e2565b92915050565b6000815190506130be816146e2565b92915050565b600082601f8301126130d557600080fd5b81356130e5848260208601612ff4565b91505092915050565b600082601f8301126130ff57600080fd5b813561310f848260208601613032565b91505092915050565b600081359050613127816146f9565b92915050565b60006020828403121561313f57600080fd5b600061314d84828501613070565b91505092915050565b6000806040838503121561316957600080fd5b600061317785828601613070565b925050602061318885828601613070565b9150509250929050565b6000806000606084860312156131a757600080fd5b60006131b586828701613070565b93505060206131c686828701613070565b92505060406131d786828701613118565b9150509250925092565b600080600080608085870312156131f757600080fd5b600061320587828801613070565b945050602061321687828801613070565b935050604061322787828801613118565b925050606085013567ffffffffffffffff81111561324457600080fd5b613250878288016130c4565b91505092959194509250565b6000806040838503121561326f57600080fd5b600061327d85828601613070565b925050602061328e85828601613085565b9150509250929050565b600080604083850312156132ab57600080fd5b60006132b985828601613070565b92505060206132ca85828601613118565b9150509250929050565b6000602082840312156132e657600080fd5b60006132f484828501613085565b91505092915050565b60006020828403121561330f57600080fd5b600061331d8482850161309a565b91505092915050565b60006020828403121561333857600080fd5b6000613346848285016130af565b91505092915050565b60006020828403121561336157600080fd5b600082013567ffffffffffffffff81111561337b57600080fd5b613387848285016130ee565b91505092915050565b6000602082840312156133a257600080fd5b60006133b084828501613118565b91505092915050565b60006133c58383613df5565b60208301905092915050565b6133da81614485565b82525050565b60006133eb826142f9565b6133f58185614327565b9350613400836142d4565b8060005b8381101561343157815161341888826133b9565b97506134238361431a565b925050600181019050613404565b5085935050505092915050565b61344781614497565b82525050565b600061345882614304565b6134628185614338565b9350613472818560208601614508565b61347b816146a3565b840191505092915050565b60006134918261430f565b61349b8185614354565b93506134ab818560208601614508565b6134b4816146a3565b840191505092915050565b60006134ca8261430f565b6134d48185614365565b93506134e4818560208601614508565b80840191505092915050565b600081546134fd8161453b565b6135078186614365565b94506001821660008114613522576001811461353357613566565b60ff19831686528186019350613566565b61353c856142e4565b60005b8381101561355e5781548189015260018201915060208101905061353f565b838801955050505b50505092915050565b600061357c602b83614354565b91507f455243373231456e756d657261626c653a206f776e657220696e646578206f7560008301527f74206f6620626f756e64730000000000000000000000000000000000000000006020830152604082019050919050565b60006135e2603283614354565b91507f4552433732313a207472616e7366657220746f206e6f6e20455243373231526560008301527f63656976657220696d706c656d656e74657200000000000000000000000000006020830152604082019050919050565b6000613648602683614354565b91507f4f776e61626c653a206e6577206f776e657220697320746865207a65726f206160008301527f64647265737300000000000000000000000000000000000000000000000000006020830152604082019050919050565b60006136ae601c83614354565b91507f4552433732313a20746f6b656e20616c7265616479206d696e746564000000006000830152602082019050919050565b60006136ee602483614354565b91507f4552433732313a207472616e7366657220746f20746865207a65726f2061646460008301527f72657373000000000000000000000000000000000000000000000000000000006020830152604082019050919050565b6000613754601983614354565b91507f4552433732313a20617070726f766520746f2063616c6c6572000000000000006000830152602082019050919050565b6000613794604e83614354565b91507f596f752061726520747279696e6720746f206d696e74206d6f7265207468616e60008301527f20746865206d6178696d756d20616d6f756e74206f66204e465473207468617460208301527f2063616e206265206d696e7465640000000000000000000000000000000000006040830152606082019050919050565b6000613820603a83614354565b91507f5468652070726963657320796f752074727920746f20706179206973206c6f7760008301527f6572207468616e207468652065787065637465642070726963650000000000006020830152604082019050919050565b6000613886602c83614354565b91507f4552433732313a206f70657261746f7220717565727920666f72206e6f6e657860008301527f697374656e7420746f6b656e00000000000000000000000000000000000000006020830152604082019050919050565b60006138ec603883614354565b91507f4552433732313a20617070726f76652063616c6c6572206973206e6f74206f7760008301527f6e6572206e6f7220617070726f76656420666f7220616c6c00000000000000006020830152604082019050919050565b6000613952602a83614354565b91507f4552433732313a2062616c616e636520717565727920666f7220746865207a6560008301527f726f2061646472657373000000000000000000000000000000000000000000006020830152604082019050919050565b60006139b8602983614354565b91507f4552433732313a206f776e657220717565727920666f72206e6f6e657869737460008301527f656e7420746f6b656e00000000000000000000000000000000000000000000006020830152604082019050919050565b6000613a1e602983614354565b91507f596f752063616e6e6f74206d696e74206d6f7265207468616e206d6178206d6960008301527f6e7420616d6f756e7400000000000000000000000000000000000000000000006020830152604082019050919050565b6000613a84602083614354565b91507f4552433732313a206d696e7420746f20746865207a65726f20616464726573736000830152602082019050919050565b6000613ac4602c83614354565b91507f4552433732313a20617070726f76656420717565727920666f72206e6f6e657860008301527f697374656e7420746f6b656e00000000000000000000000000000000000000006020830152604082019050919050565b6000613b2a602083614354565b91507f4f776e61626c653a2063616c6c6572206973206e6f7420746865206f776e65726000830152602082019050919050565b6000613b6a602983614354565b91507f4552433732313a207472616e73666572206f6620746f6b656e2074686174206960008301527f73206e6f74206f776e00000000000000000000000000000000000000000000006020830152604082019050919050565b6000613bd0602f83614354565b91507f4552433732314d657461646174613a2055524920717565727920666f72206e6f60008301527f6e6578697374656e7420746f6b656e00000000000000000000000000000000006020830152604082019050919050565b6000613c36602183614354565b91507f4552433732313a20617070726f76616c20746f2063757272656e74206f776e6560008301527f72000000000000000000000000000000000000000000000000000000000000006020830152604082019050919050565b6000613c9c600083614349565b9150600082019050919050565b6000613cb6603183614354565b91507f4552433732313a207472616e736665722063616c6c6572206973206e6f74206f60008301527f776e6572206e6f7220617070726f7665640000000000000000000000000000006020830152604082019050919050565b6000613d1c601183614354565b91507f4d696e74696e67206973207061757365640000000000000000000000000000006000830152602082019050919050565b6000613d5c602c83614354565b91507f455243373231456e756d657261626c653a20676c6f62616c20696e646578206f60008301527f7574206f6620626f756e647300000000000000000000000000000000000000006020830152604082019050919050565b6000613dc2600e83614354565b91507f4d696e742031206f72206d6f72650000000000000000000000000000000000006000830152602082019050919050565b613dfe816144ef565b82525050565b613e0d816144ef565b82525050565b6000613e1f82866134bf565b9150613e2b82856134bf565b9150613e3782846134f0565b9150819050949350505050565b6000613e4f82613c8f565b9150819050919050565b6000602082019050613e6e60008301846133d1565b92915050565b6000608082019050613e8960008301876133d1565b613e9660208301866133d1565b613ea36040830185613e04565b8181036060830152613eb5818461344d565b905095945050505050565b6000604082019050613ed560008301856133d1565b613ee26020830184613e04565b9392505050565b60006020820190508181036000830152613f0381846133e0565b905092915050565b6000602082019050613f20600083018461343e565b92915050565b60006020820190508181036000830152613f408184613486565b905092915050565b60006020820190508181036000830152613f618161356f565b9050919050565b60006020820190508181036000830152613f81816135d5565b9050919050565b60006020820190508181036000830152613fa18161363b565b9050919050565b60006020820190508181036000830152613fc1816136a1565b9050919050565b60006020820190508181036000830152613fe1816136e1565b9050919050565b6000602082019050818103600083015261400181613747565b9050919050565b6000602082019050818103600083015261402181613787565b9050919050565b6000602082019050818103600083015261404181613813565b9050919050565b6000602082019050818103600083015261406181613879565b9050919050565b60006020820190508181036000830152614081816138df565b9050919050565b600060208201905081810360008301526140a181613945565b9050919050565b600060208201905081810360008301526140c1816139ab565b9050919050565b600060208201905081810360008301526140e181613a11565b9050919050565b6000602082019050818103600083015261410181613a77565b9050919050565b6000602082019050818103600083015261412181613ab7565b9050919050565b6000602082019050818103600083015261414181613b1d565b9050919050565b6000602082019050818103600083015261416181613b5d565b9050919050565b6000602082019050818103600083015261418181613bc3565b9050919050565b600060208201905081810360008301526141a181613c29565b9050919050565b600060208201905081810360008301526141c181613ca9565b9050919050565b600060208201905081810360008301526141e181613d0f565b9050919050565b6000602082019050818103600083015261420181613d4f565b9050919050565b6000602082019050818103600083015261422181613db5565b9050919050565b600060208201905061423d6000830184613e04565b92915050565b6000604051905081810181811067ffffffffffffffff8211171561426a57614269614674565b5b8060405250919050565b600067ffffffffffffffff82111561428f5761428e614674565b5b601f19601f8301169050602081019050919050565b600067ffffffffffffffff8211156142bf576142be614674565b5b601f19601f8301169050602081019050919050565b6000819050602082019050919050565b60008190508160005260206000209050919050565b600081519050919050565b600081519050919050565b600081519050919050565b6000602082019050919050565b600082825260208201905092915050565b600082825260208201905092915050565b600081905092915050565b600082825260208201905092915050565b600081905092915050565b600061437b826144ef565b9150614386836144ef565b9250827fffffffffffffffffffffffffffffffffffffffffffffffffffffffffffffffff038211156143bb576143ba6145e7565b5b828201905092915050565b60006143d1826144ef565b91506143dc836144ef565b9250826143ec576143eb614616565b5b828204905092915050565b6000614402826144ef565b915061440d836144ef565b9250817fffffffffffffffffffffffffffffffffffffffffffffffffffffffffffffffff0483118215151615614446576144456145e7565b5b828202905092915050565b600061445c826144ef565b9150614467836144ef565b92508282101561447a576144796145e7565b5b828203905092915050565b6000614490826144cf565b9050919050565b60008115159050919050565b60007fffffffff0000000000000000000000000000000000000000000000000000000082169050919050565b600073ffffffffffffffffffffffffffffffffffffffff82169050919050565b6000819050919050565b82818337600083830152505050565b60005b8381101561452657808201518184015260208101905061450b565b83811115614535576000848401525b50505050565b6000600282049050600182168061455357607f821691505b6020821081141561456757614566614645565b5b50919050565b6000614578826144ef565b91507fffffffffffffffffffffffffffffffffffffffffffffffffffffffffffffffff8214156145ab576145aa6145e7565b5b600182019050919050565b60006145c1826144ef565b91506145cc836144ef565b9250826145dc576145db614616565b5b828206905092915050565b7f4e487b7100000000000000000000000000000000000000000000000000000000600052601160045260246000fd5b7f4e487b7100000000000000000000000000000000000000000000000000000000600052601260045260246000fd5b7f4e487b7100000000000000000000000000000000000000000000000000000000600052602260045260246000fd5b7f4e487b7100000000000000000000000000000000000000000000000000000000600052604160045260246000fd5b6000601f19601f8301169050919050565b6146bd81614485565b81146146c857600080fd5b50565b6146d481614497565b81146146df57600080fd5b50565b6146eb816144a3565b81146146f657600080fd5b50565b614702816144ef565b811461470d57600080fd5b5056fea26469706673582212204df936c804bb3e2cd0196955990542b69fcf5da02e67a548da7a312ac570fba364736f6c63430008000033",
  "linkReferences": {},
  "deployedLinkReferences": {}
}