{
  "_format": "hh-sol-artifact-1",
  "contractName": "VkmgContract",
  "sourceName": "contracts/NftContract.sol",
  "abi": [
    {
      "inputs": [
        {
          "internalType": "string",
          "name": "_uriPrefix",
          "type": "string"
        },
        {
          "internalType": "string",
          "name": "_hiddenMetadataUri",
          "type": "string"
        }
      ],
      "stateMutability": "nonpayable",
      "type": "constructor"
    },
    {
      "anonymous": false,
      "inputs": [
        {
          "indexed": true,
          "internalType": "address",
          "name": "owner",
          "type": "address"
        },
        {
          "indexed": true,
          "internalType": "address",
          "name": "approved",
          "type": "address"
        },
        {
          "indexed": true,
          "internalType": "uint256",
          "name": "tokenId",
          "type": "uint256"
        }
      ],
      "name": "Approval",
      "type": "event"
    },
    {
      "anonymous": false,
      "inputs": [
        {
          "indexed": true,
          "internalType": "address",
          "name": "owner",
          "type": "address"
        },
        {
          "indexed": true,
          "internalType": "address",
          "name": "operator",
          "type": "address"
        },
        {
          "indexed": false,
          "internalType": "bool",
          "name": "approved",
          "type": "bool"
        }
      ],
      "name": "ApprovalForAll",
      "type": "event"
    },
    {
      "anonymous": false,
      "inputs": [
        {
          "indexed": true,
          "internalType": "address",
          "name": "previousOwner",
          "type": "address"
        },
        {
          "indexed": true,
          "internalType": "address",
          "name": "newOwner",
          "type": "address"
        }
      ],
      "name": "OwnershipTransferred",
      "type": "event"
    },
    {
      "anonymous": false,
      "inputs": [
        {
          "indexed": true,
          "internalType": "address",
          "name": "from",
          "type": "address"
        },
        {
          "indexed": true,
          "internalType": "address",
          "name": "to",
          "type": "address"
        },
        {
          "indexed": true,
          "internalType": "uint256",
          "name": "tokenId",
          "type": "uint256"
        }
      ],
      "name": "Transfer",
      "type": "event"
    },
    {
      "inputs": [
        {
          "internalType": "address",
          "name": "to",
          "type": "address"
        },
        {
          "internalType": "uint256",
          "name": "tokenId",
          "type": "uint256"
        }
      ],
      "name": "approve",
      "outputs": [],
      "stateMutability": "nonpayable",
      "type": "function"
    },
    {
      "inputs": [
        {
          "internalType": "address",
          "name": "owner",
          "type": "address"
        }
      ],
      "name": "balanceOf",
      "outputs": [
        {
          "internalType": "uint256",
          "name": "",
          "type": "uint256"
        }
      ],
      "stateMutability": "view",
      "type": "function"
    },
    {
      "inputs": [],
      "name": "cost",
      "outputs": [
        {
          "internalType": "uint256",
          "name": "",
          "type": "uint256"
        }
      ],
      "stateMutability": "view",
      "type": "function"
    },
    {
      "inputs": [
        {
          "internalType": "uint256",
          "name": "tokenId",
          "type": "uint256"
        }
      ],
      "name": "getApproved",
      "outputs": [
        {
          "internalType": "address",
          "name": "",
          "type": "address"
        }
      ],
      "stateMutability": "view",
      "type": "function"
    },
    {
      "inputs": [],
      "name": "hiddenMetadataUri",
      "outputs": [
        {
          "internalType": "string",
          "name": "",
          "type": "string"
        }
      ],
      "stateMutability": "view",
      "type": "function"
    },
    {
      "inputs": [
        {
          "internalType": "address",
          "name": "owner",
          "type": "address"
        },
        {
          "internalType": "address",
          "name": "operator",
          "type": "address"
        }
      ],
      "name": "isApprovedForAll",
      "outputs": [
        {
          "internalType": "bool",
          "name": "",
          "type": "bool"
        }
      ],
      "stateMutability": "view",
      "type": "function"
    },
    {
      "inputs": [],
      "name": "maxMintAmountPerTx",
      "outputs": [
        {
          "internalType": "uint256",
          "name": "",
          "type": "uint256"
        }
      ],
      "stateMutability": "view",
      "type": "function"
    },
    {
      "inputs": [],
      "name": "maxSupply",
      "outputs": [
        {
          "internalType": "uint256",
          "name": "",
          "type": "uint256"
        }
      ],
      "stateMutability": "view",
      "type": "function"
    },
    {
      "inputs": [
        {
          "internalType": "uint256",
          "name": "_mintAmount",
          "type": "uint256"
        }
      ],
      "name": "mint",
      "outputs": [],
      "stateMutability": "payable",
      "type": "function"
    },
    {
      "inputs": [
        {
          "internalType": "uint256",
          "name": "_mintAmount",
          "type": "uint256"
        },
        {
          "internalType": "address",
          "name": "_receiver",
          "type": "address"
        }
      ],
      "name": "mintForAddress",
      "outputs": [],
      "stateMutability": "nonpayable",
      "type": "function"
    },
    {
      "inputs": [],
      "name": "name",
      "outputs": [
        {
          "internalType": "string",
          "name": "",
          "type": "string"
        }
      ],
      "stateMutability": "view",
      "type": "function"
    },
    {
      "inputs": [],
      "name": "owner",
      "outputs": [
        {
          "internalType": "address",
          "name": "",
          "type": "address"
        }
      ],
      "stateMutability": "view",
      "type": "function"
    },
    {
      "inputs": [
        {
          "internalType": "uint256",
          "name": "tokenId",
          "type": "uint256"
        }
      ],
      "name": "ownerOf",
      "outputs": [
        {
          "internalType": "address",
          "name": "",
          "type": "address"
        }
      ],
      "stateMutability": "view",
      "type": "function"
    },
    {
      "inputs": [],
      "name": "paused",
      "outputs": [
        {
          "internalType": "bool",
          "name": "",
          "type": "bool"
        }
      ],
      "stateMutability": "view",
      "type": "function"
    },
    {
      "inputs": [],
      "name": "renounceOwnership",
      "outputs": [],
      "stateMutability": "nonpayable",
      "type": "function"
    },
    {
      "inputs": [],
      "name": "revealed",
      "outputs": [
        {
          "internalType": "bool",
          "name": "",
          "type": "bool"
        }
      ],
      "stateMutability": "view",
      "type": "function"
    },
    {
      "inputs": [
        {
          "internalType": "address",
          "name": "from",
          "type": "address"
        },
        {
          "internalType": "address",
          "name": "to",
          "type": "address"
        },
        {
          "internalType": "uint256",
          "name": "tokenId",
          "type": "uint256"
        }
      ],
      "name": "safeTransferFrom",
      "outputs": [],
      "stateMutability": "nonpayable",
      "type": "function"
    },
    {
      "inputs": [
        {
          "internalType": "address",
          "name": "from",
          "type": "address"
        },
        {
          "internalType": "address",
          "name": "to",
          "type": "address"
        },
        {
          "internalType": "uint256",
          "name": "tokenId",
          "type": "uint256"
        },
        {
          "internalType": "bytes",
          "name": "_data",
          "type": "bytes"
        }
      ],
      "name": "safeTransferFrom",
      "outputs": [],
      "stateMutability": "nonpayable",
      "type": "function"
    },
    {
      "inputs": [
        {
          "internalType": "address",
          "name": "operator",
          "type": "address"
        },
        {
          "internalType": "bool",
          "name": "approved",
          "type": "bool"
        }
      ],
      "name": "setApprovalForAll",
      "outputs": [],
      "stateMutability": "nonpayable",
      "type": "function"
    },
    {
      "inputs": [
        {
          "internalType": "uint256",
          "name": "_cost",
          "type": "uint256"
        }
      ],
      "name": "setCost",
      "outputs": [],
      "stateMutability": "nonpayable",
      "type": "function"
    },
    {
      "inputs": [
        {
          "internalType": "string",
          "name": "_hiddenMetadataUri",
          "type": "string"
        }
      ],
      "name": "setHiddenMetadataUri",
      "outputs": [],
      "stateMutability": "nonpayable",
      "type": "function"
    },
    {
      "inputs": [
        {
          "internalType": "uint256",
          "name": "_maxMintAmountPerTx",
          "type": "uint256"
        }
      ],
      "name": "setMaxMintAmountPerTx",
      "outputs": [],
      "stateMutability": "nonpayable",
      "type": "function"
    },
    {
      "inputs": [
        {
          "internalType": "bool",
          "name": "_state",
          "type": "bool"
        }
      ],
      "name": "setPaused",
      "outputs": [],
      "stateMutability": "nonpayable",
      "type": "function"
    },
    {
      "inputs": [
        {
          "internalType": "bool",
          "name": "_state",
          "type": "bool"
        }
      ],
      "name": "setRevealed",
      "outputs": [],
      "stateMutability": "nonpayable",
      "type": "function"
    },
    {
      "inputs": [
        {
          "internalType": "string",
          "name": "_uriPrefix",
          "type": "string"
        }
      ],
      "name": "setUriPrefix",
      "outputs": [],
      "stateMutability": "nonpayable",
      "type": "function"
    },
    {
      "inputs": [
        {
          "internalType": "string",
          "name": "_uriSuffix",
          "type": "string"
        }
      ],
      "name": "setUriSuffix",
      "outputs": [],
      "stateMutability": "nonpayable",
      "type": "function"
    },
    {
      "inputs": [
        {
          "internalType": "bytes4",
          "name": "interfaceId",
          "type": "bytes4"
        }
      ],
      "name": "supportsInterface",
      "outputs": [
        {
          "internalType": "bool",
          "name": "",
          "type": "bool"
        }
      ],
      "stateMutability": "view",
      "type": "function"
    },
    {
      "inputs": [],
      "name": "symbol",
      "outputs": [
        {
          "internalType": "string",
          "name": "",
          "type": "string"
        }
      ],
      "stateMutability": "view",
      "type": "function"
    },
    {
      "inputs": [
        {
          "internalType": "uint256",
          "name": "_tokenId",
          "type": "uint256"
        }
      ],
      "name": "tokenURI",
      "outputs": [
        {
          "internalType": "string",
          "name": "",
          "type": "string"
        }
      ],
      "stateMutability": "view",
      "type": "function"
    },
    {
      "inputs": [],
      "name": "totalSupply",
      "outputs": [
        {
          "internalType": "uint256",
          "name": "",
          "type": "uint256"
        }
      ],
      "stateMutability": "view",
      "type": "function"
    },
    {
      "inputs": [
        {
          "internalType": "address",
          "name": "from",
          "type": "address"
        },
        {
          "internalType": "address",
          "name": "to",
          "type": "address"
        },
        {
          "internalType": "uint256",
          "name": "tokenId",
          "type": "uint256"
        }
      ],
      "name": "transferFrom",
      "outputs": [],
      "stateMutability": "nonpayable",
      "type": "function"
    },
    {
      "inputs": [
        {
          "internalType": "address",
          "name": "newOwner",
          "type": "address"
        }
      ],
      "name": "transferOwnership",
      "outputs": [],
      "stateMutability": "nonpayable",
      "type": "function"
    },
    {
      "inputs": [],
      "name": "uriPrefix",
      "outputs": [
        {
          "internalType": "string",
          "name": "",
          "type": "string"
        }
      ],
      "stateMutability": "view",
      "type": "function"
    },
    {
      "inputs": [],
      "name": "uriSuffix",
      "outputs": [
        {
          "internalType": "string",
          "name": "",
          "type": "string"
        }
      ],
      "stateMutability": "view",
      "type": "function"
    },
    {
      "inputs": [
        {
          "internalType": "address",
          "name": "_owner",
          "type": "address"
        }
      ],
      "name": "walletOfOwner",
      "outputs": [
        {
          "internalType": "uint256[]",
          "name": "",
          "type": "uint256[]"
        }
      ],
      "stateMutability": "view",
      "type": "function"
    },
    {
      "inputs": [],
      "name": "withdraw",
      "outputs": [],
      "stateMutability": "nonpayable",
      "type": "function"
    }
  ],
  "bytecode": "0x608060405260405180602001604052806000815250600890805190602001906200002b9291906200042c565b506040518060400160405280600581526020017f2e6a736f6e00000000000000000000000000000000000000000000000000000081525060099080519060200190620000799291906200042c565b506000600b55611e61600c55611e61600d556000600e60006101000a81548160ff0219169083151502179055506001600e60016101000a81548160ff021916908315150217905550348015620000ce57600080fd5b506040516200482e3803806200482e8339818101604052810190620000f491906200054e565b6040518060400160405280601281526020017f566c6164696d6972202620746865204b4d4700000000000000000000000000008152506040518060400160405280600481526020017f564b4d47000000000000000000000000000000000000000000000000000000008152508160009080519060200190620001789291906200042c565b508060019080519060200190620001919291906200042c565b505050620001b4620001a8620001de60201b60201c565b620001e660201b60201c565b620001c581620002ac60201b60201c565b620001d6826200035760201b60201c565b505062000767565b600033905090565b6000600660009054906101000a900473ffffffffffffffffffffffffffffffffffffffff16905081600660006101000a81548173ffffffffffffffffffffffffffffffffffffffff021916908373ffffffffffffffffffffffffffffffffffffffff1602179055508173ffffffffffffffffffffffffffffffffffffffff168173ffffffffffffffffffffffffffffffffffffffff167f8be0079c531659141344cd1fd0a4f28419497f9722a3daafe3b4186f6b6457e060405160405180910390a35050565b620002bc620001de60201b60201c565b73ffffffffffffffffffffffffffffffffffffffff16620002e26200040260201b60201c565b73ffffffffffffffffffffffffffffffffffffffff16146200033b576040517f08c379a0000000000000000000000000000000000000000000000000000000008152600401620003329062000603565b60405180910390fd5b80600a9080519060200190620003539291906200042c565b5050565b62000367620001de60201b60201c565b73ffffffffffffffffffffffffffffffffffffffff166200038d6200040260201b60201c565b73ffffffffffffffffffffffffffffffffffffffff1614620003e6576040517f08c379a0000000000000000000000000000000000000000000000000000000008152600401620003dd9062000603565b60405180910390fd5b8060089080519060200190620003fe9291906200042c565b5050565b6000600660009054906101000a900473ffffffffffffffffffffffffffffffffffffffff16905090565b8280546200043a90620006d3565b90600052602060002090601f0160209004810192826200045e5760008555620004aa565b82601f106200047957805160ff1916838001178555620004aa565b82800160010185558215620004aa579182015b82811115620004a95782518255916020019190600101906200048c565b5b509050620004b99190620004bd565b5090565b5b80821115620004d8576000816000905550600101620004be565b5090565b6000620004f3620004ed8462000659565b62000625565b9050828152602081018484840111156200050c57600080fd5b620005198482856200069d565b509392505050565b600082601f8301126200053357600080fd5b815162000545848260208601620004dc565b91505092915050565b600080604083850312156200056257600080fd5b600083015167ffffffffffffffff8111156200057d57600080fd5b6200058b8582860162000521565b925050602083015167ffffffffffffffff811115620005a957600080fd5b620005b78582860162000521565b9150509250929050565b6000620005d06020836200068c565b91507f4f776e61626c653a2063616c6c6572206973206e6f7420746865206f776e65726000830152602082019050919050565b600060208201905081810360008301526200061e81620005c1565b9050919050565b6000604051905081810181811067ffffffffffffffff821117156200064f576200064e62000738565b5b8060405250919050565b600067ffffffffffffffff82111562000677576200067662000738565b5b601f19601f8301169050602081019050919050565b600082825260208201905092915050565b60005b83811015620006bd578082015181840152602081019050620006a0565b83811115620006cd576000848401525b50505050565b60006002820490506001821680620006ec57607f821691505b6020821081141562000703576200070262000709565b5b50919050565b7f4e487b7100000000000000000000000000000000000000000000000000000000600052602260045260246000fd5b7f4e487b7100000000000000000000000000000000000000000000000000000000600052604160045260246000fd5b6140b780620007776000396000f3fe60806040526004361061020f5760003560e01c80636352211e11610118578063a45ba8e7116100a0578063d5abeb011161006f578063d5abeb0114610768578063e0a8085314610793578063e985e9c5146107bc578063efbd73f4146107f9578063f2fde38b146108225761020f565b8063a45ba8e7146106ae578063b071401b146106d9578063b88d4fde14610702578063c87b56dd1461072b5761020f565b80638da5cb5b116100e75780638da5cb5b146105e857806394354fd01461061357806395d89b411461063e578063a0712d6814610669578063a22cb465146106855761020f565b80636352211e1461052e57806370a082311461056b578063715018a6146105a85780637ec4a659146105bf5761020f565b80633ccfd60b1161019b5780634fdd43cb1161016a5780634fdd43cb1461045957806351830227146104825780635503a0e8146104ad5780635c975abb146104d857806362b99ad4146105035761020f565b80633ccfd60b146103b357806342842e0e146103ca578063438b6300146103f357806344a0d68a146104305761020f565b806313faede6116101e257806313faede6146102e257806316ba10e01461030d57806316c38b3c1461033657806318160ddd1461035f57806323b872dd1461038a5761020f565b806301ffc9a71461021457806306fdde0314610251578063081812fc1461027c578063095ea7b3146102b9575b600080fd5b34801561022057600080fd5b5061023b60048036038101906102369190612e5f565b61084b565b60405161024891906138dc565b60405180910390f35b34801561025d57600080fd5b5061026661092d565b60405161027391906138f7565b60405180910390f35b34801561028857600080fd5b506102a3600480360381019061029e9190612ef2565b6109bf565b6040516102b09190613853565b60405180910390f35b3480156102c557600080fd5b506102e060048036038101906102db9190612dfa565b610a44565b005b3480156102ee57600080fd5b506102f7610b5c565b6040516103049190613b99565b60405180910390f35b34801561031957600080fd5b50610334600480360381019061032f9190612eb1565b610b62565b005b34801561034257600080fd5b5061035d60048036038101906103589190612e36565b610bf8565b005b34801561036b57600080fd5b50610374610c91565b6040516103819190613b99565b60405180910390f35b34801561039657600080fd5b506103b160048036038101906103ac9190612cf4565b610ca2565b005b3480156103bf57600080fd5b506103c8610d02565b005b3480156103d657600080fd5b506103f160048036038101906103ec9190612cf4565b610dfe565b005b3480156103ff57600080fd5b5061041a60048036038101906104159190612c8f565b610e1e565b60405161042791906138ba565b60405180910390f35b34801561043c57600080fd5b5061045760048036038101906104529190612ef2565b610f75565b005b34801561046557600080fd5b50610480600480360381019061047b9190612eb1565b610ffb565b005b34801561048e57600080fd5b50610497611091565b6040516104a491906138dc565b60405180910390f35b3480156104b957600080fd5b506104c26110a4565b6040516104cf91906138f7565b60405180910390f35b3480156104e457600080fd5b506104ed611132565b6040516104fa91906138dc565b60405180910390f35b34801561050f57600080fd5b50610518611145565b60405161052591906138f7565b60405180910390f35b34801561053a57600080fd5b5061055560048036038101906105509190612ef2565b6111d3565b6040516105629190613853565b60405180910390f35b34801561057757600080fd5b50610592600480360381019061058d9190612c8f565b611285565b60405161059f9190613b99565b60405180910390f35b3480156105b457600080fd5b506105bd61133d565b005b3480156105cb57600080fd5b506105e660048036038101906105e19190612eb1565b6113c5565b005b3480156105f457600080fd5b506105fd61145b565b60405161060a9190613853565b60405180910390f35b34801561061f57600080fd5b50610628611485565b6040516106359190613b99565b60405180910390f35b34801561064a57600080fd5b5061065361148b565b60405161066091906138f7565b60405180910390f35b610683600480360381019061067e9190612ef2565b61151d565b005b34801561069157600080fd5b506106ac60048036038101906106a79190612dbe565b611676565b005b3480156106ba57600080fd5b506106c36117f7565b6040516106d091906138f7565b60405180910390f35b3480156106e557600080fd5b5061070060048036038101906106fb9190612ef2565b611885565b005b34801561070e57600080fd5b5061072960048036038101906107249190612d43565b61190b565b005b34801561073757600080fd5b50610752600480360381019061074d9190612ef2565b61196d565b60405161075f91906138f7565b60405180910390f35b34801561077457600080fd5b5061077d611ac6565b60405161078a9190613b99565b60405180910390f35b34801561079f57600080fd5b506107ba60048036038101906107b59190612e36565b611acc565b005b3480156107c857600080fd5b506107e360048036038101906107de9190612cb8565b611b65565b6040516107f091906138dc565b60405180910390f35b34801561080557600080fd5b50610820600480360381019061081b9190612f1b565b611bf9565b005b34801561082e57600080fd5b5061084960048036038101906108449190612c8f565b611d2f565b005b60007f80ac58cd000000000000000000000000000000000000000000000000000000007bffffffffffffffffffffffffffffffffffffffffffffffffffffffff1916827bffffffffffffffffffffffffffffffffffffffffffffffffffffffff1916148061091657507f5b5e139f000000000000000000000000000000000000000000000000000000007bffffffffffffffffffffffffffffffffffffffffffffffffffffffff1916827bffffffffffffffffffffffffffffffffffffffffffffffffffffffff1916145b80610926575061092582611e27565b5b9050919050565b60606000805461093c90613eac565b80601f016020809104026020016040519081016040528092919081815260200182805461096890613eac565b80156109b55780601f1061098a576101008083540402835291602001916109b5565b820191906000526020600020905b81548152906001019060200180831161099857829003601f168201915b5050505050905090565b60006109ca82611e91565b610a09576040517f08c379a0000000000000000000000000000000000000000000000000000000008152600401610a0090613a79565b60405180910390fd5b6004600083815260200190815260200160002060009054906101000a900473ffffffffffffffffffffffffffffffffffffffff169050919050565b6000610a4f826111d3565b90508073ffffffffffffffffffffffffffffffffffffffff168373ffffffffffffffffffffffffffffffffffffffff161415610ac0576040517f08c379a0000000000000000000000000000000000000000000000000000000008152600401610ab790613b19565b60405180910390fd5b8073ffffffffffffffffffffffffffffffffffffffff16610adf611efd565b73ffffffffffffffffffffffffffffffffffffffff161480610b0e5750610b0d81610b08611efd565b611b65565b5b610b4d576040517f08c379a0000000000000000000000000000000000000000000000000000000008152600401610b44906139f9565b60405180910390fd5b610b578383611f05565b505050565b600b5481565b610b6a611efd565b73ffffffffffffffffffffffffffffffffffffffff16610b8861145b565b73ffffffffffffffffffffffffffffffffffffffff1614610bde576040517f08c379a0000000000000000000000000000000000000000000000000000000008152600401610bd590613a99565b60405180910390fd5b8060099080519060200190610bf4929190612ab3565b5050565b610c00611efd565b73ffffffffffffffffffffffffffffffffffffffff16610c1e61145b565b73ffffffffffffffffffffffffffffffffffffffff1614610c74576040517f08c379a0000000000000000000000000000000000000000000000000000000008152600401610c6b90613a99565b60405180910390fd5b80600e60006101000a81548160ff02191690831515021790555050565b6000610c9d6007611fbe565b905090565b610cb3610cad611efd565b82611fcc565b610cf2576040517f08c379a0000000000000000000000000000000000000000000000000000000008152600401610ce990613b59565b60405180910390fd5b610cfd8383836120aa565b505050565b610d0a611efd565b73ffffffffffffffffffffffffffffffffffffffff16610d2861145b565b73ffffffffffffffffffffffffffffffffffffffff1614610d7e576040517f08c379a0000000000000000000000000000000000000000000000000000000008152600401610d7590613a99565b60405180910390fd5b6000610d8861145b565b73ffffffffffffffffffffffffffffffffffffffff1647604051610dab9061383e565b60006040518083038185875af1925050503d8060008114610de8576040519150601f19603f3d011682016040523d82523d6000602084013e610ded565b606091505b5050905080610dfb57600080fd5b50565b610e198383836040518060200160405280600081525061190b565b505050565b60606000610e2b83611285565b905060008167ffffffffffffffff811115610e6f577f4e487b7100000000000000000000000000000000000000000000000000000000600052604160045260246000fd5b604051908082528060200260200182016040528015610e9d5781602001602082028036833780820191505090505b50905060006001905060005b8381108015610eba5750600c548211155b15610f69576000610eca836111d3565b90508673ffffffffffffffffffffffffffffffffffffffff168173ffffffffffffffffffffffffffffffffffffffff161415610f555782848381518110610f3a577f4e487b7100000000000000000000000000000000000000000000000000000000600052603260045260246000fd5b6020026020010181815250508180610f5190613ede565b9250505b8280610f6090613ede565b93505050610ea9565b82945050505050919050565b610f7d611efd565b73ffffffffffffffffffffffffffffffffffffffff16610f9b61145b565b73ffffffffffffffffffffffffffffffffffffffff1614610ff1576040517f08c379a0000000000000000000000000000000000000000000000000000000008152600401610fe890613a99565b60405180910390fd5b80600b8190555050565b611003611efd565b73ffffffffffffffffffffffffffffffffffffffff1661102161145b565b73ffffffffffffffffffffffffffffffffffffffff1614611077576040517f08c379a000000000000000000000000000000000000000000000000000000000815260040161106e90613a99565b60405180910390fd5b80600a908051906020019061108d929190612ab3565b5050565b600e60019054906101000a900460ff1681565b600980546110b190613eac565b80601f01602080910402602001604051908101604052809291908181526020018280546110dd90613eac565b801561112a5780601f106110ff5761010080835404028352916020019161112a565b820191906000526020600020905b81548152906001019060200180831161110d57829003601f168201915b505050505081565b600e60009054906101000a900460ff1681565b6008805461115290613eac565b80601f016020809104026020016040519081016040528092919081815260200182805461117e90613eac565b80156111cb5780601f106111a0576101008083540402835291602001916111cb565b820191906000526020600020905b8154815290600101906020018083116111ae57829003601f168201915b505050505081565b6000806002600084815260200190815260200160002060009054906101000a900473ffffffffffffffffffffffffffffffffffffffff169050600073ffffffffffffffffffffffffffffffffffffffff168173ffffffffffffffffffffffffffffffffffffffff16141561127c576040517f08c379a000000000000000000000000000000000000000000000000000000000815260040161127390613a39565b60405180910390fd5b80915050919050565b60008073ffffffffffffffffffffffffffffffffffffffff168273ffffffffffffffffffffffffffffffffffffffff1614156112f6576040517f08c379a00000000000000000000000000000000000000000000000000000000081526004016112ed90613a19565b60405180910390fd5b600360008373ffffffffffffffffffffffffffffffffffffffff1673ffffffffffffffffffffffffffffffffffffffff168152602001908152602001600020549050919050565b611345611efd565b73ffffffffffffffffffffffffffffffffffffffff1661136361145b565b73ffffffffffffffffffffffffffffffffffffffff16146113b9576040517f08c379a00000000000000000000000000000000000000000000000000000000081526004016113b090613a99565b60405180910390fd5b6113c36000612306565b565b6113cd611efd565b73ffffffffffffffffffffffffffffffffffffffff166113eb61145b565b73ffffffffffffffffffffffffffffffffffffffff1614611441576040517f08c379a000000000000000000000000000000000000000000000000000000000815260040161143890613a99565b60405180910390fd5b8060089080519060200190611457929190612ab3565b5050565b6000600660009054906101000a900473ffffffffffffffffffffffffffffffffffffffff16905090565b600d5481565b60606001805461149a90613eac565b80601f01602080910402602001604051908101604052809291908181526020018280546114c690613eac565b80156115135780601f106114e857610100808354040283529160200191611513565b820191906000526020600020905b8154815290600101906020018083116114f657829003601f168201915b5050505050905090565b806000811180156115305750600d548111155b61156f576040517f08c379a000000000000000000000000000000000000000000000000000000000815260040161156690613979565b60405180910390fd5b600c548161157d6007611fbe565b6115879190613ce1565b11156115c8576040517f08c379a00000000000000000000000000000000000000000000000000000000081526004016115bf90613b39565b60405180910390fd5b600e60009054906101000a900460ff1615611618576040517f08c379a000000000000000000000000000000000000000000000000000000000815260040161160f90613ab9565b60405180910390fd5b81600b546116269190613d68565b341015611668576040517f08c379a000000000000000000000000000000000000000000000000000000000815260040161165f90613b79565b60405180910390fd5b61167233836123cc565b5050565b61167e611efd565b73ffffffffffffffffffffffffffffffffffffffff168273ffffffffffffffffffffffffffffffffffffffff1614156116ec576040517f08c379a00000000000000000000000000000000000000000000000000000000081526004016116e3906139b9565b60405180910390fd5b80600560006116f9611efd565b73ffffffffffffffffffffffffffffffffffffffff1673ffffffffffffffffffffffffffffffffffffffff16815260200190815260200160002060008473ffffffffffffffffffffffffffffffffffffffff1673ffffffffffffffffffffffffffffffffffffffff16815260200190815260200160002060006101000a81548160ff0219169083151502179055508173ffffffffffffffffffffffffffffffffffffffff166117a6611efd565b73ffffffffffffffffffffffffffffffffffffffff167f17307eab39ab6107e8899845ad3d59bd9653f200f220920489ca2b5937696c31836040516117eb91906138dc565b60405180910390a35050565b600a805461180490613eac565b80601f016020809104026020016040519081016040528092919081815260200182805461183090613eac565b801561187d5780601f106118525761010080835404028352916020019161187d565b820191906000526020600020905b81548152906001019060200180831161186057829003601f168201915b505050505081565b61188d611efd565b73ffffffffffffffffffffffffffffffffffffffff166118ab61145b565b73ffffffffffffffffffffffffffffffffffffffff1614611901576040517f08c379a00000000000000000000000000000000000000000000000000000000081526004016118f890613a99565b60405180910390fd5b80600d8190555050565b61191c611916611efd565b83611fcc565b61195b576040517f08c379a000000000000000000000000000000000000000000000000000000000815260040161195290613b59565b60405180910390fd5b6119678484848461240c565b50505050565b606061197882611e91565b6119b7576040517f08c379a00000000000000000000000000000000000000000000000000000000081526004016119ae90613af9565b60405180910390fd5b60001515600e60019054906101000a900460ff1615151415611a6557600a80546119e090613eac565b80601f0160208091040260200160405190810160405280929190818152602001828054611a0c90613eac565b8015611a595780601f10611a2e57610100808354040283529160200191611a59565b820191906000526020600020905b815481529060010190602001808311611a3c57829003601f168201915b50505050509050611ac1565b6000611a6f612468565b90506000815111611a8f5760405180602001604052806000815250611abd565b80611a99846124fa565b6009604051602001611aad9392919061380d565b6040516020818303038152906040525b9150505b919050565b600c5481565b611ad4611efd565b73ffffffffffffffffffffffffffffffffffffffff16611af261145b565b73ffffffffffffffffffffffffffffffffffffffff1614611b48576040517f08c379a0000000000000000000000000000000000000000000000000000000008152600401611b3f90613a99565b60405180910390fd5b80600e60016101000a81548160ff02191690831515021790555050565b6000600560008473ffffffffffffffffffffffffffffffffffffffff1673ffffffffffffffffffffffffffffffffffffffff16815260200190815260200160002060008373ffffffffffffffffffffffffffffffffffffffff1673ffffffffffffffffffffffffffffffffffffffff16815260200190815260200160002060009054906101000a900460ff16905092915050565b81600081118015611c0c5750600d548111155b611c4b576040517f08c379a0000000000000000000000000000000000000000000000000000000008152600401611c4290613979565b60405180910390fd5b600c5481611c596007611fbe565b611c639190613ce1565b1115611ca4576040517f08c379a0000000000000000000000000000000000000000000000000000000008152600401611c9b90613b39565b60405180910390fd5b611cac611efd565b73ffffffffffffffffffffffffffffffffffffffff16611cca61145b565b73ffffffffffffffffffffffffffffffffffffffff1614611d20576040517f08c379a0000000000000000000000000000000000000000000000000000000008152600401611d1790613a99565b60405180910390fd5b611d2a82846123cc565b505050565b611d37611efd565b73ffffffffffffffffffffffffffffffffffffffff16611d5561145b565b73ffffffffffffffffffffffffffffffffffffffff1614611dab576040517f08c379a0000000000000000000000000000000000000000000000000000000008152600401611da290613a99565b60405180910390fd5b600073ffffffffffffffffffffffffffffffffffffffff168173ffffffffffffffffffffffffffffffffffffffff161415611e1b576040517f08c379a0000000000000000000000000000000000000000000000000000000008152600401611e1290613939565b60405180910390fd5b611e2481612306565b50565b60007f01ffc9a7000000000000000000000000000000000000000000000000000000007bffffffffffffffffffffffffffffffffffffffffffffffffffffffff1916827bffffffffffffffffffffffffffffffffffffffffffffffffffffffff1916149050919050565b60008073ffffffffffffffffffffffffffffffffffffffff166002600084815260200190815260200160002060009054906101000a900473ffffffffffffffffffffffffffffffffffffffff1673ffffffffffffffffffffffffffffffffffffffff1614159050919050565b600033905090565b816004600083815260200190815260200160002060006101000a81548173ffffffffffffffffffffffffffffffffffffffff021916908373ffffffffffffffffffffffffffffffffffffffff160217905550808273ffffffffffffffffffffffffffffffffffffffff16611f78836111d3565b73ffffffffffffffffffffffffffffffffffffffff167f8c5be1e5ebec7d5bd14f71427d1e84f3dd0314c0f7b2291e5b200ac8c7c3b92560405160405180910390a45050565b600081600001549050919050565b6000611fd782611e91565b612016576040517f08c379a000000000000000000000000000000000000000000000000000000000815260040161200d906139d9565b60405180910390fd5b6000612021836111d3565b90508073ffffffffffffffffffffffffffffffffffffffff168473ffffffffffffffffffffffffffffffffffffffff16148061209057508373ffffffffffffffffffffffffffffffffffffffff16612078846109bf565b73ffffffffffffffffffffffffffffffffffffffff16145b806120a157506120a08185611b65565b5b91505092915050565b8273ffffffffffffffffffffffffffffffffffffffff166120ca826111d3565b73ffffffffffffffffffffffffffffffffffffffff1614612120576040517f08c379a000000000000000000000000000000000000000000000000000000000815260040161211790613ad9565b60405180910390fd5b600073ffffffffffffffffffffffffffffffffffffffff168273ffffffffffffffffffffffffffffffffffffffff161415612190576040517f08c379a000000000000000000000000000000000000000000000000000000000815260040161218790613999565b60405180910390fd5b61219b8383836126a7565b6121a6600082611f05565b6001600360008573ffffffffffffffffffffffffffffffffffffffff1673ffffffffffffffffffffffffffffffffffffffff16815260200190815260200160002060008282546121f69190613dc2565b925050819055506001600360008473ffffffffffffffffffffffffffffffffffffffff1673ffffffffffffffffffffffffffffffffffffffff168152602001908152602001600020600082825461224d9190613ce1565b92505081905550816002600083815260200190815260200160002060006101000a81548173ffffffffffffffffffffffffffffffffffffffff021916908373ffffffffffffffffffffffffffffffffffffffff160217905550808273ffffffffffffffffffffffffffffffffffffffff168473ffffffffffffffffffffffffffffffffffffffff167fddf252ad1be2c89b69c2b068fc378daa952ba7f163c4a11628f55a4df523b3ef60405160405180910390a4505050565b6000600660009054906101000a900473ffffffffffffffffffffffffffffffffffffffff16905081600660006101000a81548173ffffffffffffffffffffffffffffffffffffffff021916908373ffffffffffffffffffffffffffffffffffffffff1602179055508173ffffffffffffffffffffffffffffffffffffffff168173ffffffffffffffffffffffffffffffffffffffff167f8be0079c531659141344cd1fd0a4f28419497f9722a3daafe3b4186f6b6457e060405160405180910390a35050565b60005b81811015612407576123e160076126ac565b6123f4836123ef6007611fbe565b6126c2565b80806123ff90613ede565b9150506123cf565b505050565b6124178484846120aa565b612423848484846126e0565b612462576040517f08c379a000000000000000000000000000000000000000000000000000000000815260040161245990613919565b60405180910390fd5b50505050565b60606008805461247790613eac565b80601f01602080910402602001604051908101604052809291908181526020018280546124a390613eac565b80156124f05780601f106124c5576101008083540402835291602001916124f0565b820191906000526020600020905b8154815290600101906020018083116124d357829003601f168201915b5050505050905090565b60606000821415612542576040518060400160405280600181526020017f300000000000000000000000000000000000000000000000000000000000000081525090506126a2565b600082905060005b6000821461257457808061255d90613ede565b915050600a8261256d9190613d37565b915061254a565b60008167ffffffffffffffff8111156125b6577f4e487b7100000000000000000000000000000000000000000000000000000000600052604160045260246000fd5b6040519080825280601f01601f1916602001820160405280156125e85781602001600182028036833780820191505090505b5090505b6000851461269b576001826126019190613dc2565b9150600a856126109190613f27565b603061261c9190613ce1565b60f81b818381518110612658577f4e487b7100000000000000000000000000000000000000000000000000000000600052603260045260246000fd5b60200101907effffffffffffffffffffffffffffffffffffffffffffffffffffffffffffff1916908160001a905350600a856126949190613d37565b94506125ec565b8093505050505b919050565b505050565b6001816000016000828254019250508190555050565b6126dc828260405180602001604052806000815250612877565b5050565b60006127018473ffffffffffffffffffffffffffffffffffffffff166128d2565b1561286a578373ffffffffffffffffffffffffffffffffffffffff1663150b7a0261272a611efd565b8786866040518563ffffffff1660e01b815260040161274c949392919061386e565b602060405180830381600087803b15801561276657600080fd5b505af192505050801561279757506040513d601f19601f820116820180604052508101906127949190612e88565b60015b61281a573d80600081146127c7576040519150601f19603f3d011682016040523d82523d6000602084013e6127cc565b606091505b50600081511415612812576040517f08c379a000000000000000000000000000000000000000000000000000000000815260040161280990613919565b60405180910390fd5b805181602001fd5b63150b7a0260e01b7bffffffffffffffffffffffffffffffffffffffffffffffffffffffff1916817bffffffffffffffffffffffffffffffffffffffffffffffffffffffff19161491505061286f565b600190505b949350505050565b61288183836128e5565b61288e60008484846126e0565b6128cd576040517f08c379a00000000000000000000000000000000000000000000000000000000081526004016128c490613919565b60405180910390fd5b505050565b600080823b905060008111915050919050565b600073ffffffffffffffffffffffffffffffffffffffff168273ffffffffffffffffffffffffffffffffffffffff161415612955576040517f08c379a000000000000000000000000000000000000000000000000000000000815260040161294c90613a59565b60405180910390fd5b61295e81611e91565b1561299e576040517f08c379a000000000000000000000000000000000000000000000000000000000815260040161299590613959565b60405180910390fd5b6129aa600083836126a7565b6001600360008473ffffffffffffffffffffffffffffffffffffffff1673ffffffffffffffffffffffffffffffffffffffff16815260200190815260200160002060008282546129fa9190613ce1565b92505081905550816002600083815260200190815260200160002060006101000a81548173ffffffffffffffffffffffffffffffffffffffff021916908373ffffffffffffffffffffffffffffffffffffffff160217905550808273ffffffffffffffffffffffffffffffffffffffff16600073ffffffffffffffffffffffffffffffffffffffff167fddf252ad1be2c89b69c2b068fc378daa952ba7f163c4a11628f55a4df523b3ef60405160405180910390a45050565b828054612abf90613eac565b90600052602060002090601f016020900481019282612ae15760008555612b28565b82601f10612afa57805160ff1916838001178555612b28565b82800160010185558215612b28579182015b82811115612b27578251825591602001919060010190612b0c565b5b509050612b359190612b39565b5090565b5b80821115612b52576000816000905550600101612b3a565b5090565b6000612b69612b6484613be5565b613bb4565b905082815260208101848484011115612b8157600080fd5b612b8c848285613e6a565b509392505050565b6000612ba7612ba284613c15565b613bb4565b905082815260208101848484011115612bbf57600080fd5b612bca848285613e6a565b509392505050565b600081359050612be181614025565b92915050565b600081359050612bf68161403c565b92915050565b600081359050612c0b81614053565b92915050565b600081519050612c2081614053565b92915050565b600082601f830112612c3757600080fd5b8135612c47848260208601612b56565b91505092915050565b600082601f830112612c6157600080fd5b8135612c71848260208601612b94565b91505092915050565b600081359050612c898161406a565b92915050565b600060208284031215612ca157600080fd5b6000612caf84828501612bd2565b91505092915050565b60008060408385031215612ccb57600080fd5b6000612cd985828601612bd2565b9250506020612cea85828601612bd2565b9150509250929050565b600080600060608486031215612d0957600080fd5b6000612d1786828701612bd2565b9350506020612d2886828701612bd2565b9250506040612d3986828701612c7a565b9150509250925092565b60008060008060808587031215612d5957600080fd5b6000612d6787828801612bd2565b9450506020612d7887828801612bd2565b9350506040612d8987828801612c7a565b925050606085013567ffffffffffffffff811115612da657600080fd5b612db287828801612c26565b91505092959194509250565b60008060408385031215612dd157600080fd5b6000612ddf85828601612bd2565b9250506020612df085828601612be7565b9150509250929050565b60008060408385031215612e0d57600080fd5b6000612e1b85828601612bd2565b9250506020612e2c85828601612c7a565b9150509250929050565b600060208284031215612e4857600080fd5b6000612e5684828501612be7565b91505092915050565b600060208284031215612e7157600080fd5b6000612e7f84828501612bfc565b91505092915050565b600060208284031215612e9a57600080fd5b6000612ea884828501612c11565b91505092915050565b600060208284031215612ec357600080fd5b600082013567ffffffffffffffff811115612edd57600080fd5b612ee984828501612c50565b91505092915050565b600060208284031215612f0457600080fd5b6000612f1284828501612c7a565b91505092915050565b60008060408385031215612f2e57600080fd5b6000612f3c85828601612c7a565b9250506020612f4d85828601612bd2565b9150509250929050565b6000612f6383836137ef565b60208301905092915050565b612f7881613df6565b82525050565b6000612f8982613c6a565b612f938185613c98565b9350612f9e83613c45565b8060005b83811015612fcf578151612fb68882612f57565b9750612fc183613c8b565b925050600181019050612fa2565b5085935050505092915050565b612fe581613e08565b82525050565b6000612ff682613c75565b6130008185613ca9565b9350613010818560208601613e79565b61301981614014565b840191505092915050565b600061302f82613c80565b6130398185613cc5565b9350613049818560208601613e79565b61305281614014565b840191505092915050565b600061306882613c80565b6130728185613cd6565b9350613082818560208601613e79565b80840191505092915050565b6000815461309b81613eac565b6130a58186613cd6565b945060018216600081146130c057600181146130d157613104565b60ff19831686528186019350613104565b6130da85613c55565b60005b838110156130fc578154818901526001820191506020810190506130dd565b838801955050505b50505092915050565b600061311a603283613cc5565b91507f4552433732313a207472616e7366657220746f206e6f6e20455243373231526560008301527f63656976657220696d706c656d656e74657200000000000000000000000000006020830152604082019050919050565b6000613180602683613cc5565b91507f4f776e61626c653a206e6577206f776e657220697320746865207a65726f206160008301527f64647265737300000000000000000000000000000000000000000000000000006020830152604082019050919050565b60006131e6601c83613cc5565b91507f4552433732313a20746f6b656e20616c7265616479206d696e746564000000006000830152602082019050919050565b6000613226601483613cc5565b91507f496e76616c6964206d696e7420616d6f756e74210000000000000000000000006000830152602082019050919050565b6000613266602483613cc5565b91507f4552433732313a207472616e7366657220746f20746865207a65726f2061646460008301527f72657373000000000000000000000000000000000000000000000000000000006020830152604082019050919050565b60006132cc601983613cc5565b91507f4552433732313a20617070726f766520746f2063616c6c6572000000000000006000830152602082019050919050565b600061330c602c83613cc5565b91507f4552433732313a206f70657261746f7220717565727920666f72206e6f6e657860008301527f697374656e7420746f6b656e00000000000000000000000000000000000000006020830152604082019050919050565b6000613372603883613cc5565b91507f4552433732313a20617070726f76652063616c6c6572206973206e6f74206f7760008301527f6e6572206e6f7220617070726f76656420666f7220616c6c00000000000000006020830152604082019050919050565b60006133d8602a83613cc5565b91507f4552433732313a2062616c616e636520717565727920666f7220746865207a6560008301527f726f2061646472657373000000000000000000000000000000000000000000006020830152604082019050919050565b600061343e602983613cc5565b91507f4552433732313a206f776e657220717565727920666f72206e6f6e657869737460008301527f656e7420746f6b656e00000000000000000000000000000000000000000000006020830152604082019050919050565b60006134a4602083613cc5565b91507f4552433732313a206d696e7420746f20746865207a65726f20616464726573736000830152602082019050919050565b60006134e4602c83613cc5565b91507f4552433732313a20617070726f76656420717565727920666f72206e6f6e657860008301527f697374656e7420746f6b656e00000000000000000000000000000000000000006020830152604082019050919050565b600061354a602083613cc5565b91507f4f776e61626c653a2063616c6c6572206973206e6f7420746865206f776e65726000830152602082019050919050565b600061358a601783613cc5565b91507f54686520636f6e747261637420697320706175736564210000000000000000006000830152602082019050919050565b60006135ca602983613cc5565b91507f4552433732313a207472616e73666572206f6620746f6b656e2074686174206960008301527f73206e6f74206f776e00000000000000000000000000000000000000000000006020830152604082019050919050565b6000613630602f83613cc5565b91507f4552433732314d657461646174613a2055524920717565727920666f72206e6f60008301527f6e6578697374656e7420746f6b656e00000000000000000000000000000000006020830152604082019050919050565b6000613696602183613cc5565b91507f4552433732313a20617070726f76616c20746f2063757272656e74206f776e6560008301527f72000000000000000000000000000000000000000000000000000000000000006020830152604082019050919050565b60006136fc600083613cba565b9150600082019050919050565b6000613716601483613cc5565b91507f4d617820737570706c79206578636565646564210000000000000000000000006000830152602082019050919050565b6000613756603183613cc5565b91507f4552433732313a207472616e736665722063616c6c6572206973206e6f74206f60008301527f776e6572206e6f7220617070726f7665640000000000000000000000000000006020830152604082019050919050565b60006137bc601383613cc5565b91507f496e73756666696369656e742066756e647321000000000000000000000000006000830152602082019050919050565b6137f881613e60565b82525050565b61380781613e60565b82525050565b6000613819828661305d565b9150613825828561305d565b9150613831828461308e565b9150819050949350505050565b6000613849826136ef565b9150819050919050565b60006020820190506138686000830184612f6f565b92915050565b60006080820190506138836000830187612f6f565b6138906020830186612f6f565b61389d60408301856137fe565b81810360608301526138af8184612feb565b905095945050505050565b600060208201905081810360008301526138d48184612f7e565b905092915050565b60006020820190506138f16000830184612fdc565b92915050565b600060208201905081810360008301526139118184613024565b905092915050565b600060208201905081810360008301526139328161310d565b9050919050565b6000602082019050818103600083015261395281613173565b9050919050565b60006020820190508181036000830152613972816131d9565b9050919050565b6000602082019050818103600083015261399281613219565b9050919050565b600060208201905081810360008301526139b281613259565b9050919050565b600060208201905081810360008301526139d2816132bf565b9050919050565b600060208201905081810360008301526139f2816132ff565b9050919050565b60006020820190508181036000830152613a1281613365565b9050919050565b60006020820190508181036000830152613a32816133cb565b9050919050565b60006020820190508181036000830152613a5281613431565b9050919050565b60006020820190508181036000830152613a7281613497565b9050919050565b60006020820190508181036000830152613a92816134d7565b9050919050565b60006020820190508181036000830152613ab28161353d565b9050919050565b60006020820190508181036000830152613ad28161357d565b9050919050565b60006020820190508181036000830152613af2816135bd565b9050919050565b60006020820190508181036000830152613b1281613623565b9050919050565b60006020820190508181036000830152613b3281613689565b9050919050565b60006020820190508181036000830152613b5281613709565b9050919050565b60006020820190508181036000830152613b7281613749565b9050919050565b60006020820190508181036000830152613b92816137af565b9050919050565b6000602082019050613bae60008301846137fe565b92915050565b6000604051905081810181811067ffffffffffffffff82111715613bdb57613bda613fe5565b5b8060405250919050565b600067ffffffffffffffff821115613c0057613bff613fe5565b5b601f19601f8301169050602081019050919050565b600067ffffffffffffffff821115613c3057613c2f613fe5565b5b601f19601f8301169050602081019050919050565b6000819050602082019050919050565b60008190508160005260206000209050919050565b600081519050919050565b600081519050919050565b600081519050919050565b6000602082019050919050565b600082825260208201905092915050565b600082825260208201905092915050565b600081905092915050565b600082825260208201905092915050565b600081905092915050565b6000613cec82613e60565b9150613cf783613e60565b9250827fffffffffffffffffffffffffffffffffffffffffffffffffffffffffffffffff03821115613d2c57613d2b613f58565b5b828201905092915050565b6000613d4282613e60565b9150613d4d83613e60565b925082613d5d57613d5c613f87565b5b828204905092915050565b6000613d7382613e60565b9150613d7e83613e60565b9250817fffffffffffffffffffffffffffffffffffffffffffffffffffffffffffffffff0483118215151615613db757613db6613f58565b5b828202905092915050565b6000613dcd82613e60565b9150613dd883613e60565b925082821015613deb57613dea613f58565b5b828203905092915050565b6000613e0182613e40565b9050919050565b60008115159050919050565b60007fffffffff0000000000000000000000000000000000000000000000000000000082169050919050565b600073ffffffffffffffffffffffffffffffffffffffff82169050919050565b6000819050919050565b82818337600083830152505050565b60005b83811015613e97578082015181840152602081019050613e7c565b83811115613ea6576000848401525b50505050565b60006002820490506001821680613ec457607f821691505b60208210811415613ed857613ed7613fb6565b5b50919050565b6000613ee982613e60565b91507fffffffffffffffffffffffffffffffffffffffffffffffffffffffffffffffff821415613f1c57613f1b613f58565b5b600182019050919050565b6000613f3282613e60565b9150613f3d83613e60565b925082613f4d57613f4c613f87565b5b828206905092915050565b7f4e487b7100000000000000000000000000000000000000000000000000000000600052601160045260246000fd5b7f4e487b7100000000000000000000000000000000000000000000000000000000600052601260045260246000fd5b7f4e487b7100000000000000000000000000000000000000000000000000000000600052602260045260246000fd5b7f4e487b7100000000000000000000000000000000000000000000000000000000600052604160045260246000fd5b6000601f19601f8301169050919050565b61402e81613df6565b811461403957600080fd5b50565b61404581613e08565b811461405057600080fd5b50565b61405c81613e14565b811461406757600080fd5b50565b61407381613e60565b811461407e57600080fd5b5056fea2646970667358221220f0b260ef4c018830c20f81d19f8787448f17ed8a058ddc7c6856e5b791092adf64736f6c63430008000033",
  "linkReferences": {},
  "deployedLinkReferences": {}
}