{
  "_format": "hh-sol-artifact-1",
  "contractName": "KMBContract",
  "sourceName": "contracts/KMBContract.sol",
  "abi": [
    {
      "inputs": [
        {
          "internalType": "string",
          "name": "_uriPrefix",
          "type": "string"
        },
        {
          "internalType": "string",
          "name": "_hiddenMetadataUri",
          "type": "string"
        }
      ],
      "stateMutability": "nonpayable",
      "type": "constructor"
    },
    {
      "anonymous": false,
      "inputs": [
        {
          "indexed": true,
          "internalType": "address",
          "name": "owner",
          "type": "address"
        },
        {
          "indexed": true,
          "internalType": "address",
          "name": "approved",
          "type": "address"
        },
        {
          "indexed": true,
          "internalType": "uint256",
          "name": "tokenId",
          "type": "uint256"
        }
      ],
      "name": "Approval",
      "type": "event"
    },
    {
      "anonymous": false,
      "inputs": [
        {
          "indexed": true,
          "internalType": "address",
          "name": "owner",
          "type": "address"
        },
        {
          "indexed": true,
          "internalType": "address",
          "name": "operator",
          "type": "address"
        },
        {
          "indexed": false,
          "internalType": "bool",
          "name": "approved",
          "type": "bool"
        }
      ],
      "name": "ApprovalForAll",
      "type": "event"
    },
    {
      "anonymous": false,
      "inputs": [
        {
          "indexed": true,
          "internalType": "address",
          "name": "previousOwner",
          "type": "address"
        },
        {
          "indexed": true,
          "internalType": "address",
          "name": "newOwner",
          "type": "address"
        }
      ],
      "name": "OwnershipTransferred",
      "type": "event"
    },
    {
      "anonymous": false,
      "inputs": [
        {
          "indexed": true,
          "internalType": "address",
          "name": "from",
          "type": "address"
        },
        {
          "indexed": true,
          "internalType": "address",
          "name": "to",
          "type": "address"
        },
        {
          "indexed": true,
          "internalType": "uint256",
          "name": "tokenId",
          "type": "uint256"
        }
      ],
      "name": "Transfer",
      "type": "event"
    },
    {
      "inputs": [
        {
          "internalType": "address",
          "name": "to",
          "type": "address"
        },
        {
          "internalType": "uint256",
          "name": "tokenId",
          "type": "uint256"
        }
      ],
      "name": "approve",
      "outputs": [],
      "stateMutability": "nonpayable",
      "type": "function"
    },
    {
      "inputs": [
        {
          "internalType": "address",
          "name": "owner",
          "type": "address"
        }
      ],
      "name": "balanceOf",
      "outputs": [
        {
          "internalType": "uint256",
          "name": "",
          "type": "uint256"
        }
      ],
      "stateMutability": "view",
      "type": "function"
    },
    {
      "inputs": [],
      "name": "cost",
      "outputs": [
        {
          "internalType": "uint256",
          "name": "",
          "type": "uint256"
        }
      ],
      "stateMutability": "view",
      "type": "function"
    },
    {
      "inputs": [
        {
          "internalType": "uint256",
          "name": "tokenId",
          "type": "uint256"
        }
      ],
      "name": "getApproved",
      "outputs": [
        {
          "internalType": "address",
          "name": "",
          "type": "address"
        }
      ],
      "stateMutability": "view",
      "type": "function"
    },
    {
      "inputs": [],
      "name": "getBalance",
      "outputs": [
        {
          "internalType": "uint256",
          "name": "",
          "type": "uint256"
        }
      ],
      "stateMutability": "view",
      "type": "function"
    },
    {
      "inputs": [],
      "name": "hiddenMetadataUri",
      "outputs": [
        {
          "internalType": "string",
          "name": "",
          "type": "string"
        }
      ],
      "stateMutability": "view",
      "type": "function"
    },
    {
      "inputs": [
        {
          "internalType": "address",
          "name": "owner",
          "type": "address"
        },
        {
          "internalType": "address",
          "name": "operator",
          "type": "address"
        }
      ],
      "name": "isApprovedForAll",
      "outputs": [
        {
          "internalType": "bool",
          "name": "",
          "type": "bool"
        }
      ],
      "stateMutability": "view",
      "type": "function"
    },
    {
      "inputs": [],
      "name": "maxMintAmountPerTx",
      "outputs": [
        {
          "internalType": "uint256",
          "name": "",
          "type": "uint256"
        }
      ],
      "stateMutability": "view",
      "type": "function"
    },
    {
      "inputs": [],
      "name": "maxSupply",
      "outputs": [
        {
          "internalType": "uint256",
          "name": "",
          "type": "uint256"
        }
      ],
      "stateMutability": "view",
      "type": "function"
    },
    {
      "inputs": [
        {
          "internalType": "uint256",
          "name": "_mintAmount",
          "type": "uint256"
        }
      ],
      "name": "mint",
      "outputs": [],
      "stateMutability": "payable",
      "type": "function"
    },
    {
      "inputs": [
        {
          "internalType": "uint256",
          "name": "_mintAmount",
          "type": "uint256"
        },
        {
          "internalType": "address",
          "name": "_receiver",
          "type": "address"
        }
      ],
      "name": "mintForAddress",
      "outputs": [],
      "stateMutability": "nonpayable",
      "type": "function"
    },
    {
      "inputs": [],
      "name": "name",
      "outputs": [
        {
          "internalType": "string",
          "name": "",
          "type": "string"
        }
      ],
      "stateMutability": "view",
      "type": "function"
    },
    {
      "inputs": [],
      "name": "owner",
      "outputs": [
        {
          "internalType": "address",
          "name": "",
          "type": "address"
        }
      ],
      "stateMutability": "view",
      "type": "function"
    },
    {
      "inputs": [
        {
          "internalType": "uint256",
          "name": "tokenId",
          "type": "uint256"
        }
      ],
      "name": "ownerOf",
      "outputs": [
        {
          "internalType": "address",
          "name": "",
          "type": "address"
        }
      ],
      "stateMutability": "view",
      "type": "function"
    },
    {
      "inputs": [],
      "name": "paused",
      "outputs": [
        {
          "internalType": "bool",
          "name": "",
          "type": "bool"
        }
      ],
      "stateMutability": "view",
      "type": "function"
    },
    {
      "inputs": [],
      "name": "renounceOwnership",
      "outputs": [],
      "stateMutability": "nonpayable",
      "type": "function"
    },
    {
      "inputs": [],
      "name": "revealed",
      "outputs": [
        {
          "internalType": "bool",
          "name": "",
          "type": "bool"
        }
      ],
      "stateMutability": "view",
      "type": "function"
    },
    {
      "inputs": [
        {
          "internalType": "address",
          "name": "from",
          "type": "address"
        },
        {
          "internalType": "address",
          "name": "to",
          "type": "address"
        },
        {
          "internalType": "uint256",
          "name": "tokenId",
          "type": "uint256"
        }
      ],
      "name": "safeTransferFrom",
      "outputs": [],
      "stateMutability": "nonpayable",
      "type": "function"
    },
    {
      "inputs": [
        {
          "internalType": "address",
          "name": "from",
          "type": "address"
        },
        {
          "internalType": "address",
          "name": "to",
          "type": "address"
        },
        {
          "internalType": "uint256",
          "name": "tokenId",
          "type": "uint256"
        },
        {
          "internalType": "bytes",
          "name": "_data",
          "type": "bytes"
        }
      ],
      "name": "safeTransferFrom",
      "outputs": [],
      "stateMutability": "nonpayable",
      "type": "function"
    },
    {
      "inputs": [
        {
          "internalType": "address",
          "name": "operator",
          "type": "address"
        },
        {
          "internalType": "bool",
          "name": "approved",
          "type": "bool"
        }
      ],
      "name": "setApprovalForAll",
      "outputs": [],
      "stateMutability": "nonpayable",
      "type": "function"
    },
    {
      "inputs": [
        {
          "internalType": "uint256",
          "name": "_cost",
          "type": "uint256"
        }
      ],
      "name": "setCost",
      "outputs": [],
      "stateMutability": "nonpayable",
      "type": "function"
    },
    {
      "inputs": [
        {
          "internalType": "string",
          "name": "_hiddenMetadataUri",
          "type": "string"
        }
      ],
      "name": "setHiddenMetadataUri",
      "outputs": [],
      "stateMutability": "nonpayable",
      "type": "function"
    },
    {
      "inputs": [
        {
          "internalType": "uint256",
          "name": "_maxMintAmountPerTx",
          "type": "uint256"
        }
      ],
      "name": "setMaxMintAmountPerTx",
      "outputs": [],
      "stateMutability": "nonpayable",
      "type": "function"
    },
    {
      "inputs": [
        {
          "internalType": "bool",
          "name": "_state",
          "type": "bool"
        }
      ],
      "name": "setPaused",
      "outputs": [],
      "stateMutability": "nonpayable",
      "type": "function"
    },
    {
      "inputs": [
        {
          "internalType": "bool",
          "name": "_state",
          "type": "bool"
        }
      ],
      "name": "setRevealed",
      "outputs": [],
      "stateMutability": "nonpayable",
      "type": "function"
    },
    {
      "inputs": [
        {
          "internalType": "string",
          "name": "_uriPrefix",
          "type": "string"
        }
      ],
      "name": "setUriPrefix",
      "outputs": [],
      "stateMutability": "nonpayable",
      "type": "function"
    },
    {
      "inputs": [
        {
          "internalType": "string",
          "name": "_uriSuffix",
          "type": "string"
        }
      ],
      "name": "setUriSuffix",
      "outputs": [],
      "stateMutability": "nonpayable",
      "type": "function"
    },
    {
      "inputs": [
        {
          "internalType": "bytes4",
          "name": "interfaceId",
          "type": "bytes4"
        }
      ],
      "name": "supportsInterface",
      "outputs": [
        {
          "internalType": "bool",
          "name": "",
          "type": "bool"
        }
      ],
      "stateMutability": "view",
      "type": "function"
    },
    {
      "inputs": [],
      "name": "symbol",
      "outputs": [
        {
          "internalType": "string",
          "name": "",
          "type": "string"
        }
      ],
      "stateMutability": "view",
      "type": "function"
    },
    {
      "inputs": [
        {
          "internalType": "uint256",
          "name": "_tokenId",
          "type": "uint256"
        }
      ],
      "name": "tokenURI",
      "outputs": [
        {
          "internalType": "string",
          "name": "",
          "type": "string"
        }
      ],
      "stateMutability": "view",
      "type": "function"
    },
    {
      "inputs": [],
      "name": "totalSupply",
      "outputs": [
        {
          "internalType": "uint256",
          "name": "",
          "type": "uint256"
        }
      ],
      "stateMutability": "view",
      "type": "function"
    },
    {
      "inputs": [
        {
          "internalType": "address",
          "name": "from",
          "type": "address"
        },
        {
          "internalType": "address",
          "name": "to",
          "type": "address"
        },
        {
          "internalType": "uint256",
          "name": "tokenId",
          "type": "uint256"
        }
      ],
      "name": "transferFrom",
      "outputs": [],
      "stateMutability": "nonpayable",
      "type": "function"
    },
    {
      "inputs": [
        {
          "internalType": "address",
          "name": "newOwner",
          "type": "address"
        }
      ],
      "name": "transferOwnership",
      "outputs": [],
      "stateMutability": "nonpayable",
      "type": "function"
    },
    {
      "inputs": [],
      "name": "uriPrefix",
      "outputs": [
        {
          "internalType": "string",
          "name": "",
          "type": "string"
        }
      ],
      "stateMutability": "view",
      "type": "function"
    },
    {
      "inputs": [],
      "name": "uriSuffix",
      "outputs": [
        {
          "internalType": "string",
          "name": "",
          "type": "string"
        }
      ],
      "stateMutability": "view",
      "type": "function"
    },
    {
      "inputs": [
        {
          "internalType": "address",
          "name": "_owner",
          "type": "address"
        }
      ],
      "name": "walletOfOwner",
      "outputs": [
        {
          "internalType": "uint256[]",
          "name": "",
          "type": "uint256[]"
        }
      ],
      "stateMutability": "view",
      "type": "function"
    },
    {
      "inputs": [],
      "name": "withdraw",
      "outputs": [],
      "stateMutability": "nonpayable",
      "type": "function"
    }
  ],
  "bytecode": "0x608060405260405180602001604052806000815250600890805190602001906200002b92919062000431565b506040518060400160405280600581526020017f2e6a736f6e000000000000000000000000000000000000000000000000000000815250600990805190602001906200007992919062000431565b50662386f26fc10000600b5561115c600c556005600d556001600e60006101000a81548160ff0219169083151502179055506000600e60016101000a81548160ff021916908315150217905550348015620000d357600080fd5b50604051620048f4380380620048f48339818101604052810190620000f9919062000553565b6040518060400160405280600f81526020017f4b4d4220767320566c6164696d697200000000000000000000000000000000008152506040518060400160405280600381526020017f4b4d42000000000000000000000000000000000000000000000000000000000081525081600090805190602001906200017d92919062000431565b5080600190805190602001906200019692919062000431565b505050620001b9620001ad620001e360201b60201c565b620001eb60201b60201c565b620001ca82620002b160201b60201c565b620001db816200035c60201b60201c565b50506200076c565b600033905090565b6000600660009054906101000a900473ffffffffffffffffffffffffffffffffffffffff16905081600660006101000a81548173ffffffffffffffffffffffffffffffffffffffff021916908373ffffffffffffffffffffffffffffffffffffffff1602179055508173ffffffffffffffffffffffffffffffffffffffff168173ffffffffffffffffffffffffffffffffffffffff167f8be0079c531659141344cd1fd0a4f28419497f9722a3daafe3b4186f6b6457e060405160405180910390a35050565b620002c1620001e360201b60201c565b73ffffffffffffffffffffffffffffffffffffffff16620002e76200040760201b60201c565b73ffffffffffffffffffffffffffffffffffffffff161462000340576040517f08c379a0000000000000000000000000000000000000000000000000000000008152600401620003379062000608565b60405180910390fd5b80600890805190602001906200035892919062000431565b5050565b6200036c620001e360201b60201c565b73ffffffffffffffffffffffffffffffffffffffff16620003926200040760201b60201c565b73ffffffffffffffffffffffffffffffffffffffff1614620003eb576040517f08c379a0000000000000000000000000000000000000000000000000000000008152600401620003e29062000608565b60405180910390fd5b80600a90805190602001906200040392919062000431565b5050565b6000600660009054906101000a900473ffffffffffffffffffffffffffffffffffffffff16905090565b8280546200043f90620006d8565b90600052602060002090601f016020900481019282620004635760008555620004af565b82601f106200047e57805160ff1916838001178555620004af565b82800160010185558215620004af579182015b82811115620004ae57825182559160200191906001019062000491565b5b509050620004be9190620004c2565b5090565b5b80821115620004dd576000816000905550600101620004c3565b5090565b6000620004f8620004f2846200065e565b6200062a565b9050828152602081018484840111156200051157600080fd5b6200051e848285620006a2565b509392505050565b600082601f8301126200053857600080fd5b81516200054a848260208601620004e1565b91505092915050565b600080604083850312156200056757600080fd5b600083015167ffffffffffffffff8111156200058257600080fd5b620005908582860162000526565b925050602083015167ffffffffffffffff811115620005ae57600080fd5b620005bc8582860162000526565b9150509250929050565b6000620005d560208362000691565b91507f4f776e61626c653a2063616c6c6572206973206e6f7420746865206f776e65726000830152602082019050919050565b600060208201905081810360008301526200062381620005c6565b9050919050565b6000604051905081810181811067ffffffffffffffff821117156200065457620006536200073d565b5b8060405250919050565b600067ffffffffffffffff8211156200067c576200067b6200073d565b5b601f19601f8301169050602081019050919050565b600082825260208201905092915050565b60005b83811015620006c2578082015181840152602081019050620006a5565b83811115620006d2576000848401525b50505050565b60006002820490506001821680620006f157607f821691505b602082108114156200070857620007076200070e565b5b50919050565b7f4e487b7100000000000000000000000000000000000000000000000000000000600052602260045260246000fd5b7f4e487b7100000000000000000000000000000000000000000000000000000000600052604160045260246000fd5b614178806200077c6000396000f3fe60806040526004361061021a5760003560e01c806362b99ad411610123578063a22cb465116100ab578063d5abeb011161006f578063d5abeb011461079e578063e0a80853146107c9578063e985e9c5146107f2578063efbd73f41461082f578063f2fde38b146108585761021a565b8063a22cb465146106bb578063a45ba8e7146106e4578063b071401b1461070f578063b88d4fde14610738578063c87b56dd146107615761021a565b80637ec4a659116100f25780637ec4a659146105f55780638da5cb5b1461061e57806394354fd01461064957806395d89b4114610674578063a0712d681461069f5761021a565b806362b99ad4146105395780636352211e1461056457806370a08231146105a1578063715018a6146105de5761021a565b806323b872dd116101a657806344a0d68a1161017557806344a0d68a146104665780634fdd43cb1461048f57806351830227146104b85780635503a0e8146104e35780635c975abb1461050e5761021a565b806323b872dd146103c05780633ccfd60b146103e957806342842e0e14610400578063438b6300146104295761021a565b806312065fe0116101ed57806312065fe0146102ed57806313faede61461031857806316ba10e01461034357806316c38b3c1461036c57806318160ddd146103955761021a565b806301ffc9a71461021f57806306fdde031461025c578063081812fc14610287578063095ea7b3146102c4575b600080fd5b34801561022b57600080fd5b5061024660048036038101906102419190612ee6565b610881565b604051610253919061397d565b60405180910390f35b34801561026857600080fd5b50610271610963565b60405161027e9190613998565b60405180910390f35b34801561029357600080fd5b506102ae60048036038101906102a99190612f79565b6109f5565b6040516102bb91906138f4565b60405180910390f35b3480156102d057600080fd5b506102eb60048036038101906102e69190612e81565b610a7a565b005b3480156102f957600080fd5b50610302610b92565b60405161030f9190613c5a565b60405180910390f35b34801561032457600080fd5b5061032d610b9a565b60405161033a9190613c5a565b60405180910390f35b34801561034f57600080fd5b5061036a60048036038101906103659190612f38565b610ba0565b005b34801561037857600080fd5b50610393600480360381019061038e9190612ebd565b610c36565b005b3480156103a157600080fd5b506103aa610ccf565b6040516103b79190613c5a565b60405180910390f35b3480156103cc57600080fd5b506103e760048036038101906103e29190612d7b565b610ce0565b005b3480156103f557600080fd5b506103fe610d40565b005b34801561040c57600080fd5b5061042760048036038101906104229190612d7b565b610e85565b005b34801561043557600080fd5b50610450600480360381019061044b9190612d16565b610ea5565b60405161045d919061395b565b60405180910390f35b34801561047257600080fd5b5061048d60048036038101906104889190612f79565b610ffc565b005b34801561049b57600080fd5b506104b660048036038101906104b19190612f38565b611082565b005b3480156104c457600080fd5b506104cd611118565b6040516104da919061397d565b60405180910390f35b3480156104ef57600080fd5b506104f861112b565b6040516105059190613998565b60405180910390f35b34801561051a57600080fd5b506105236111b9565b604051610530919061397d565b60405180910390f35b34801561054557600080fd5b5061054e6111cc565b60405161055b9190613998565b60405180910390f35b34801561057057600080fd5b5061058b60048036038101906105869190612f79565b61125a565b60405161059891906138f4565b60405180910390f35b3480156105ad57600080fd5b506105c860048036038101906105c39190612d16565b61130c565b6040516105d59190613c5a565b60405180910390f35b3480156105ea57600080fd5b506105f36113c4565b005b34801561060157600080fd5b5061061c60048036038101906106179190612f38565b61144c565b005b34801561062a57600080fd5b506106336114e2565b60405161064091906138f4565b60405180910390f35b34801561065557600080fd5b5061065e61150c565b60405161066b9190613c5a565b60405180910390f35b34801561068057600080fd5b50610689611512565b6040516106969190613998565b60405180910390f35b6106b960048036038101906106b49190612f79565b6115a4565b005b3480156106c757600080fd5b506106e260048036038101906106dd9190612e45565b6116fd565b005b3480156106f057600080fd5b506106f961187e565b6040516107069190613998565b60405180910390f35b34801561071b57600080fd5b5061073660048036038101906107319190612f79565b61190c565b005b34801561074457600080fd5b5061075f600480360381019061075a9190612dca565b611992565b005b34801561076d57600080fd5b5061078860048036038101906107839190612f79565b6119f4565b6040516107959190613998565b60405180910390f35b3480156107aa57600080fd5b506107b3611b4d565b6040516107c09190613c5a565b60405180910390f35b3480156107d557600080fd5b506107f060048036038101906107eb9190612ebd565b611b53565b005b3480156107fe57600080fd5b5061081960048036038101906108149190612d3f565b611bec565b604051610826919061397d565b60405180910390f35b34801561083b57600080fd5b5061085660048036038101906108519190612fa2565b611c80565b005b34801561086457600080fd5b5061087f600480360381019061087a9190612d16565b611db6565b005b60007f80ac58cd000000000000000000000000000000000000000000000000000000007bffffffffffffffffffffffffffffffffffffffffffffffffffffffff1916827bffffffffffffffffffffffffffffffffffffffffffffffffffffffff1916148061094c57507f5b5e139f000000000000000000000000000000000000000000000000000000007bffffffffffffffffffffffffffffffffffffffffffffffffffffffff1916827bffffffffffffffffffffffffffffffffffffffffffffffffffffffff1916145b8061095c575061095b82611eae565b5b9050919050565b60606000805461097290613f6d565b80601f016020809104026020016040519081016040528092919081815260200182805461099e90613f6d565b80156109eb5780601f106109c0576101008083540402835291602001916109eb565b820191906000526020600020905b8154815290600101906020018083116109ce57829003601f168201915b5050505050905090565b6000610a0082611f18565b610a3f576040517f08c379a0000000000000000000000000000000000000000000000000000000008152600401610a3690613b5a565b60405180910390fd5b6004600083815260200190815260200160002060009054906101000a900473ffffffffffffffffffffffffffffffffffffffff169050919050565b6000610a858261125a565b90508073ffffffffffffffffffffffffffffffffffffffff168373ffffffffffffffffffffffffffffffffffffffff161415610af6576040517f08c379a0000000000000000000000000000000000000000000000000000000008152600401610aed90613bda565b60405180910390fd5b8073ffffffffffffffffffffffffffffffffffffffff16610b15611f84565b73ffffffffffffffffffffffffffffffffffffffff161480610b445750610b4381610b3e611f84565b611bec565b5b610b83576040517f08c379a0000000000000000000000000000000000000000000000000000000008152600401610b7a90613ada565b60405180910390fd5b610b8d8383611f8c565b505050565b600047905090565b600b5481565b610ba8611f84565b73ffffffffffffffffffffffffffffffffffffffff16610bc66114e2565b73ffffffffffffffffffffffffffffffffffffffff1614610c1c576040517f08c379a0000000000000000000000000000000000000000000000000000000008152600401610c1390613b7a565b60405180910390fd5b8060099080519060200190610c32929190612b3a565b5050565b610c3e611f84565b73ffffffffffffffffffffffffffffffffffffffff16610c5c6114e2565b73ffffffffffffffffffffffffffffffffffffffff1614610cb2576040517f08c379a0000000000000000000000000000000000000000000000000000000008152600401610ca990613b7a565b60405180910390fd5b80600e60006101000a81548160ff02191690831515021790555050565b6000610cdb6007612045565b905090565b610cf1610ceb611f84565b82612053565b610d30576040517f08c379a0000000000000000000000000000000000000000000000000000000008152600401610d2790613c1a565b60405180910390fd5b610d3b838383612131565b505050565b610d48611f84565b73ffffffffffffffffffffffffffffffffffffffff16610d666114e2565b73ffffffffffffffffffffffffffffffffffffffff1614610dbc576040517f08c379a0000000000000000000000000000000000000000000000000000000008152600401610db390613b7a565b60405180910390fd5b6000479050600073633b7218644b83d57d90e7299039ebab19698e9c73ffffffffffffffffffffffffffffffffffffffff1682604051610dfb906138df565b60006040518083038185875af1925050503d8060008114610e38576040519150601f19603f3d011682016040523d82523d6000602084013e610e3d565b606091505b5050905080610e81576040517f08c379a0000000000000000000000000000000000000000000000000000000008152600401610e7890613a5a565b60405180910390fd5b5050565b610ea083838360405180602001604052806000815250611992565b505050565b60606000610eb28361130c565b905060008167ffffffffffffffff811115610ef6577f4e487b7100000000000000000000000000000000000000000000000000000000600052604160045260246000fd5b604051908082528060200260200182016040528015610f245781602001602082028036833780820191505090505b50905060006001905060005b8381108015610f415750600c548211155b15610ff0576000610f518361125a565b90508673ffffffffffffffffffffffffffffffffffffffff168173ffffffffffffffffffffffffffffffffffffffff161415610fdc5782848381518110610fc1577f4e487b7100000000000000000000000000000000000000000000000000000000600052603260045260246000fd5b6020026020010181815250508180610fd890613f9f565b9250505b8280610fe790613f9f565b93505050610f30565b82945050505050919050565b611004611f84565b73ffffffffffffffffffffffffffffffffffffffff166110226114e2565b73ffffffffffffffffffffffffffffffffffffffff1614611078576040517f08c379a000000000000000000000000000000000000000000000000000000000815260040161106f90613b7a565b60405180910390fd5b80600b8190555050565b61108a611f84565b73ffffffffffffffffffffffffffffffffffffffff166110a86114e2565b73ffffffffffffffffffffffffffffffffffffffff16146110fe576040517f08c379a00000000000000000000000000000000000000000000000000000000081526004016110f590613b7a565b60405180910390fd5b80600a9080519060200190611114929190612b3a565b5050565b600e60019054906101000a900460ff1681565b6009805461113890613f6d565b80601f016020809104026020016040519081016040528092919081815260200182805461116490613f6d565b80156111b15780601f10611186576101008083540402835291602001916111b1565b820191906000526020600020905b81548152906001019060200180831161119457829003601f168201915b505050505081565b600e60009054906101000a900460ff1681565b600880546111d990613f6d565b80601f016020809104026020016040519081016040528092919081815260200182805461120590613f6d565b80156112525780601f1061122757610100808354040283529160200191611252565b820191906000526020600020905b81548152906001019060200180831161123557829003601f168201915b505050505081565b6000806002600084815260200190815260200160002060009054906101000a900473ffffffffffffffffffffffffffffffffffffffff169050600073ffffffffffffffffffffffffffffffffffffffff168173ffffffffffffffffffffffffffffffffffffffff161415611303576040517f08c379a00000000000000000000000000000000000000000000000000000000081526004016112fa90613b1a565b60405180910390fd5b80915050919050565b60008073ffffffffffffffffffffffffffffffffffffffff168273ffffffffffffffffffffffffffffffffffffffff16141561137d576040517f08c379a000000000000000000000000000000000000000000000000000000000815260040161137490613afa565b60405180910390fd5b600360008373ffffffffffffffffffffffffffffffffffffffff1673ffffffffffffffffffffffffffffffffffffffff168152602001908152602001600020549050919050565b6113cc611f84565b73ffffffffffffffffffffffffffffffffffffffff166113ea6114e2565b73ffffffffffffffffffffffffffffffffffffffff1614611440576040517f08c379a000000000000000000000000000000000000000000000000000000000815260040161143790613b7a565b60405180910390fd5b61144a600061238d565b565b611454611f84565b73ffffffffffffffffffffffffffffffffffffffff166114726114e2565b73ffffffffffffffffffffffffffffffffffffffff16146114c8576040517f08c379a00000000000000000000000000000000000000000000000000000000081526004016114bf90613b7a565b60405180910390fd5b80600890805190602001906114de929190612b3a565b5050565b6000600660009054906101000a900473ffffffffffffffffffffffffffffffffffffffff16905090565b600d5481565b60606001805461152190613f6d565b80601f016020809104026020016040519081016040528092919081815260200182805461154d90613f6d565b801561159a5780601f1061156f5761010080835404028352916020019161159a565b820191906000526020600020905b81548152906001019060200180831161157d57829003601f168201915b5050505050905090565b806000811180156115b75750600d548111155b6115f6576040517f08c379a00000000000000000000000000000000000000000000000000000000081526004016115ed90613a3a565b60405180910390fd5b600c54816116046007612045565b61160e9190613da2565b111561164f576040517f08c379a000000000000000000000000000000000000000000000000000000000815260040161164690613bfa565b60405180910390fd5b600e60009054906101000a900460ff161561169f576040517f08c379a000000000000000000000000000000000000000000000000000000000815260040161169690613b9a565b60405180910390fd5b81600b546116ad9190613e29565b3410156116ef576040517f08c379a00000000000000000000000000000000000000000000000000000000081526004016116e690613c3a565b60405180910390fd5b6116f93383612453565b5050565b611705611f84565b73ffffffffffffffffffffffffffffffffffffffff168273ffffffffffffffffffffffffffffffffffffffff161415611773576040517f08c379a000000000000000000000000000000000000000000000000000000000815260040161176a90613a9a565b60405180910390fd5b8060056000611780611f84565b73ffffffffffffffffffffffffffffffffffffffff1673ffffffffffffffffffffffffffffffffffffffff16815260200190815260200160002060008473ffffffffffffffffffffffffffffffffffffffff1673ffffffffffffffffffffffffffffffffffffffff16815260200190815260200160002060006101000a81548160ff0219169083151502179055508173ffffffffffffffffffffffffffffffffffffffff1661182d611f84565b73ffffffffffffffffffffffffffffffffffffffff167f17307eab39ab6107e8899845ad3d59bd9653f200f220920489ca2b5937696c3183604051611872919061397d565b60405180910390a35050565b600a805461188b90613f6d565b80601f01602080910402602001604051908101604052809291908181526020018280546118b790613f6d565b80156119045780601f106118d957610100808354040283529160200191611904565b820191906000526020600020905b8154815290600101906020018083116118e757829003601f168201915b505050505081565b611914611f84565b73ffffffffffffffffffffffffffffffffffffffff166119326114e2565b73ffffffffffffffffffffffffffffffffffffffff1614611988576040517f08c379a000000000000000000000000000000000000000000000000000000000815260040161197f90613b7a565b60405180910390fd5b80600d8190555050565b6119a361199d611f84565b83612053565b6119e2576040517f08c379a00000000000000000000000000000000000000000000000000000000081526004016119d990613c1a565b60405180910390fd5b6119ee84848484612493565b50505050565b60606119ff82611f18565b611a3e576040517f08c379a0000000000000000000000000000000000000000000000000000000008152600401611a35906139ba565b60405180910390fd5b60001515600e60019054906101000a900460ff1615151415611aec57600a8054611a6790613f6d565b80601f0160208091040260200160405190810160405280929190818152602001828054611a9390613f6d565b8015611ae05780601f10611ab557610100808354040283529160200191611ae0565b820191906000526020600020905b815481529060010190602001808311611ac357829003601f168201915b50505050509050611b48565b6000611af66124ef565b90506000815111611b165760405180602001604052806000815250611b44565b80611b2084612581565b6009604051602001611b34939291906138ae565b6040516020818303038152906040525b9150505b919050565b600c5481565b611b5b611f84565b73ffffffffffffffffffffffffffffffffffffffff16611b796114e2565b73ffffffffffffffffffffffffffffffffffffffff1614611bcf576040517f08c379a0000000000000000000000000000000000000000000000000000000008152600401611bc690613b7a565b60405180910390fd5b80600e60016101000a81548160ff02191690831515021790555050565b6000600560008473ffffffffffffffffffffffffffffffffffffffff1673ffffffffffffffffffffffffffffffffffffffff16815260200190815260200160002060008373ffffffffffffffffffffffffffffffffffffffff1673ffffffffffffffffffffffffffffffffffffffff16815260200190815260200160002060009054906101000a900460ff16905092915050565b81600081118015611c935750600d548111155b611cd2576040517f08c379a0000000000000000000000000000000000000000000000000000000008152600401611cc990613a3a565b60405180910390fd5b600c5481611ce06007612045565b611cea9190613da2565b1115611d2b576040517f08c379a0000000000000000000000000000000000000000000000000000000008152600401611d2290613bfa565b60405180910390fd5b611d33611f84565b73ffffffffffffffffffffffffffffffffffffffff16611d516114e2565b73ffffffffffffffffffffffffffffffffffffffff1614611da7576040517f08c379a0000000000000000000000000000000000000000000000000000000008152600401611d9e90613b7a565b60405180910390fd5b611db18284612453565b505050565b611dbe611f84565b73ffffffffffffffffffffffffffffffffffffffff16611ddc6114e2565b73ffffffffffffffffffffffffffffffffffffffff1614611e32576040517f08c379a0000000000000000000000000000000000000000000000000000000008152600401611e2990613b7a565b60405180910390fd5b600073ffffffffffffffffffffffffffffffffffffffff168173ffffffffffffffffffffffffffffffffffffffff161415611ea2576040517f08c379a0000000000000000000000000000000000000000000000000000000008152600401611e99906139fa565b60405180910390fd5b611eab8161238d565b50565b60007f01ffc9a7000000000000000000000000000000000000000000000000000000007bffffffffffffffffffffffffffffffffffffffffffffffffffffffff1916827bffffffffffffffffffffffffffffffffffffffffffffffffffffffff1916149050919050565b60008073ffffffffffffffffffffffffffffffffffffffff166002600084815260200190815260200160002060009054906101000a900473ffffffffffffffffffffffffffffffffffffffff1673ffffffffffffffffffffffffffffffffffffffff1614159050919050565b600033905090565b816004600083815260200190815260200160002060006101000a81548173ffffffffffffffffffffffffffffffffffffffff021916908373ffffffffffffffffffffffffffffffffffffffff160217905550808273ffffffffffffffffffffffffffffffffffffffff16611fff8361125a565b73ffffffffffffffffffffffffffffffffffffffff167f8c5be1e5ebec7d5bd14f71427d1e84f3dd0314c0f7b2291e5b200ac8c7c3b92560405160405180910390a45050565b600081600001549050919050565b600061205e82611f18565b61209d576040517f08c379a000000000000000000000000000000000000000000000000000000000815260040161209490613aba565b60405180910390fd5b60006120a88361125a565b90508073ffffffffffffffffffffffffffffffffffffffff168473ffffffffffffffffffffffffffffffffffffffff16148061211757508373ffffffffffffffffffffffffffffffffffffffff166120ff846109f5565b73ffffffffffffffffffffffffffffffffffffffff16145b8061212857506121278185611bec565b5b91505092915050565b8273ffffffffffffffffffffffffffffffffffffffff166121518261125a565b73ffffffffffffffffffffffffffffffffffffffff16146121a7576040517f08c379a000000000000000000000000000000000000000000000000000000000815260040161219e90613bba565b60405180910390fd5b600073ffffffffffffffffffffffffffffffffffffffff168273ffffffffffffffffffffffffffffffffffffffff161415612217576040517f08c379a000000000000000000000000000000000000000000000000000000000815260040161220e90613a7a565b60405180910390fd5b61222283838361272e565b61222d600082611f8c565b6001600360008573ffffffffffffffffffffffffffffffffffffffff1673ffffffffffffffffffffffffffffffffffffffff168152602001908152602001600020600082825461227d9190613e83565b925050819055506001600360008473ffffffffffffffffffffffffffffffffffffffff1673ffffffffffffffffffffffffffffffffffffffff16815260200190815260200160002060008282546122d49190613da2565b92505081905550816002600083815260200190815260200160002060006101000a81548173ffffffffffffffffffffffffffffffffffffffff021916908373ffffffffffffffffffffffffffffffffffffffff160217905550808273ffffffffffffffffffffffffffffffffffffffff168473ffffffffffffffffffffffffffffffffffffffff167fddf252ad1be2c89b69c2b068fc378daa952ba7f163c4a11628f55a4df523b3ef60405160405180910390a4505050565b6000600660009054906101000a900473ffffffffffffffffffffffffffffffffffffffff16905081600660006101000a81548173ffffffffffffffffffffffffffffffffffffffff021916908373ffffffffffffffffffffffffffffffffffffffff1602179055508173ffffffffffffffffffffffffffffffffffffffff168173ffffffffffffffffffffffffffffffffffffffff167f8be0079c531659141344cd1fd0a4f28419497f9722a3daafe3b4186f6b6457e060405160405180910390a35050565b60005b8181101561248e576124686007612733565b61247b836124766007612045565b612749565b808061248690613f9f565b915050612456565b505050565b61249e848484612131565b6124aa84848484612767565b6124e9576040517f08c379a00000000000000000000000000000000000000000000000000000000081526004016124e0906139da565b60405180910390fd5b50505050565b6060600880546124fe90613f6d565b80601f016020809104026020016040519081016040528092919081815260200182805461252a90613f6d565b80156125775780601f1061254c57610100808354040283529160200191612577565b820191906000526020600020905b81548152906001019060200180831161255a57829003601f168201915b5050505050905090565b606060008214156125c9576040518060400160405280600181526020017f30000000000000000000000000000000000000000000000000000000000000008152509050612729565b600082905060005b600082146125fb5780806125e490613f9f565b915050600a826125f49190613df8565b91506125d1565b60008167ffffffffffffffff81111561263d577f4e487b7100000000000000000000000000000000000000000000000000000000600052604160045260246000fd5b6040519080825280601f01601f19166020018201604052801561266f5781602001600182028036833780820191505090505b5090505b60008514612722576001826126889190613e83565b9150600a856126979190613fe8565b60306126a39190613da2565b60f81b8183815181106126df577f4e487b7100000000000000000000000000000000000000000000000000000000600052603260045260246000fd5b60200101907effffffffffffffffffffffffffffffffffffffffffffffffffffffffffffff1916908160001a905350600a8561271b9190613df8565b9450612673565b8093505050505b919050565b505050565b6001816000016000828254019250508190555050565b6127638282604051806020016040528060008152506128fe565b5050565b60006127888473ffffffffffffffffffffffffffffffffffffffff16612959565b156128f1578373ffffffffffffffffffffffffffffffffffffffff1663150b7a026127b1611f84565b8786866040518563ffffffff1660e01b81526004016127d3949392919061390f565b602060405180830381600087803b1580156127ed57600080fd5b505af192505050801561281e57506040513d601f19601f8201168201806040525081019061281b9190612f0f565b60015b6128a1573d806000811461284e576040519150601f19603f3d011682016040523d82523d6000602084013e612853565b606091505b50600081511415612899576040517f08c379a0000000000000000000000000000000000000000000000000000000008152600401612890906139da565b60405180910390fd5b805181602001fd5b63150b7a0260e01b7bffffffffffffffffffffffffffffffffffffffffffffffffffffffff1916817bffffffffffffffffffffffffffffffffffffffffffffffffffffffff1916149150506128f6565b600190505b949350505050565b612908838361296c565b6129156000848484612767565b612954576040517f08c379a000000000000000000000000000000000000000000000000000000000815260040161294b906139da565b60405180910390fd5b505050565b600080823b905060008111915050919050565b600073ffffffffffffffffffffffffffffffffffffffff168273ffffffffffffffffffffffffffffffffffffffff1614156129dc576040517f08c379a00000000000000000000000000000000000000000000000000000000081526004016129d390613b3a565b60405180910390fd5b6129e581611f18565b15612a25576040517f08c379a0000000000000000000000000000000000000000000000000000000008152600401612a1c90613a1a565b60405180910390fd5b612a316000838361272e565b6001600360008473ffffffffffffffffffffffffffffffffffffffff1673ffffffffffffffffffffffffffffffffffffffff1681526020019081526020016000206000828254612a819190613da2565b92505081905550816002600083815260200190815260200160002060006101000a81548173ffffffffffffffffffffffffffffffffffffffff021916908373ffffffffffffffffffffffffffffffffffffffff160217905550808273ffffffffffffffffffffffffffffffffffffffff16600073ffffffffffffffffffffffffffffffffffffffff167fddf252ad1be2c89b69c2b068fc378daa952ba7f163c4a11628f55a4df523b3ef60405160405180910390a45050565b828054612b4690613f6d565b90600052602060002090601f016020900481019282612b685760008555612baf565b82601f10612b8157805160ff1916838001178555612baf565b82800160010185558215612baf579182015b82811115612bae578251825591602001919060010190612b93565b5b509050612bbc9190612bc0565b5090565b5b80821115612bd9576000816000905550600101612bc1565b5090565b6000612bf0612beb84613ca6565b613c75565b905082815260208101848484011115612c0857600080fd5b612c13848285613f2b565b509392505050565b6000612c2e612c2984613cd6565b613c75565b905082815260208101848484011115612c4657600080fd5b612c51848285613f2b565b509392505050565b600081359050612c68816140e6565b92915050565b600081359050612c7d816140fd565b92915050565b600081359050612c9281614114565b92915050565b600081519050612ca781614114565b92915050565b600082601f830112612cbe57600080fd5b8135612cce848260208601612bdd565b91505092915050565b600082601f830112612ce857600080fd5b8135612cf8848260208601612c1b565b91505092915050565b600081359050612d108161412b565b92915050565b600060208284031215612d2857600080fd5b6000612d3684828501612c59565b91505092915050565b60008060408385031215612d5257600080fd5b6000612d6085828601612c59565b9250506020612d7185828601612c59565b9150509250929050565b600080600060608486031215612d9057600080fd5b6000612d9e86828701612c59565b9350506020612daf86828701612c59565b9250506040612dc086828701612d01565b9150509250925092565b60008060008060808587031215612de057600080fd5b6000612dee87828801612c59565b9450506020612dff87828801612c59565b9350506040612e1087828801612d01565b925050606085013567ffffffffffffffff811115612e2d57600080fd5b612e3987828801612cad565b91505092959194509250565b60008060408385031215612e5857600080fd5b6000612e6685828601612c59565b9250506020612e7785828601612c6e565b9150509250929050565b60008060408385031215612e9457600080fd5b6000612ea285828601612c59565b9250506020612eb385828601612d01565b9150509250929050565b600060208284031215612ecf57600080fd5b6000612edd84828501612c6e565b91505092915050565b600060208284031215612ef857600080fd5b6000612f0684828501612c83565b91505092915050565b600060208284031215612f2157600080fd5b6000612f2f84828501612c98565b91505092915050565b600060208284031215612f4a57600080fd5b600082013567ffffffffffffffff811115612f6457600080fd5b612f7084828501612cd7565b91505092915050565b600060208284031215612f8b57600080fd5b6000612f9984828501612d01565b91505092915050565b60008060408385031215612fb557600080fd5b6000612fc385828601612d01565b9250506020612fd485828601612c59565b9150509250929050565b6000612fea8383613890565b60208301905092915050565b612fff81613eb7565b82525050565b600061301082613d2b565b61301a8185613d59565b935061302583613d06565b8060005b8381101561305657815161303d8882612fde565b975061304883613d4c565b925050600181019050613029565b5085935050505092915050565b61306c81613ec9565b82525050565b600061307d82613d36565b6130878185613d6a565b9350613097818560208601613f3a565b6130a0816140d5565b840191505092915050565b60006130b682613d41565b6130c08185613d86565b93506130d0818560208601613f3a565b6130d9816140d5565b840191505092915050565b60006130ef82613d41565b6130f98185613d97565b9350613109818560208601613f3a565b80840191505092915050565b6000815461312281613f6d565b61312c8186613d97565b9450600182166000811461314757600181146131585761318b565b60ff1983168652818601935061318b565b61316185613d16565b60005b8381101561318357815481890152600182019150602081019050613164565b838801955050505b50505092915050565b60006131a1601f83613d86565b91507f55524920717565727920666f72206e6f6e6578697374656e7420746f6b656e006000830152602082019050919050565b60006131e1603283613d86565b91507f4552433732313a207472616e7366657220746f206e6f6e20455243373231526560008301527f63656976657220696d706c656d656e74657200000000000000000000000000006020830152604082019050919050565b6000613247602683613d86565b91507f4f776e61626c653a206e6577206f776e657220697320746865207a65726f206160008301527f64647265737300000000000000000000000000000000000000000000000000006020830152604082019050919050565b60006132ad601c83613d86565b91507f4552433732313a20746f6b656e20616c7265616479206d696e746564000000006000830152602082019050919050565b60006132ed601483613d86565b91507f496e76616c6964206d696e7420616d6f756e74210000000000000000000000006000830152602082019050919050565b600061332d601483613d86565b91507f4661696c656420746f2073656e642045746865720000000000000000000000006000830152602082019050919050565b600061336d602483613d86565b91507f4552433732313a207472616e7366657220746f20746865207a65726f2061646460008301527f72657373000000000000000000000000000000000000000000000000000000006020830152604082019050919050565b60006133d3601983613d86565b91507f4552433732313a20617070726f766520746f2063616c6c6572000000000000006000830152602082019050919050565b6000613413602c83613d86565b91507f4552433732313a206f70657261746f7220717565727920666f72206e6f6e657860008301527f697374656e7420746f6b656e00000000000000000000000000000000000000006020830152604082019050919050565b6000613479603883613d86565b91507f4552433732313a20617070726f76652063616c6c6572206973206e6f74206f7760008301527f6e6572206e6f7220617070726f76656420666f7220616c6c00000000000000006020830152604082019050919050565b60006134df602a83613d86565b91507f4552433732313a2062616c616e636520717565727920666f7220746865207a6560008301527f726f2061646472657373000000000000000000000000000000000000000000006020830152604082019050919050565b6000613545602983613d86565b91507f4552433732313a206f776e657220717565727920666f72206e6f6e657869737460008301527f656e7420746f6b656e00000000000000000000000000000000000000000000006020830152604082019050919050565b60006135ab602083613d86565b91507f4552433732313a206d696e7420746f20746865207a65726f20616464726573736000830152602082019050919050565b60006135eb602c83613d86565b91507f4552433732313a20617070726f76656420717565727920666f72206e6f6e657860008301527f697374656e7420746f6b656e00000000000000000000000000000000000000006020830152604082019050919050565b6000613651602083613d86565b91507f4f776e61626c653a2063616c6c6572206973206e6f7420746865206f776e65726000830152602082019050919050565b6000613691601783613d86565b91507f54686520636f6e747261637420697320706175736564210000000000000000006000830152602082019050919050565b60006136d1602983613d86565b91507f4552433732313a207472616e73666572206f6620746f6b656e2074686174206960008301527f73206e6f74206f776e00000000000000000000000000000000000000000000006020830152604082019050919050565b6000613737602183613d86565b91507f4552433732313a20617070726f76616c20746f2063757272656e74206f776e6560008301527f72000000000000000000000000000000000000000000000000000000000000006020830152604082019050919050565b600061379d600083613d7b565b9150600082019050919050565b60006137b7601483613d86565b91507f4d617820737570706c79206578636565646564210000000000000000000000006000830152602082019050919050565b60006137f7603183613d86565b91507f4552433732313a207472616e736665722063616c6c6572206973206e6f74206f60008301527f776e6572206e6f7220617070726f7665640000000000000000000000000000006020830152604082019050919050565b600061385d601383613d86565b91507f496e73756666696369656e742066756e647321000000000000000000000000006000830152602082019050919050565b61389981613f21565b82525050565b6138a881613f21565b82525050565b60006138ba82866130e4565b91506138c682856130e4565b91506138d28284613115565b9150819050949350505050565b60006138ea82613790565b9150819050919050565b60006020820190506139096000830184612ff6565b92915050565b60006080820190506139246000830187612ff6565b6139316020830186612ff6565b61393e604083018561389f565b81810360608301526139508184613072565b905095945050505050565b600060208201905081810360008301526139758184613005565b905092915050565b60006020820190506139926000830184613063565b92915050565b600060208201905081810360008301526139b281846130ab565b905092915050565b600060208201905081810360008301526139d381613194565b9050919050565b600060208201905081810360008301526139f3816131d4565b9050919050565b60006020820190508181036000830152613a138161323a565b9050919050565b60006020820190508181036000830152613a33816132a0565b9050919050565b60006020820190508181036000830152613a53816132e0565b9050919050565b60006020820190508181036000830152613a7381613320565b9050919050565b60006020820190508181036000830152613a9381613360565b9050919050565b60006020820190508181036000830152613ab3816133c6565b9050919050565b60006020820190508181036000830152613ad381613406565b9050919050565b60006020820190508181036000830152613af38161346c565b9050919050565b60006020820190508181036000830152613b13816134d2565b9050919050565b60006020820190508181036000830152613b3381613538565b9050919050565b60006020820190508181036000830152613b538161359e565b9050919050565b60006020820190508181036000830152613b73816135de565b9050919050565b60006020820190508181036000830152613b9381613644565b9050919050565b60006020820190508181036000830152613bb381613684565b9050919050565b60006020820190508181036000830152613bd3816136c4565b9050919050565b60006020820190508181036000830152613bf38161372a565b9050919050565b60006020820190508181036000830152613c13816137aa565b9050919050565b60006020820190508181036000830152613c33816137ea565b9050919050565b60006020820190508181036000830152613c5381613850565b9050919050565b6000602082019050613c6f600083018461389f565b92915050565b6000604051905081810181811067ffffffffffffffff82111715613c9c57613c9b6140a6565b5b8060405250919050565b600067ffffffffffffffff821115613cc157613cc06140a6565b5b601f19601f8301169050602081019050919050565b600067ffffffffffffffff821115613cf157613cf06140a6565b5b601f19601f8301169050602081019050919050565b6000819050602082019050919050565b60008190508160005260206000209050919050565b600081519050919050565b600081519050919050565b600081519050919050565b6000602082019050919050565b600082825260208201905092915050565b600082825260208201905092915050565b600081905092915050565b600082825260208201905092915050565b600081905092915050565b6000613dad82613f21565b9150613db883613f21565b9250827fffffffffffffffffffffffffffffffffffffffffffffffffffffffffffffffff03821115613ded57613dec614019565b5b828201905092915050565b6000613e0382613f21565b9150613e0e83613f21565b925082613e1e57613e1d614048565b5b828204905092915050565b6000613e3482613f21565b9150613e3f83613f21565b9250817fffffffffffffffffffffffffffffffffffffffffffffffffffffffffffffffff0483118215151615613e7857613e77614019565b5b828202905092915050565b6000613e8e82613f21565b9150613e9983613f21565b925082821015613eac57613eab614019565b5b828203905092915050565b6000613ec282613f01565b9050919050565b60008115159050919050565b60007fffffffff0000000000000000000000000000000000000000000000000000000082169050919050565b600073ffffffffffffffffffffffffffffffffffffffff82169050919050565b6000819050919050565b82818337600083830152505050565b60005b83811015613f58578082015181840152602081019050613f3d565b83811115613f67576000848401525b50505050565b60006002820490506001821680613f8557607f821691505b60208210811415613f9957613f98614077565b5b50919050565b6000613faa82613f21565b91507fffffffffffffffffffffffffffffffffffffffffffffffffffffffffffffffff821415613fdd57613fdc614019565b5b600182019050919050565b6000613ff382613f21565b9150613ffe83613f21565b92508261400e5761400d614048565b5b828206905092915050565b7f4e487b7100000000000000000000000000000000000000000000000000000000600052601160045260246000fd5b7f4e487b7100000000000000000000000000000000000000000000000000000000600052601260045260246000fd5b7f4e487b7100000000000000000000000000000000000000000000000000000000600052602260045260246000fd5b7f4e487b7100000000000000000000000000000000000000000000000000000000600052604160045260246000fd5b6000601f19601f8301169050919050565b6140ef81613eb7565b81146140fa57600080fd5b50565b61410681613ec9565b811461411157600080fd5b50565b61411d81613ed5565b811461412857600080fd5b50565b61413481613f21565b811461413f57600080fd5b5056fea2646970667358221220e0d927736ea3f3a8052f55009bc5649ada3bb0061eb95106fe18617ac80a4bfd64736f6c63430008000033",
  "linkReferences": {},
  "deployedLinkReferences": {}
}