{
  "_format": "hh-sol-artifact-1",
  "contractName": "KMBContract",
  "sourceName": "contracts/KMBContract.sol",
  "abi": [
    {
      "inputs": [
        {
          "internalType": "string",
          "name": "_uriPrefix",
          "type": "string"
        },
        {
          "internalType": "string",
          "name": "_hiddenMetadataUri",
          "type": "string"
        }
      ],
      "stateMutability": "nonpayable",
      "type": "constructor"
    },
    {
      "anonymous": false,
      "inputs": [
        {
          "indexed": true,
          "internalType": "address",
          "name": "owner",
          "type": "address"
        },
        {
          "indexed": true,
          "internalType": "address",
          "name": "approved",
          "type": "address"
        },
        {
          "indexed": true,
          "internalType": "uint256",
          "name": "tokenId",
          "type": "uint256"
        }
      ],
      "name": "Approval",
      "type": "event"
    },
    {
      "anonymous": false,
      "inputs": [
        {
          "indexed": true,
          "internalType": "address",
          "name": "owner",
          "type": "address"
        },
        {
          "indexed": true,
          "internalType": "address",
          "name": "operator",
          "type": "address"
        },
        {
          "indexed": false,
          "internalType": "bool",
          "name": "approved",
          "type": "bool"
        }
      ],
      "name": "ApprovalForAll",
      "type": "event"
    },
    {
      "anonymous": false,
      "inputs": [
        {
          "indexed": true,
          "internalType": "address",
          "name": "previousOwner",
          "type": "address"
        },
        {
          "indexed": true,
          "internalType": "address",
          "name": "newOwner",
          "type": "address"
        }
      ],
      "name": "OwnershipTransferred",
      "type": "event"
    },
    {
      "anonymous": false,
      "inputs": [
        {
          "indexed": true,
          "internalType": "address",
          "name": "from",
          "type": "address"
        },
        {
          "indexed": true,
          "internalType": "address",
          "name": "to",
          "type": "address"
        },
        {
          "indexed": true,
          "internalType": "uint256",
          "name": "tokenId",
          "type": "uint256"
        }
      ],
      "name": "Transfer",
      "type": "event"
    },
    {
      "inputs": [
        {
          "internalType": "address",
          "name": "to",
          "type": "address"
        },
        {
          "internalType": "uint256",
          "name": "tokenId",
          "type": "uint256"
        }
      ],
      "name": "approve",
      "outputs": [],
      "stateMutability": "nonpayable",
      "type": "function"
    },
    {
      "inputs": [
        {
          "internalType": "address",
          "name": "owner",
          "type": "address"
        }
      ],
      "name": "balanceOf",
      "outputs": [
        {
          "internalType": "uint256",
          "name": "",
          "type": "uint256"
        }
      ],
      "stateMutability": "view",
      "type": "function"
    },
    {
      "inputs": [],
      "name": "cost",
      "outputs": [
        {
          "internalType": "uint256",
          "name": "",
          "type": "uint256"
        }
      ],
      "stateMutability": "view",
      "type": "function"
    },
    {
      "inputs": [
        {
          "internalType": "uint256",
          "name": "tokenId",
          "type": "uint256"
        }
      ],
      "name": "getApproved",
      "outputs": [
        {
          "internalType": "address",
          "name": "",
          "type": "address"
        }
      ],
      "stateMutability": "view",
      "type": "function"
    },
    {
      "inputs": [],
      "name": "getBalance",
      "outputs": [
        {
          "internalType": "uint256",
          "name": "",
          "type": "uint256"
        }
      ],
      "stateMutability": "view",
      "type": "function"
    },
    {
      "inputs": [],
      "name": "hiddenMetadataUri",
      "outputs": [
        {
          "internalType": "string",
          "name": "",
          "type": "string"
        }
      ],
      "stateMutability": "view",
      "type": "function"
    },
    {
      "inputs": [
        {
          "internalType": "address",
          "name": "owner",
          "type": "address"
        },
        {
          "internalType": "address",
          "name": "operator",
          "type": "address"
        }
      ],
      "name": "isApprovedForAll",
      "outputs": [
        {
          "internalType": "bool",
          "name": "",
          "type": "bool"
        }
      ],
      "stateMutability": "view",
      "type": "function"
    },
    {
      "inputs": [],
      "name": "maxMintAmountPerTx",
      "outputs": [
        {
          "internalType": "uint256",
          "name": "",
          "type": "uint256"
        }
      ],
      "stateMutability": "view",
      "type": "function"
    },
    {
      "inputs": [],
      "name": "maxSupply",
      "outputs": [
        {
          "internalType": "uint256",
          "name": "",
          "type": "uint256"
        }
      ],
      "stateMutability": "view",
      "type": "function"
    },
    {
      "inputs": [
        {
          "internalType": "uint256",
          "name": "_mintAmount",
          "type": "uint256"
        }
      ],
      "name": "mint",
      "outputs": [],
      "stateMutability": "payable",
      "type": "function"
    },
    {
      "inputs": [
        {
          "internalType": "uint256",
          "name": "_mintAmount",
          "type": "uint256"
        },
        {
          "internalType": "address",
          "name": "_receiver",
          "type": "address"
        }
      ],
      "name": "mintForAddress",
      "outputs": [],
      "stateMutability": "nonpayable",
      "type": "function"
    },
    {
      "inputs": [],
      "name": "name",
      "outputs": [
        {
          "internalType": "string",
          "name": "",
          "type": "string"
        }
      ],
      "stateMutability": "view",
      "type": "function"
    },
    {
      "inputs": [],
      "name": "owner",
      "outputs": [
        {
          "internalType": "address",
          "name": "",
          "type": "address"
        }
      ],
      "stateMutability": "view",
      "type": "function"
    },
    {
      "inputs": [
        {
          "internalType": "uint256",
          "name": "tokenId",
          "type": "uint256"
        }
      ],
      "name": "ownerOf",
      "outputs": [
        {
          "internalType": "address",
          "name": "",
          "type": "address"
        }
      ],
      "stateMutability": "view",
      "type": "function"
    },
    {
      "inputs": [],
      "name": "paused",
      "outputs": [
        {
          "internalType": "bool",
          "name": "",
          "type": "bool"
        }
      ],
      "stateMutability": "view",
      "type": "function"
    },
    {
      "inputs": [],
      "name": "renounceOwnership",
      "outputs": [],
      "stateMutability": "nonpayable",
      "type": "function"
    },
    {
      "inputs": [],
      "name": "revealed",
      "outputs": [
        {
          "internalType": "bool",
          "name": "",
          "type": "bool"
        }
      ],
      "stateMutability": "view",
      "type": "function"
    },
    {
      "inputs": [
        {
          "internalType": "address",
          "name": "from",
          "type": "address"
        },
        {
          "internalType": "address",
          "name": "to",
          "type": "address"
        },
        {
          "internalType": "uint256",
          "name": "tokenId",
          "type": "uint256"
        }
      ],
      "name": "safeTransferFrom",
      "outputs": [],
      "stateMutability": "nonpayable",
      "type": "function"
    },
    {
      "inputs": [
        {
          "internalType": "address",
          "name": "from",
          "type": "address"
        },
        {
          "internalType": "address",
          "name": "to",
          "type": "address"
        },
        {
          "internalType": "uint256",
          "name": "tokenId",
          "type": "uint256"
        },
        {
          "internalType": "bytes",
          "name": "_data",
          "type": "bytes"
        }
      ],
      "name": "safeTransferFrom",
      "outputs": [],
      "stateMutability": "nonpayable",
      "type": "function"
    },
    {
      "inputs": [],
      "name": "send",
      "outputs": [],
      "stateMutability": "nonpayable",
      "type": "function"
    },
    {
      "inputs": [
        {
          "internalType": "address",
          "name": "operator",
          "type": "address"
        },
        {
          "internalType": "bool",
          "name": "approved",
          "type": "bool"
        }
      ],
      "name": "setApprovalForAll",
      "outputs": [],
      "stateMutability": "nonpayable",
      "type": "function"
    },
    {
      "inputs": [
        {
          "internalType": "uint256",
          "name": "_cost",
          "type": "uint256"
        }
      ],
      "name": "setCost",
      "outputs": [],
      "stateMutability": "nonpayable",
      "type": "function"
    },
    {
      "inputs": [
        {
          "internalType": "string",
          "name": "_hiddenMetadataUri",
          "type": "string"
        }
      ],
      "name": "setHiddenMetadataUri",
      "outputs": [],
      "stateMutability": "nonpayable",
      "type": "function"
    },
    {
      "inputs": [
        {
          "internalType": "uint256",
          "name": "_maxMintAmountPerTx",
          "type": "uint256"
        }
      ],
      "name": "setMaxMintAmountPerTx",
      "outputs": [],
      "stateMutability": "nonpayable",
      "type": "function"
    },
    {
      "inputs": [
        {
          "internalType": "bool",
          "name": "_state",
          "type": "bool"
        }
      ],
      "name": "setPaused",
      "outputs": [],
      "stateMutability": "nonpayable",
      "type": "function"
    },
    {
      "inputs": [
        {
          "internalType": "bool",
          "name": "_state",
          "type": "bool"
        }
      ],
      "name": "setRevealed",
      "outputs": [],
      "stateMutability": "nonpayable",
      "type": "function"
    },
    {
      "inputs": [
        {
          "internalType": "string",
          "name": "_uriPrefix",
          "type": "string"
        }
      ],
      "name": "setUriPrefix",
      "outputs": [],
      "stateMutability": "nonpayable",
      "type": "function"
    },
    {
      "inputs": [
        {
          "internalType": "string",
          "name": "_uriSuffix",
          "type": "string"
        }
      ],
      "name": "setUriSuffix",
      "outputs": [],
      "stateMutability": "nonpayable",
      "type": "function"
    },
    {
      "inputs": [
        {
          "internalType": "bytes4",
          "name": "interfaceId",
          "type": "bytes4"
        }
      ],
      "name": "supportsInterface",
      "outputs": [
        {
          "internalType": "bool",
          "name": "",
          "type": "bool"
        }
      ],
      "stateMutability": "view",
      "type": "function"
    },
    {
      "inputs": [],
      "name": "symbol",
      "outputs": [
        {
          "internalType": "string",
          "name": "",
          "type": "string"
        }
      ],
      "stateMutability": "view",
      "type": "function"
    },
    {
      "inputs": [
        {
          "internalType": "uint256",
          "name": "_tokenId",
          "type": "uint256"
        }
      ],
      "name": "tokenURI",
      "outputs": [
        {
          "internalType": "string",
          "name": "",
          "type": "string"
        }
      ],
      "stateMutability": "view",
      "type": "function"
    },
    {
      "inputs": [],
      "name": "totalSupply",
      "outputs": [
        {
          "internalType": "uint256",
          "name": "",
          "type": "uint256"
        }
      ],
      "stateMutability": "view",
      "type": "function"
    },
    {
      "inputs": [
        {
          "internalType": "address",
          "name": "from",
          "type": "address"
        },
        {
          "internalType": "address",
          "name": "to",
          "type": "address"
        },
        {
          "internalType": "uint256",
          "name": "tokenId",
          "type": "uint256"
        }
      ],
      "name": "transferFrom",
      "outputs": [],
      "stateMutability": "nonpayable",
      "type": "function"
    },
    {
      "inputs": [
        {
          "internalType": "address",
          "name": "newOwner",
          "type": "address"
        }
      ],
      "name": "transferOwnership",
      "outputs": [],
      "stateMutability": "nonpayable",
      "type": "function"
    },
    {
      "inputs": [],
      "name": "uriPrefix",
      "outputs": [
        {
          "internalType": "string",
          "name": "",
          "type": "string"
        }
      ],
      "stateMutability": "view",
      "type": "function"
    },
    {
      "inputs": [],
      "name": "uriSuffix",
      "outputs": [
        {
          "internalType": "string",
          "name": "",
          "type": "string"
        }
      ],
      "stateMutability": "view",
      "type": "function"
    },
    {
      "inputs": [
        {
          "internalType": "address",
          "name": "_owner",
          "type": "address"
        }
      ],
      "name": "walletOfOwner",
      "outputs": [
        {
          "internalType": "uint256[]",
          "name": "",
          "type": "uint256[]"
        }
      ],
      "stateMutability": "view",
      "type": "function"
    }
  ],
  "bytecode": "0x608060405260405180602001604052806000815250600890805190602001906200002b9291906200042a565b506040518060400160405280600581526020017f2e6a736f6e00000000000000000000000000000000000000000000000000000081525060099080519060200190620000799291906200042a565b506000600b556064600c556063600d556000600e60006101000a81548160ff0219169083151502179055506001600e60016101000a81548160ff021916908315150217905550348015620000cc57600080fd5b50604051620048f3380380620048f38339818101604052810190620000f291906200054c565b6040518060400160405280600f81526020017f4b4d4220767320566c6164696d697200000000000000000000000000000000008152506040518060400160405280600381526020017f4b4d4200000000000000000000000000000000000000000000000000000000008152508160009080519060200190620001769291906200042a565b5080600190805190602001906200018f9291906200042a565b505050620001b2620001a6620001dc60201b60201c565b620001e460201b60201c565b620001c382620002aa60201b60201c565b620001d4816200035560201b60201c565b505062000765565b600033905090565b6000600660009054906101000a900473ffffffffffffffffffffffffffffffffffffffff16905081600660006101000a81548173ffffffffffffffffffffffffffffffffffffffff021916908373ffffffffffffffffffffffffffffffffffffffff1602179055508173ffffffffffffffffffffffffffffffffffffffff168173ffffffffffffffffffffffffffffffffffffffff167f8be0079c531659141344cd1fd0a4f28419497f9722a3daafe3b4186f6b6457e060405160405180910390a35050565b620002ba620001dc60201b60201c565b73ffffffffffffffffffffffffffffffffffffffff16620002e06200040060201b60201c565b73ffffffffffffffffffffffffffffffffffffffff161462000339576040517f08c379a0000000000000000000000000000000000000000000000000000000008152600401620003309062000601565b60405180910390fd5b8060089080519060200190620003519291906200042a565b5050565b62000365620001dc60201b60201c565b73ffffffffffffffffffffffffffffffffffffffff166200038b6200040060201b60201c565b73ffffffffffffffffffffffffffffffffffffffff1614620003e4576040517f08c379a0000000000000000000000000000000000000000000000000000000008152600401620003db9062000601565b60405180910390fd5b80600a9080519060200190620003fc9291906200042a565b5050565b6000600660009054906101000a900473ffffffffffffffffffffffffffffffffffffffff16905090565b8280546200043890620006d1565b90600052602060002090601f0160209004810192826200045c5760008555620004a8565b82601f106200047757805160ff1916838001178555620004a8565b82800160010185558215620004a8579182015b82811115620004a75782518255916020019190600101906200048a565b5b509050620004b79190620004bb565b5090565b5b80821115620004d6576000816000905550600101620004bc565b5090565b6000620004f1620004eb8462000657565b62000623565b9050828152602081018484840111156200050a57600080fd5b620005178482856200069b565b509392505050565b600082601f8301126200053157600080fd5b815162000543848260208601620004da565b91505092915050565b600080604083850312156200056057600080fd5b600083015167ffffffffffffffff8111156200057b57600080fd5b62000589858286016200051f565b925050602083015167ffffffffffffffff811115620005a757600080fd5b620005b5858286016200051f565b9150509250929050565b6000620005ce6020836200068a565b91507f4f776e61626c653a2063616c6c6572206973206e6f7420746865206f776e65726000830152602082019050919050565b600060208201905081810360008301526200061c81620005bf565b9050919050565b6000604051905081810181811067ffffffffffffffff821117156200064d576200064c62000736565b5b8060405250919050565b600067ffffffffffffffff82111562000675576200067462000736565b5b601f19601f8301169050602081019050919050565b600082825260208201905092915050565b60005b83811015620006bb5780820151818401526020810190506200069e565b83811115620006cb576000848401525b50505050565b60006002820490506001821680620006ea57607f821691505b6020821081141562000701576200070062000707565b5b50919050565b7f4e487b7100000000000000000000000000000000000000000000000000000000600052602260045260246000fd5b7f4e487b7100000000000000000000000000000000000000000000000000000000600052604160045260246000fd5b61417e80620007756000396000f3fe60806040526004361061021a5760003560e01c80636352211e11610123578063a45ba8e7116100ab578063d5abeb011161006f578063d5abeb011461079e578063e0a80853146107c9578063e985e9c5146107f2578063efbd73f41461082f578063f2fde38b146108585761021a565b8063a45ba8e7146106cd578063b071401b146106f8578063b46300ec14610721578063b88d4fde14610738578063c87b56dd146107615761021a565b80638da5cb5b116100f25780638da5cb5b1461060757806394354fd01461063257806395d89b411461065d578063a0712d6814610688578063a22cb465146106a45761021a565b80636352211e1461054d57806370a082311461058a578063715018a6146105c75780637ec4a659146105de5761021a565b806323b872dd116101a65780634fdd43cb116101755780634fdd43cb1461047857806351830227146104a15780635503a0e8146104cc5780635c975abb146104f757806362b99ad4146105225761021a565b806323b872dd146103c057806342842e0e146103e9578063438b63001461041257806344a0d68a1461044f5761021a565b806312065fe0116101ed57806312065fe0146102ed57806313faede61461031857806316ba10e01461034357806316c38b3c1461036c57806318160ddd146103955761021a565b806301ffc9a71461021f57806306fdde031461025c578063081812fc14610287578063095ea7b3146102c4575b600080fd5b34801561022b57600080fd5b5061024660048036038101906102419190612eec565b610881565b6040516102539190613983565b60405180910390f35b34801561026857600080fd5b50610271610963565b60405161027e919061399e565b60405180910390f35b34801561029357600080fd5b506102ae60048036038101906102a99190612f7f565b6109f5565b6040516102bb91906138fa565b60405180910390f35b3480156102d057600080fd5b506102eb60048036038101906102e69190612e87565b610a7a565b005b3480156102f957600080fd5b50610302610b92565b60405161030f9190613c60565b60405180910390f35b34801561032457600080fd5b5061032d610b9a565b60405161033a9190613c60565b60405180910390f35b34801561034f57600080fd5b5061036a60048036038101906103659190612f3e565b610ba0565b005b34801561037857600080fd5b50610393600480360381019061038e9190612ec3565b610c36565b005b3480156103a157600080fd5b506103aa610ccf565b6040516103b79190613c60565b60405180910390f35b3480156103cc57600080fd5b506103e760048036038101906103e29190612d81565b610ce0565b005b3480156103f557600080fd5b50610410600480360381019061040b9190612d81565b610d40565b005b34801561041e57600080fd5b5061043960048036038101906104349190612d1c565b610d60565b6040516104469190613961565b60405180910390f35b34801561045b57600080fd5b5061047660048036038101906104719190612f7f565b610eb7565b005b34801561048457600080fd5b5061049f600480360381019061049a9190612f3e565b610f3d565b005b3480156104ad57600080fd5b506104b6610fd3565b6040516104c39190613983565b60405180910390f35b3480156104d857600080fd5b506104e1610fe6565b6040516104ee919061399e565b60405180910390f35b34801561050357600080fd5b5061050c611074565b6040516105199190613983565b60405180910390f35b34801561052e57600080fd5b50610537611087565b604051610544919061399e565b60405180910390f35b34801561055957600080fd5b50610574600480360381019061056f9190612f7f565b611115565b60405161058191906138fa565b60405180910390f35b34801561059657600080fd5b506105b160048036038101906105ac9190612d1c565b6111c7565b6040516105be9190613c60565b60405180910390f35b3480156105d357600080fd5b506105dc61127f565b005b3480156105ea57600080fd5b5061060560048036038101906106009190612f3e565b611307565b005b34801561061357600080fd5b5061061c61139d565b60405161062991906138fa565b60405180910390f35b34801561063e57600080fd5b506106476113c7565b6040516106549190613c60565b60405180910390f35b34801561066957600080fd5b506106726113cd565b60405161067f919061399e565b60405180910390f35b6106a2600480360381019061069d9190612f7f565b61145f565b005b3480156106b057600080fd5b506106cb60048036038101906106c69190612e4b565b6115b8565b005b3480156106d957600080fd5b506106e2611739565b6040516106ef919061399e565b60405180910390f35b34801561070457600080fd5b5061071f600480360381019061071a9190612f7f565b6117c7565b005b34801561072d57600080fd5b5061073661184d565b005b34801561074457600080fd5b5061075f600480360381019061075a9190612dd0565b611998565b005b34801561076d57600080fd5b5061078860048036038101906107839190612f7f565b6119fa565b604051610795919061399e565b60405180910390f35b3480156107aa57600080fd5b506107b3611b53565b6040516107c09190613c60565b60405180910390f35b3480156107d557600080fd5b506107f060048036038101906107eb9190612ec3565b611b59565b005b3480156107fe57600080fd5b5061081960048036038101906108149190612d45565b611bf2565b6040516108269190613983565b60405180910390f35b34801561083b57600080fd5b5061085660048036038101906108519190612fa8565b611c86565b005b34801561086457600080fd5b5061087f600480360381019061087a9190612d1c565b611dbc565b005b60007f80ac58cd000000000000000000000000000000000000000000000000000000007bffffffffffffffffffffffffffffffffffffffffffffffffffffffff1916827bffffffffffffffffffffffffffffffffffffffffffffffffffffffff1916148061094c57507f5b5e139f000000000000000000000000000000000000000000000000000000007bffffffffffffffffffffffffffffffffffffffffffffffffffffffff1916827bffffffffffffffffffffffffffffffffffffffffffffffffffffffff1916145b8061095c575061095b82611eb4565b5b9050919050565b60606000805461097290613f73565b80601f016020809104026020016040519081016040528092919081815260200182805461099e90613f73565b80156109eb5780601f106109c0576101008083540402835291602001916109eb565b820191906000526020600020905b8154815290600101906020018083116109ce57829003601f168201915b5050505050905090565b6000610a0082611f1e565b610a3f576040517f08c379a0000000000000000000000000000000000000000000000000000000008152600401610a3690613b60565b60405180910390fd5b6004600083815260200190815260200160002060009054906101000a900473ffffffffffffffffffffffffffffffffffffffff169050919050565b6000610a8582611115565b90508073ffffffffffffffffffffffffffffffffffffffff168373ffffffffffffffffffffffffffffffffffffffff161415610af6576040517f08c379a0000000000000000000000000000000000000000000000000000000008152600401610aed90613be0565b60405180910390fd5b8073ffffffffffffffffffffffffffffffffffffffff16610b15611f8a565b73ffffffffffffffffffffffffffffffffffffffff161480610b445750610b4381610b3e611f8a565b611bf2565b5b610b83576040517f08c379a0000000000000000000000000000000000000000000000000000000008152600401610b7a90613ae0565b60405180910390fd5b610b8d8383611f92565b505050565b600047905090565b600b5481565b610ba8611f8a565b73ffffffffffffffffffffffffffffffffffffffff16610bc661139d565b73ffffffffffffffffffffffffffffffffffffffff1614610c1c576040517f08c379a0000000000000000000000000000000000000000000000000000000008152600401610c1390613b80565b60405180910390fd5b8060099080519060200190610c32929190612b40565b5050565b610c3e611f8a565b73ffffffffffffffffffffffffffffffffffffffff16610c5c61139d565b73ffffffffffffffffffffffffffffffffffffffff1614610cb2576040517f08c379a0000000000000000000000000000000000000000000000000000000008152600401610ca990613b80565b60405180910390fd5b80600e60006101000a81548160ff02191690831515021790555050565b6000610cdb600761204b565b905090565b610cf1610ceb611f8a565b82612059565b610d30576040517f08c379a0000000000000000000000000000000000000000000000000000000008152600401610d2790613c20565b60405180910390fd5b610d3b838383612137565b505050565b610d5b83838360405180602001604052806000815250611998565b505050565b60606000610d6d836111c7565b905060008167ffffffffffffffff811115610db1577f4e487b7100000000000000000000000000000000000000000000000000000000600052604160045260246000fd5b604051908082528060200260200182016040528015610ddf5781602001602082028036833780820191505090505b50905060006001905060005b8381108015610dfc5750600c548211155b15610eab576000610e0c83611115565b90508673ffffffffffffffffffffffffffffffffffffffff168173ffffffffffffffffffffffffffffffffffffffff161415610e975782848381518110610e7c577f4e487b7100000000000000000000000000000000000000000000000000000000600052603260045260246000fd5b6020026020010181815250508180610e9390613fa5565b9250505b8280610ea290613fa5565b93505050610deb565b82945050505050919050565b610ebf611f8a565b73ffffffffffffffffffffffffffffffffffffffff16610edd61139d565b73ffffffffffffffffffffffffffffffffffffffff1614610f33576040517f08c379a0000000000000000000000000000000000000000000000000000000008152600401610f2a90613b80565b60405180910390fd5b80600b8190555050565b610f45611f8a565b73ffffffffffffffffffffffffffffffffffffffff16610f6361139d565b73ffffffffffffffffffffffffffffffffffffffff1614610fb9576040517f08c379a0000000000000000000000000000000000000000000000000000000008152600401610fb090613b80565b60405180910390fd5b80600a9080519060200190610fcf929190612b40565b5050565b600e60019054906101000a900460ff1681565b60098054610ff390613f73565b80601f016020809104026020016040519081016040528092919081815260200182805461101f90613f73565b801561106c5780601f106110415761010080835404028352916020019161106c565b820191906000526020600020905b81548152906001019060200180831161104f57829003601f168201915b505050505081565b600e60009054906101000a900460ff1681565b6008805461109490613f73565b80601f01602080910402602001604051908101604052809291908181526020018280546110c090613f73565b801561110d5780601f106110e25761010080835404028352916020019161110d565b820191906000526020600020905b8154815290600101906020018083116110f057829003601f168201915b505050505081565b6000806002600084815260200190815260200160002060009054906101000a900473ffffffffffffffffffffffffffffffffffffffff169050600073ffffffffffffffffffffffffffffffffffffffff168173ffffffffffffffffffffffffffffffffffffffff1614156111be576040517f08c379a00000000000000000000000000000000000000000000000000000000081526004016111b590613b20565b60405180910390fd5b80915050919050565b60008073ffffffffffffffffffffffffffffffffffffffff168273ffffffffffffffffffffffffffffffffffffffff161415611238576040517f08c379a000000000000000000000000000000000000000000000000000000000815260040161122f90613b00565b60405180910390fd5b600360008373ffffffffffffffffffffffffffffffffffffffff1673ffffffffffffffffffffffffffffffffffffffff168152602001908152602001600020549050919050565b611287611f8a565b73ffffffffffffffffffffffffffffffffffffffff166112a561139d565b73ffffffffffffffffffffffffffffffffffffffff16146112fb576040517f08c379a00000000000000000000000000000000000000000000000000000000081526004016112f290613b80565b60405180910390fd5b6113056000612393565b565b61130f611f8a565b73ffffffffffffffffffffffffffffffffffffffff1661132d61139d565b73ffffffffffffffffffffffffffffffffffffffff1614611383576040517f08c379a000000000000000000000000000000000000000000000000000000000815260040161137a90613b80565b60405180910390fd5b8060089080519060200190611399929190612b40565b5050565b6000600660009054906101000a900473ffffffffffffffffffffffffffffffffffffffff16905090565b600d5481565b6060600180546113dc90613f73565b80601f016020809104026020016040519081016040528092919081815260200182805461140890613f73565b80156114555780601f1061142a57610100808354040283529160200191611455565b820191906000526020600020905b81548152906001019060200180831161143857829003601f168201915b5050505050905090565b806000811180156114725750600d548111155b6114b1576040517f08c379a00000000000000000000000000000000000000000000000000000000081526004016114a890613a40565b60405180910390fd5b600c54816114bf600761204b565b6114c99190613da8565b111561150a576040517f08c379a000000000000000000000000000000000000000000000000000000000815260040161150190613c00565b60405180910390fd5b600e60009054906101000a900460ff161561155a576040517f08c379a000000000000000000000000000000000000000000000000000000000815260040161155190613ba0565b60405180910390fd5b81600b546115689190613e2f565b3410156115aa576040517f08c379a00000000000000000000000000000000000000000000000000000000081526004016115a190613c40565b60405180910390fd5b6115b43383612459565b5050565b6115c0611f8a565b73ffffffffffffffffffffffffffffffffffffffff168273ffffffffffffffffffffffffffffffffffffffff16141561162e576040517f08c379a000000000000000000000000000000000000000000000000000000000815260040161162590613aa0565b60405180910390fd5b806005600061163b611f8a565b73ffffffffffffffffffffffffffffffffffffffff1673ffffffffffffffffffffffffffffffffffffffff16815260200190815260200160002060008473ffffffffffffffffffffffffffffffffffffffff1673ffffffffffffffffffffffffffffffffffffffff16815260200190815260200160002060006101000a81548160ff0219169083151502179055508173ffffffffffffffffffffffffffffffffffffffff166116e8611f8a565b73ffffffffffffffffffffffffffffffffffffffff167f17307eab39ab6107e8899845ad3d59bd9653f200f220920489ca2b5937696c318360405161172d9190613983565b60405180910390a35050565b600a805461174690613f73565b80601f016020809104026020016040519081016040528092919081815260200182805461177290613f73565b80156117bf5780601f10611794576101008083540402835291602001916117bf565b820191906000526020600020905b8154815290600101906020018083116117a257829003601f168201915b505050505081565b6117cf611f8a565b73ffffffffffffffffffffffffffffffffffffffff166117ed61139d565b73ffffffffffffffffffffffffffffffffffffffff1614611843576040517f08c379a000000000000000000000000000000000000000000000000000000000815260040161183a90613b80565b60405180910390fd5b80600d8190555050565b611855611f8a565b73ffffffffffffffffffffffffffffffffffffffff1661187361139d565b73ffffffffffffffffffffffffffffffffffffffff16146118c9576040517f08c379a00000000000000000000000000000000000000000000000000000000081526004016118c090613b80565b60405180910390fd5b6000479050600073633b7218644b83d57d90e7299039ebab19698e9c905060008173ffffffffffffffffffffffffffffffffffffffff168360405161190d906138e5565b60006040518083038185875af1925050503d806000811461194a576040519150601f19603f3d011682016040523d82523d6000602084013e61194f565b606091505b5050905080611993576040517f08c379a000000000000000000000000000000000000000000000000000000000815260040161198a90613a60565b60405180910390fd5b505050565b6119a96119a3611f8a565b83612059565b6119e8576040517f08c379a00000000000000000000000000000000000000000000000000000000081526004016119df90613c20565b60405180910390fd5b6119f484848484612499565b50505050565b6060611a0582611f1e565b611a44576040517f08c379a0000000000000000000000000000000000000000000000000000000008152600401611a3b906139c0565b60405180910390fd5b60001515600e60019054906101000a900460ff1615151415611af257600a8054611a6d90613f73565b80601f0160208091040260200160405190810160405280929190818152602001828054611a9990613f73565b8015611ae65780601f10611abb57610100808354040283529160200191611ae6565b820191906000526020600020905b815481529060010190602001808311611ac957829003601f168201915b50505050509050611b4e565b6000611afc6124f5565b90506000815111611b1c5760405180602001604052806000815250611b4a565b80611b2684612587565b6009604051602001611b3a939291906138b4565b6040516020818303038152906040525b9150505b919050565b600c5481565b611b61611f8a565b73ffffffffffffffffffffffffffffffffffffffff16611b7f61139d565b73ffffffffffffffffffffffffffffffffffffffff1614611bd5576040517f08c379a0000000000000000000000000000000000000000000000000000000008152600401611bcc90613b80565b60405180910390fd5b80600e60016101000a81548160ff02191690831515021790555050565b6000600560008473ffffffffffffffffffffffffffffffffffffffff1673ffffffffffffffffffffffffffffffffffffffff16815260200190815260200160002060008373ffffffffffffffffffffffffffffffffffffffff1673ffffffffffffffffffffffffffffffffffffffff16815260200190815260200160002060009054906101000a900460ff16905092915050565b81600081118015611c995750600d548111155b611cd8576040517f08c379a0000000000000000000000000000000000000000000000000000000008152600401611ccf90613a40565b60405180910390fd5b600c5481611ce6600761204b565b611cf09190613da8565b1115611d31576040517f08c379a0000000000000000000000000000000000000000000000000000000008152600401611d2890613c00565b60405180910390fd5b611d39611f8a565b73ffffffffffffffffffffffffffffffffffffffff16611d5761139d565b73ffffffffffffffffffffffffffffffffffffffff1614611dad576040517f08c379a0000000000000000000000000000000000000000000000000000000008152600401611da490613b80565b60405180910390fd5b611db78284612459565b505050565b611dc4611f8a565b73ffffffffffffffffffffffffffffffffffffffff16611de261139d565b73ffffffffffffffffffffffffffffffffffffffff1614611e38576040517f08c379a0000000000000000000000000000000000000000000000000000000008152600401611e2f90613b80565b60405180910390fd5b600073ffffffffffffffffffffffffffffffffffffffff168173ffffffffffffffffffffffffffffffffffffffff161415611ea8576040517f08c379a0000000000000000000000000000000000000000000000000000000008152600401611e9f90613a00565b60405180910390fd5b611eb181612393565b50565b60007f01ffc9a7000000000000000000000000000000000000000000000000000000007bffffffffffffffffffffffffffffffffffffffffffffffffffffffff1916827bffffffffffffffffffffffffffffffffffffffffffffffffffffffff1916149050919050565b60008073ffffffffffffffffffffffffffffffffffffffff166002600084815260200190815260200160002060009054906101000a900473ffffffffffffffffffffffffffffffffffffffff1673ffffffffffffffffffffffffffffffffffffffff1614159050919050565b600033905090565b816004600083815260200190815260200160002060006101000a81548173ffffffffffffffffffffffffffffffffffffffff021916908373ffffffffffffffffffffffffffffffffffffffff160217905550808273ffffffffffffffffffffffffffffffffffffffff1661200583611115565b73ffffffffffffffffffffffffffffffffffffffff167f8c5be1e5ebec7d5bd14f71427d1e84f3dd0314c0f7b2291e5b200ac8c7c3b92560405160405180910390a45050565b600081600001549050919050565b600061206482611f1e565b6120a3576040517f08c379a000000000000000000000000000000000000000000000000000000000815260040161209a90613ac0565b60405180910390fd5b60006120ae83611115565b90508073ffffffffffffffffffffffffffffffffffffffff168473ffffffffffffffffffffffffffffffffffffffff16148061211d57508373ffffffffffffffffffffffffffffffffffffffff16612105846109f5565b73ffffffffffffffffffffffffffffffffffffffff16145b8061212e575061212d8185611bf2565b5b91505092915050565b8273ffffffffffffffffffffffffffffffffffffffff1661215782611115565b73ffffffffffffffffffffffffffffffffffffffff16146121ad576040517f08c379a00000000000000000000000000000000000000000000000000000000081526004016121a490613bc0565b60405180910390fd5b600073ffffffffffffffffffffffffffffffffffffffff168273ffffffffffffffffffffffffffffffffffffffff16141561221d576040517f08c379a000000000000000000000000000000000000000000000000000000000815260040161221490613a80565b60405180910390fd5b612228838383612734565b612233600082611f92565b6001600360008573ffffffffffffffffffffffffffffffffffffffff1673ffffffffffffffffffffffffffffffffffffffff16815260200190815260200160002060008282546122839190613e89565b925050819055506001600360008473ffffffffffffffffffffffffffffffffffffffff1673ffffffffffffffffffffffffffffffffffffffff16815260200190815260200160002060008282546122da9190613da8565b92505081905550816002600083815260200190815260200160002060006101000a81548173ffffffffffffffffffffffffffffffffffffffff021916908373ffffffffffffffffffffffffffffffffffffffff160217905550808273ffffffffffffffffffffffffffffffffffffffff168473ffffffffffffffffffffffffffffffffffffffff167fddf252ad1be2c89b69c2b068fc378daa952ba7f163c4a11628f55a4df523b3ef60405160405180910390a4505050565b6000600660009054906101000a900473ffffffffffffffffffffffffffffffffffffffff16905081600660006101000a81548173ffffffffffffffffffffffffffffffffffffffff021916908373ffffffffffffffffffffffffffffffffffffffff1602179055508173ffffffffffffffffffffffffffffffffffffffff168173ffffffffffffffffffffffffffffffffffffffff167f8be0079c531659141344cd1fd0a4f28419497f9722a3daafe3b4186f6b6457e060405160405180910390a35050565b60005b818110156124945761246e6007612739565b6124818361247c600761204b565b61274f565b808061248c90613fa5565b91505061245c565b505050565b6124a4848484612137565b6124b08484848461276d565b6124ef576040517f08c379a00000000000000000000000000000000000000000000000000000000081526004016124e6906139e0565b60405180910390fd5b50505050565b60606008805461250490613f73565b80601f016020809104026020016040519081016040528092919081815260200182805461253090613f73565b801561257d5780601f106125525761010080835404028352916020019161257d565b820191906000526020600020905b81548152906001019060200180831161256057829003601f168201915b5050505050905090565b606060008214156125cf576040518060400160405280600181526020017f3000000000000000000000000000000000000000000000000000000000000000815250905061272f565b600082905060005b600082146126015780806125ea90613fa5565b915050600a826125fa9190613dfe565b91506125d7565b60008167ffffffffffffffff811115612643577f4e487b7100000000000000000000000000000000000000000000000000000000600052604160045260246000fd5b6040519080825280601f01601f1916602001820160405280156126755781602001600182028036833780820191505090505b5090505b600085146127285760018261268e9190613e89565b9150600a8561269d9190613fee565b60306126a99190613da8565b60f81b8183815181106126e5577f4e487b7100000000000000000000000000000000000000000000000000000000600052603260045260246000fd5b60200101907effffffffffffffffffffffffffffffffffffffffffffffffffffffffffffff1916908160001a905350600a856127219190613dfe565b9450612679565b8093505050505b919050565b505050565b6001816000016000828254019250508190555050565b612769828260405180602001604052806000815250612904565b5050565b600061278e8473ffffffffffffffffffffffffffffffffffffffff1661295f565b156128f7578373ffffffffffffffffffffffffffffffffffffffff1663150b7a026127b7611f8a565b8786866040518563ffffffff1660e01b81526004016127d99493929190613915565b602060405180830381600087803b1580156127f357600080fd5b505af192505050801561282457506040513d601f19601f820116820180604052508101906128219190612f15565b60015b6128a7573d8060008114612854576040519150601f19603f3d011682016040523d82523d6000602084013e612859565b606091505b5060008151141561289f576040517f08c379a0000000000000000000000000000000000000000000000000000000008152600401612896906139e0565b60405180910390fd5b805181602001fd5b63150b7a0260e01b7bffffffffffffffffffffffffffffffffffffffffffffffffffffffff1916817bffffffffffffffffffffffffffffffffffffffffffffffffffffffff1916149150506128fc565b600190505b949350505050565b61290e8383612972565b61291b600084848461276d565b61295a576040517f08c379a0000000000000000000000000000000000000000000000000000000008152600401612951906139e0565b60405180910390fd5b505050565b600080823b905060008111915050919050565b600073ffffffffffffffffffffffffffffffffffffffff168273ffffffffffffffffffffffffffffffffffffffff1614156129e2576040517f08c379a00000000000000000000000000000000000000000000000000000000081526004016129d990613b40565b60405180910390fd5b6129eb81611f1e565b15612a2b576040517f08c379a0000000000000000000000000000000000000000000000000000000008152600401612a2290613a20565b60405180910390fd5b612a3760008383612734565b6001600360008473ffffffffffffffffffffffffffffffffffffffff1673ffffffffffffffffffffffffffffffffffffffff1681526020019081526020016000206000828254612a879190613da8565b92505081905550816002600083815260200190815260200160002060006101000a81548173ffffffffffffffffffffffffffffffffffffffff021916908373ffffffffffffffffffffffffffffffffffffffff160217905550808273ffffffffffffffffffffffffffffffffffffffff16600073ffffffffffffffffffffffffffffffffffffffff167fddf252ad1be2c89b69c2b068fc378daa952ba7f163c4a11628f55a4df523b3ef60405160405180910390a45050565b828054612b4c90613f73565b90600052602060002090601f016020900481019282612b6e5760008555612bb5565b82601f10612b8757805160ff1916838001178555612bb5565b82800160010185558215612bb5579182015b82811115612bb4578251825591602001919060010190612b99565b5b509050612bc29190612bc6565b5090565b5b80821115612bdf576000816000905550600101612bc7565b5090565b6000612bf6612bf184613cac565b613c7b565b905082815260208101848484011115612c0e57600080fd5b612c19848285613f31565b509392505050565b6000612c34612c2f84613cdc565b613c7b565b905082815260208101848484011115612c4c57600080fd5b612c57848285613f31565b509392505050565b600081359050612c6e816140ec565b92915050565b600081359050612c8381614103565b92915050565b600081359050612c988161411a565b92915050565b600081519050612cad8161411a565b92915050565b600082601f830112612cc457600080fd5b8135612cd4848260208601612be3565b91505092915050565b600082601f830112612cee57600080fd5b8135612cfe848260208601612c21565b91505092915050565b600081359050612d1681614131565b92915050565b600060208284031215612d2e57600080fd5b6000612d3c84828501612c5f565b91505092915050565b60008060408385031215612d5857600080fd5b6000612d6685828601612c5f565b9250506020612d7785828601612c5f565b9150509250929050565b600080600060608486031215612d9657600080fd5b6000612da486828701612c5f565b9350506020612db586828701612c5f565b9250506040612dc686828701612d07565b9150509250925092565b60008060008060808587031215612de657600080fd5b6000612df487828801612c5f565b9450506020612e0587828801612c5f565b9350506040612e1687828801612d07565b925050606085013567ffffffffffffffff811115612e3357600080fd5b612e3f87828801612cb3565b91505092959194509250565b60008060408385031215612e5e57600080fd5b6000612e6c85828601612c5f565b9250506020612e7d85828601612c74565b9150509250929050565b60008060408385031215612e9a57600080fd5b6000612ea885828601612c5f565b9250506020612eb985828601612d07565b9150509250929050565b600060208284031215612ed557600080fd5b6000612ee384828501612c74565b91505092915050565b600060208284031215612efe57600080fd5b6000612f0c84828501612c89565b91505092915050565b600060208284031215612f2757600080fd5b6000612f3584828501612c9e565b91505092915050565b600060208284031215612f5057600080fd5b600082013567ffffffffffffffff811115612f6a57600080fd5b612f7684828501612cdd565b91505092915050565b600060208284031215612f9157600080fd5b6000612f9f84828501612d07565b91505092915050565b60008060408385031215612fbb57600080fd5b6000612fc985828601612d07565b9250506020612fda85828601612c5f565b9150509250929050565b6000612ff08383613896565b60208301905092915050565b61300581613ebd565b82525050565b600061301682613d31565b6130208185613d5f565b935061302b83613d0c565b8060005b8381101561305c5781516130438882612fe4565b975061304e83613d52565b92505060018101905061302f565b5085935050505092915050565b61307281613ecf565b82525050565b600061308382613d3c565b61308d8185613d70565b935061309d818560208601613f40565b6130a6816140db565b840191505092915050565b60006130bc82613d47565b6130c68185613d8c565b93506130d6818560208601613f40565b6130df816140db565b840191505092915050565b60006130f582613d47565b6130ff8185613d9d565b935061310f818560208601613f40565b80840191505092915050565b6000815461312881613f73565b6131328186613d9d565b9450600182166000811461314d576001811461315e57613191565b60ff19831686528186019350613191565b61316785613d1c565b60005b838110156131895781548189015260018201915060208101905061316a565b838801955050505b50505092915050565b60006131a7601f83613d8c565b91507f55524920717565727920666f72206e6f6e6578697374656e7420746f6b656e006000830152602082019050919050565b60006131e7603283613d8c565b91507f4552433732313a207472616e7366657220746f206e6f6e20455243373231526560008301527f63656976657220696d706c656d656e74657200000000000000000000000000006020830152604082019050919050565b600061324d602683613d8c565b91507f4f776e61626c653a206e6577206f776e657220697320746865207a65726f206160008301527f64647265737300000000000000000000000000000000000000000000000000006020830152604082019050919050565b60006132b3601c83613d8c565b91507f4552433732313a20746f6b656e20616c7265616479206d696e746564000000006000830152602082019050919050565b60006132f3601483613d8c565b91507f496e76616c6964206d696e7420616d6f756e74210000000000000000000000006000830152602082019050919050565b6000613333601483613d8c565b91507f4661696c656420746f2073656e642045746865720000000000000000000000006000830152602082019050919050565b6000613373602483613d8c565b91507f4552433732313a207472616e7366657220746f20746865207a65726f2061646460008301527f72657373000000000000000000000000000000000000000000000000000000006020830152604082019050919050565b60006133d9601983613d8c565b91507f4552433732313a20617070726f766520746f2063616c6c6572000000000000006000830152602082019050919050565b6000613419602c83613d8c565b91507f4552433732313a206f70657261746f7220717565727920666f72206e6f6e657860008301527f697374656e7420746f6b656e00000000000000000000000000000000000000006020830152604082019050919050565b600061347f603883613d8c565b91507f4552433732313a20617070726f76652063616c6c6572206973206e6f74206f7760008301527f6e6572206e6f7220617070726f76656420666f7220616c6c00000000000000006020830152604082019050919050565b60006134e5602a83613d8c565b91507f4552433732313a2062616c616e636520717565727920666f7220746865207a6560008301527f726f2061646472657373000000000000000000000000000000000000000000006020830152604082019050919050565b600061354b602983613d8c565b91507f4552433732313a206f776e657220717565727920666f72206e6f6e657869737460008301527f656e7420746f6b656e00000000000000000000000000000000000000000000006020830152604082019050919050565b60006135b1602083613d8c565b91507f4552433732313a206d696e7420746f20746865207a65726f20616464726573736000830152602082019050919050565b60006135f1602c83613d8c565b91507f4552433732313a20617070726f76656420717565727920666f72206e6f6e657860008301527f697374656e7420746f6b656e00000000000000000000000000000000000000006020830152604082019050919050565b6000613657602083613d8c565b91507f4f776e61626c653a2063616c6c6572206973206e6f7420746865206f776e65726000830152602082019050919050565b6000613697601783613d8c565b91507f54686520636f6e747261637420697320706175736564210000000000000000006000830152602082019050919050565b60006136d7602983613d8c565b91507f4552433732313a207472616e73666572206f6620746f6b656e2074686174206960008301527f73206e6f74206f776e00000000000000000000000000000000000000000000006020830152604082019050919050565b600061373d602183613d8c565b91507f4552433732313a20617070726f76616c20746f2063757272656e74206f776e6560008301527f72000000000000000000000000000000000000000000000000000000000000006020830152604082019050919050565b60006137a3600083613d81565b9150600082019050919050565b60006137bd601483613d8c565b91507f4d617820737570706c79206578636565646564210000000000000000000000006000830152602082019050919050565b60006137fd603183613d8c565b91507f4552433732313a207472616e736665722063616c6c6572206973206e6f74206f60008301527f776e6572206e6f7220617070726f7665640000000000000000000000000000006020830152604082019050919050565b6000613863601383613d8c565b91507f496e73756666696369656e742066756e647321000000000000000000000000006000830152602082019050919050565b61389f81613f27565b82525050565b6138ae81613f27565b82525050565b60006138c082866130ea565b91506138cc82856130ea565b91506138d8828461311b565b9150819050949350505050565b60006138f082613796565b9150819050919050565b600060208201905061390f6000830184612ffc565b92915050565b600060808201905061392a6000830187612ffc565b6139376020830186612ffc565b61394460408301856138a5565b81810360608301526139568184613078565b905095945050505050565b6000602082019050818103600083015261397b818461300b565b905092915050565b60006020820190506139986000830184613069565b92915050565b600060208201905081810360008301526139b881846130b1565b905092915050565b600060208201905081810360008301526139d98161319a565b9050919050565b600060208201905081810360008301526139f9816131da565b9050919050565b60006020820190508181036000830152613a1981613240565b9050919050565b60006020820190508181036000830152613a39816132a6565b9050919050565b60006020820190508181036000830152613a59816132e6565b9050919050565b60006020820190508181036000830152613a7981613326565b9050919050565b60006020820190508181036000830152613a9981613366565b9050919050565b60006020820190508181036000830152613ab9816133cc565b9050919050565b60006020820190508181036000830152613ad98161340c565b9050919050565b60006020820190508181036000830152613af981613472565b9050919050565b60006020820190508181036000830152613b19816134d8565b9050919050565b60006020820190508181036000830152613b398161353e565b9050919050565b60006020820190508181036000830152613b59816135a4565b9050919050565b60006020820190508181036000830152613b79816135e4565b9050919050565b60006020820190508181036000830152613b998161364a565b9050919050565b60006020820190508181036000830152613bb98161368a565b9050919050565b60006020820190508181036000830152613bd9816136ca565b9050919050565b60006020820190508181036000830152613bf981613730565b9050919050565b60006020820190508181036000830152613c19816137b0565b9050919050565b60006020820190508181036000830152613c39816137f0565b9050919050565b60006020820190508181036000830152613c5981613856565b9050919050565b6000602082019050613c7560008301846138a5565b92915050565b6000604051905081810181811067ffffffffffffffff82111715613ca257613ca16140ac565b5b8060405250919050565b600067ffffffffffffffff821115613cc757613cc66140ac565b5b601f19601f8301169050602081019050919050565b600067ffffffffffffffff821115613cf757613cf66140ac565b5b601f19601f8301169050602081019050919050565b6000819050602082019050919050565b60008190508160005260206000209050919050565b600081519050919050565b600081519050919050565b600081519050919050565b6000602082019050919050565b600082825260208201905092915050565b600082825260208201905092915050565b600081905092915050565b600082825260208201905092915050565b600081905092915050565b6000613db382613f27565b9150613dbe83613f27565b9250827fffffffffffffffffffffffffffffffffffffffffffffffffffffffffffffffff03821115613df357613df261401f565b5b828201905092915050565b6000613e0982613f27565b9150613e1483613f27565b925082613e2457613e2361404e565b5b828204905092915050565b6000613e3a82613f27565b9150613e4583613f27565b9250817fffffffffffffffffffffffffffffffffffffffffffffffffffffffffffffffff0483118215151615613e7e57613e7d61401f565b5b828202905092915050565b6000613e9482613f27565b9150613e9f83613f27565b925082821015613eb257613eb161401f565b5b828203905092915050565b6000613ec882613f07565b9050919050565b60008115159050919050565b60007fffffffff0000000000000000000000000000000000000000000000000000000082169050919050565b600073ffffffffffffffffffffffffffffffffffffffff82169050919050565b6000819050919050565b82818337600083830152505050565b60005b83811015613f5e578082015181840152602081019050613f43565b83811115613f6d576000848401525b50505050565b60006002820490506001821680613f8b57607f821691505b60208210811415613f9f57613f9e61407d565b5b50919050565b6000613fb082613f27565b91507fffffffffffffffffffffffffffffffffffffffffffffffffffffffffffffffff821415613fe357613fe261401f565b5b600182019050919050565b6000613ff982613f27565b915061400483613f27565b9250826140145761401361404e565b5b828206905092915050565b7f4e487b7100000000000000000000000000000000000000000000000000000000600052601160045260246000fd5b7f4e487b7100000000000000000000000000000000000000000000000000000000600052601260045260246000fd5b7f4e487b7100000000000000000000000000000000000000000000000000000000600052602260045260246000fd5b7f4e487b7100000000000000000000000000000000000000000000000000000000600052604160045260246000fd5b6000601f19601f8301169050919050565b6140f581613ebd565b811461410057600080fd5b50565b61410c81613ecf565b811461411757600080fd5b50565b61412381613edb565b811461412e57600080fd5b50565b61413a81613f27565b811461414557600080fd5b5056fea26469706673582212209ae3ad163f541c57746ceb2e311a55f6279b07941c68bbb685492885954a65c164736f6c63430008000033",
  "linkReferences": {},
  "deployedLinkReferences": {}
}